:0400000007EF00F016
:0A0008007E8238ED0CF026EF13F0B5
:10100000003738392F3435362A3132332D23303DED
:051010002B2569000022
:101016002B50800B346E2B502B24366E2AAE16EFD7
:1010260008F018EF08F019EF08F036803650D8B4FB
:101036001FEF08F021EF08F036EF08F03628D8A4A5
:1010460027EF08F029EF08F031EF08F0000E286EC0
:10105600000E296E000E2A6E000E2B6E2A8E000ED2
:101066002B6E3EEF08F0000E286E000E296E000E65
:101076002A6E000E2B6E2F50800B356E34503518AD
:10108600D8B448EF08F04AEF08F04BEF08F0348C7C
:101096002F502F24356E2EAE53EF08F055EF08F083
:1010A60056EF08F035803550D8B45CEF08F05EEFA7
:1010B60008F073EF08F03528D8A464EF08F066EF5F
:1010C60008F06EEF08F0000E2C6E000E2D6E000E6E
:1010D6002E6E000E2F6E2E8E000E2F6E7BEF08F0FA
:1010E600000E2C6E000E2D6E000E2E6E000E2F6E54
:1010F6003650355CD8B082EF08F084EF08F0ABEFDD
:1011060008F034AC89EF08F08BEF08F08DEF08F0AB
:10111600800E341A36C037F035C036F037C035F099
:1011260028C037F02CC028F037C02CF029C037F083
:101136002DC029F037C02DF02AC037F02EC02AF076
:1011460037C02EF02BC037F02FC02BF037C02FF052
:10115600000E376E365035C030F0316A305E000E04
:10116600315A31BEC0EF08F0315009E11A0E305C39
:10117600D8A0C0EF08F0C2EF08F0F9EF08F0285049
:1011860029102A102B10D8A4CBEF08F0CEEF08F0C8
:10119600010ECFEF08F0000E376E000E286E000E1F
:1011A600296E000E2A6E000E2B6E35C036F002EF49
:1011B60009F037A0E1EF08F0E3EF08F0E9EF08F0F7
:1011C600D89037300109376EEBEF08F0D8903732F8
:1011D60028A0F0EF08F0F2EF08F0F3EF08F0378EF2
:1011E6002B342B322A3229322832362A3550365CB5
:1011F600D8A000EF09F002EF09F0DCEF08F034BCEC
:1012060007EF09F009EF09F049EF09F03650D8A4C5
:101216000FEF09F011EF09F01BEF09F0000E286E31
:10122600000E296E000E2A6E000E2B6E6AEF0AF073
:101236002C5028262D5029222E502A222F502B2280
:101246002BA028EF09F02AEF09F0D6EF09F037A016
:101256002FEF09F031EF09F037EF09F0D89037306A
:101266000109376E39EF09F0D890373228A03EEFE2
:1012760009F040EF09F041EF09F0378E2B342B329D
:101286002A3229322832362AD6EF09F02C50285C29
:101296002D5029582E502A582B50800A306E2F5028
:1012A600800A3058D8B05AEF09F05CEF09F087EFA2
:1012B60009F028502C5C306E29502D58316E2A507A
:1012C6002E58326E2B502F58336EFF0E3024286E58
:1012D600FF0E3120296EFF0E32202A6EFF0E3320BC
:1012E6002B6E800E341A376C3750D8A47DEF09F078
:1012F6007FEF09F08FEF09F0010E2826000E292254
:101306002A222B228FEF09F02C50285E2D50295AC5
:101316002E502A5A2F502B5A285029102A102B109B
:10132600D8A498EF09F09AEF09F0CFEF09F03750FB
:10133600D8A4A0EF09F0A2EF09F0CFEF09F0000E54
:10134600286E000E296E000E2A6E000E2B6E6AEFB6
:101356000AF0D890283629362A362B3637AEB6EF1D
:1013660009F0B8EF09F0B9EF09F0288037A0BEEF11
:1013760009F0C0EF09F0C4EF09F0D8803736C6EFA0
:1013860009F0D89037363650D8B4CCEF09F0CEEF06
:1013960009F0CFEF09F036062AAED4EF09F0D6EF02
:1013A60009F0ACEF09F0000E356E37AEDDEF09F04F
:1013B600DFEF09F0F7EF09F037C030F07F0E301697
:1013C600D8B4E8EF09F0EAEF09F0EEEF09F0010E04
:1013D600356EF7EF09F028A0F3EF09F0F5EF09F005
:1013E600F7EF09F0EAEF09F03550D8B4FDEF09F050
:1013F600FFEF09F02AEF0AF0010E2826000E292237
:101406002A222B222BA00AEF0AF00CEF0AF02AEF71
:101416000AF028C030F029C031F02AC032F02BC0C3
:1014260033F03334333232323132303230C028F096
:1014360031C029F032C02AF033C02BF03628D8B498
:1014460027EF0AF029EF0AF02AEF0AF0362A3628A3
:10145600D8B430EF0AF032EF0AF03AEF0AF036501D
:10146600D8A438EF0AF03AEF0AF04CEF0AF0000E73
:10147600286E000E296E000E2A6E000E2B6E365058
:10148600D8A448EF0AF04AEF0AF04CEF0AF0000E33
:10149600346E36A051EF0AF053EF0AF056EF0AF019
:1014A6002A8E57EF0AF02A9ED89036302B6E34AE2D
:1014B6005FEF0AF061EF0AF062EF0AF02B8E28C0A8
:1014C60028F029C029F02AC02AF02BC02BF01200E0
:1014D6001250800B1F6E12501224266E11AE76EF3C
:1014E6000AF078EF0AF079EF0AF026802650D8B491
:1014F6007FEF0AF081EF0AF096EF0AF02628D8A4CB
:1015060087EF0AF089EF0AF091EF0AF0000E0F6EEE
:10151600000E106E000E116E000E126E118E000E71
:10152600126E9EEF0AF0000E0F6E000E106E000E89
:10153600116E000E126E1650800B1F1A16501624CE
:10154600276E15AEA9EF0AF0ABEF0AF0ACEF0AF082
:1015560027802750D8B4B2EF0AF0B4EF0AF0C9EFEB
:101566000AF02728D8A4BAEF0AF0BCEF0AF0C4EFB5
:101576000AF0000E136E000E146E000E156E000EAD
:10158600166E158E000E166ED1EF0AF0000E136E53
:10159600000E146E000E156E000E166E135014100B
:1015A60015101610D8A4DAEF0AF0DCEF0AF0F4EF03
:1015B6000AF0000E0F6E000E106E000E116E000E79
:1015C600126E800E11127F0E12121F5012120FC0D1
:1015D6000FF010C010F011C011F012C012F037EF6A
:1015E6000CF02650D8A4FAEF0AF0FCEF0AF006EF4A
:1015F6000BF0000E0F6E000E106E000E116E000E38
:10160600126E37EF0CF0275026C017F0186A175ED7
:10161600000E185A7F0E1724206E000E1820216E19
:101626000FC01BF010C01CF011C01DF012C01EF040
:10163600000E0F6E000E106E000E116E000E126E72
:10164600000E226E000E236E000E246E000E256E16
:10165600000E276E67EF0BF02750D8B435EF0BF06E
:1016660037EF0BF04EEF0BF0D8901B361C361D36BD
:101676001E36D8900F3610361136123625AE46EF86
:101686000BF048EF0BF049EF0BF00F80D8902236A5
:1016960023362436253613501B5C14501C5815501F
:1016A6001D5816501E58D8A05BEF0BF05DEF0BF0DF
:1016B60066EF0BF0258C13501B5E14501C5A155008
:1016C6001D5A16501E5A272A190E27646DEF0BF065
:1016D6006FEF0BF02FEF0BF01B501C101D101E10A0
:1016E600D8B478EF0BF07AEF0BF092EF0BF0228084
:1016F60092EF0BF0D8900F3610361136123625AE13
:1017060087EF0BF089EF0BF08AEF0BF00F80D89084
:1017160022362336243625362006D8A0210611AED9
:1017260097EF0BF099EF0BF07DEF0BF0000E276EA5
:1017360025AEA0EF0BF0A2EF0BF0C6EF0BF0FF0EFD
:101746002214176EFF0E2314186EFF0E2414196E42
:101756007F0E25141A6E1750181019101A10D8B4C7
:10176600B7EF0BF0B9EF0BF0BDEF0BF0010E276EE4
:10177600C6EF0BF00FA0C2EF0BF0C4EF0BF0C6EFF5
:101786000BF0B9EF0BF02750D8B4CCEF0BF0CEEF3F
:101796000BF0F2EF0BF0010E0F26000E10221122B5
:1017A600122212A0D9EF0BF0DBEF0BF0F2EF0BF0E9
:1017B6000FC017F010C018F011C019F012C01AF0BF
:1017C6001A341A3219321832173217C00FF018C0ED
:1017D60010F019C011F01AC012F0204A212A21BEB9
:1017E600FDEF0BF0215008E12028D8A0FDEF0BF00B
:1017F600FFEF0BF00AEF0CF0000E216E2068000ED2
:101806000F6E000E106E000E116E000E126E21BECF
:1018160017EF0CF0215006E12004D8B015EF0CF0BC
:1018260017EF0CF025EF0CF0000E216E000E206E67
:10183600000E0F6E000E106E000E116E000E126E70
:10184600000E1F6E20C026F026A02CEF0CF02EEF07
:101856000CF031EF0CF0118E32EF0CF0119ED89097
:101866002630126EE8EF0AF012000600F2A83EEFEC
:101876000CF040EF0CF049EF0CF0F2A245EF0CF043
:1018860047EF0CF049EF0CF04DEC14F0F0A64EEFDC
:101896000CF050EF0CF059EF0CF0F0A055EF0CF0F7
:1018A60057EF0CF059EF0CF04BEC14F0F0A85EEF8C
:1018B6000CF060EF0CF069EF0CF0F0A265EF0CF0A5
:1018C60067EF0CF069EF0CF049EC14F0F2A66EEF3E
:1018D6000CF070EF0CF086EF0CF0F2A075EF0CF048
:1018E60077EF0CF086EF0CF081380F0B010B6B18BD
:1018F600D8B480EF0CF082EF0CF086EF0CF0010EFE
:101906006B1A47EC14F0F2A68BEF0CF08DEF0CF08F
:10191600A4EF0CF0F2A092EF0CF094EF0CF0A4EF11
:101926000CF08138E842070B010B6A18D8B49EEF19
:101936000CF0A0EF0CF0A4EF0CF0010E6A1A45ECC7
:1019460014F0F2A6A9EF0CF0ABEF0CF0C2EF0CF01E
:10195600F2A0B0EF0CF0B2EF0CF0C2EF0CF0814445
:10196600E846030B010B6918D8B4BCEF0CF0BEEFC8
:101976000CF0C2EF0CF0010E691A43EC14F0F2A65B
:10198600C7EF0CF0C9EF0CF0DEEF0CF0F2A0CEEFD3
:101996000CF0D0EF0CF0DEEF0CF08144010B681870
:1019A600D8B4D8EF0CF0DAEF0CF0DEEF0CF0010E45
:1019B600681A41EC14F09DACE3EF0CF0E5EF0CF087
:1019C600EEEF0CF09EACEAEF0CF0ECEF0CF0EEEF65
:1019D6000CF055EC14F0F2AAF3EF0CF0F5EF0CF066
:1019E600FEEF0CF0F2A4FAEF0CF0FCEF0CF0FEEFB9
:1019F6000CF035EC14F09DA003EF0DF005EF0DF0A3
:101A06000EEF0DF09EA00AEF0DF00CEF0DF00EEFAD
:101A16000DF02FEC14F09DA213EF0DF015EF0DF065
:101A26001EEF0DF09EA21AEF0DF01CEF0DF01EEF4B
:101A36000DF03EEC14F0A0A223EF0DF025EF0DF013
:101A46002EEF0DF0A1A22AEF0DF02CEF0DF02EEFE8
:101A56000DF029EC14F09DA433EF0DF035EF0DF0E9
:101A66003EEF0DF09EA43AEF0DF03CEF0DF03EEF89
:101A76000DF053EC14F0A0A043EF0DF045EF0DF080
:101A86004EEF0DF0A1A04AEF0DF04CEF0DF04EEF2A
:101A96000DF051EC14F09DA853EF0DF055EF0DF03D
:101AA6005EEF0DF09EA85AEF0DF05CEF0DF05EEFC5
:101AB6000DF04FEC14F09DAA63EF0DF065EF0DF0FD
:101AC6006EEF0DF09EAA6AEF0DF06CEF0DF06EEF63
:101AD6000DF059EC14F09DA673EF0DF075EF0DF0B7
:101AE6007EEF0DF09EA67AEF0DF07CEF0DF07EEF07
:101AF6000DF057EC14F0A0A683EF0DF085EF0DF076
:101B06008EEF0DF0A1A68AEF0DF08CEF0DF08EEFA3
:101B16000DF058EC14F07E921100096E0950D8B4FD
:101B260097EF0DF099EF0DF0BBEF0DF004BEA0EFAF
:101B36000DF09EEF0DF0BBEF0DF001C005F002C0F9
:101B460006F003C007F004C008F0051E061E071EB7
:101B5600081E052A000E06220722082205C00BF0E1
:101B660006C00CF007C00DF008C00EF0C3EF0DF074
:101B760001C00BF002C00CF003C00DF004C00EF063
:101B86000150021003100410D8A4CCEF0DF0CEEFD4
:101B96000DF0D8EF0DF0000E016E000E026E000E75
:101BA600036E000E046E69EF0EF0960E0A6EE2EFFB
:101BB6000DF00A2AD8900E320D320C320B32000E7E
:101BC6000B14056E000E0C14066E000E0D14076E37
:101BD600FE0E0E14086E0550061007100810D8A445
:101BE600F7EF0DF0F9EF0DF0DCEF0DF007EF0EF06B
:101BF6000A2A010E0B26000E0C220D220E22D89068
:101C06000E320D320C320B32000E0B14056E000E26
:101C16000C14066E000E0D14076EFF0E0E14086EE1
:101C26000550061007100810D8A41CEF0EF01EEF82
:101C36000EF0FBEF0DF026EF0EF00A06D8900B36ED
:101C46000C360D360E360DBE2BEF0EF02DEF0EF0C8
:101C560035EF0EF0020E0A6033EF0EF035EF0EF0A0
:101C660020EF0EF00AB03AEF0EF03CEF0EF03DEF2B
:101C76000EF00D9ED8900A320AC005F0066A076A71
:101C8600086A05C008F0076A066A056A05500B125D
:101C960006500C1207500D1208500E120950D8B4F7
:101CA60057EF0EF059EF0EF061EF0EF004BE60EF45
:101CB6000EF05EEF0EF061EF0EF00E8E0BC001F02F
:101CC6000CC002F00DC003F00EC004F01200010EAD
:101CD600096E01500210D8B473EF0EF075EF0EF0D6
:101CE60095EF0EF001C0D9FF02C0DAFFDF30E8320F
:101CF600E832070B036E080E036084EF0EF086EFE2
:101D06000EF095EF0EF001C0D9FF02C0DAFFDF50EA
:101D1600070B036E040E036493EF0EF095EF0EF0BF
:101D2600F8EF0EF0000E096E19EF0FF001C0D9FFA3
:101D360002C0DAFFDF30E832E832070B036E010E2D
:101D4600046E032AA9EF0EF0D8900436032EA7EFEF
:101D56000EF00450FF0A056E01C0D9FF02C0DAFF7B
:101D6600DF50070B066E0650020DBF0EF324D96E28
:101D7600000EF420DA6EDECF07F0DDCF08F007C0E4
:101D8600D9FF08C0DAFF0550DF1619EF0FF001C0C2
:101D9600D9FF02C0DAFFDF30E832E832070B036E04
:101DA600010E046E032ADAEF0EF0D8900436032EE5
:101DB600D8EF0EF001C0D9FF02C0DAFFDF50070BE3
:101DC600056E0550020DBF0EF324D96E000EF420E9
:101DD600DA6EDECF06F0DDCF07F006C0D9FF07C00A
:101DE600DAFF0450DF1219EF0FF001C0D9FF02C06D
:101DF600DAFFDFBC01EF0FF004EF0FF0010E05EF85
:101E06000FF0000E036E046A0450000AD8B40EEFF9
:101E16000FF095EF0EF00350000AD8B499EF0EF0CC
:101E2600010AD8B4CAEF0EF095EF0EF00950120071
:101E3600010E0A6E01500210D8B424EF0FF026EFFF
:101E46000FF046EF0FF001C0D9FF02C0DAFFDF3016
:101E5600E832E832070B046E080E046035EF0FF027
:101E660037EF0FF046EF0FF001C0D9FF02C0DAFFDF
:101E7600DF50070B046E040E046444EF0FF046EFC8
:101E86000FF0A9EF0FF0000E0A6EBEEF0FF001C0C3
:101E9600D9FF02C0DAFFDF30E832E832070B046E02
:101EA600010E056E042A5AEF0FF0D8900536042E5F
:101EB60058EF0FF001C0D9FF02C0DAFFDF50070B61
:101EC600066E0650020DB50EF324D96E000EF420F0
:101ED600DA6EDECF07F0DDCF08F007C0D9FF08C005
:101EE600DAFF0550DF12BEEF0FF001C0D9FF02C0C6
:101EF600DAFFDF30E832E832070B046E010E056EBA
:101F0600042A88EF0FF0D8900536042E86EF0FF0DE
:101F16000550FF0A066E01C0D9FF02C0DAFFDF5086
:101F2600070B076E0750020DB50EF324D96E000E8F
:101F3600F420DA6EDECF08F0DDCF09F008C0D9FF55
:101F460009C0DAFF0650DF16BEEF0FF00350046E2D
:101F5600056A0550000AD8B4B3EF0FF046EF0FF04C
:101F66000450000AD8B478EF0FF0010AD8B44AEF4B
:101F76000FF046EF0FF00A50120045504610D8A455
:101F8600C7EF0FF0C9EF0FF0CBEF0FF05CEF10F0DB
:101F9600C69A20EE06F04550D9264650DA22DFA032
:101FA600D7EF0FF0D9EF0FF0E1EF0FF045C042F099
:101FB60046C043F06AEC11F01DEF10F020EE06F07B
:101FC6004550D9264650DA22DFB0ECEF0FF0EEEF9F
:101FD6000FF01DEF10F020EE06F04550D9264650C2
:101FE600DA22DFA6F9EF0FF0FBEF0FF0FEEF0FF0AE
:101FF600C58E0CEF10F020EE06F04550D92646505F
:10200600DA22DFB609EF10F00BEF10F00CEF10F04C
:10201600C59EC69EC69CC68820EE05F04550D926AC
:102026004650DA22DF50C86E45C001F046C002F0C5
:1020360014EC14F03BEC14F020EE06F04550D926D3
:102046004650DA22DFB22AEF10F02CEF10F02FEF15
:1020560010F0C79E3DEF10F020EE06F04550D92651
:102066004650DA22DFA23AEF10F03CEF10F03DEFD7
:1020760010F0C78E20EE06F04550D9264650DA22DB
:10208600DFA448EF10F04AEF10F04DEF10F0C78CC8
:102096005BEF10F020EE06F04550D9264650DA22C6
:1020A600DFB458EF10F05AEF10F05BEF10F0C79C5A
:1020B600C68A1200EEEC13F022EC14F0610E066EE6
:1020C600180E50EC13F00B0E486E260E476E5E0E81
:1020D600E82EFED7472EFCD7482EFAD77C0E066E82
:1020E600000E076E630E78EC13F0620E7C18D8A40F
:1020F6007FEF10F081EF10F087EF10F07D0E0B6E82
:10210600000E0C6E75EC12F00B0E486E260E476E26
:102116005E0EE82EFED7472EFCD7482EFAD7420E83
:10212600066E620E50EC13F00B0E486E260E476ECE
:102136005E0EE82EFED7472EFCD7482EFAD7630E42
:10214600066E180E50EC13F00B0E486E260E476EF8
:102156005E0EE82EFED7472EFCD7482EFAD77C0E09
:10216600066E000E076E630E78EC13F0640E7C1894
:10217600D8A4C0EF10F0C2EF10F0C8EF10F07D0E3B
:102186000B6E000E0C6EB0EC12F00B0E486E260EA7
:10219600476E5E0EE82EFED7472EFCD7482EFAD79E
:1021A600440E066E620E50EC13F00B0E486E260EB1
:1021B600476E5E0EE82EFED7472EFCD7482EFAD77E
:1021C60061EF10F007EF00F03A343B34416E4150B6
:1021D600D8A4F0EF10F0F2EF10F0FCEF10F0000EC4
:1021E600386E000E396E000E3A6E000E3B6E69EFC9
:1021F60011F038C03CF039C03DF03AC03EF03BC06B
:102206003FF0200E0CEF11F0D8903F323E323D32B7
:102216003C32E82E07EF11F03C50406E3A8EFF0E2E
:102226003816FF0E3916FF0E3A16000E3B16960E9E
:10223600415E41BE23EF11F021EF11F039EF11F0AD
:102246004150800A970FD8B02BEF11F02DEF11F007
:102256002FEF11F0F2EF10F0D8903B323A323932CC
:102266003832413E2FEF11F051EF11F01F0E41644D
:102276003FEF11F041EF11F049EF11F0F2EF10F0DE
:10228600D890383639363A363B3641064150D8A4CE
:102296004FEF11F051EF11F043EF11F04050D8B469
:1022A60057EF11F059EF11F061EF11F03B1E3A1E96
:1022B600391E386C000E39223A223B2238C038F0DB
:1022C60039C039F03AC03AF03BC03BF0120020EE7C
:1022D60004F04250D9264350DA22DF50446EC650ED
:1022E6004418F00B4418C66E000E2C6E000E2D6EB0
:1022F600800E2E6EBF0E2F6E42C0D9FF43C0DAFF8E
:10230600DECF01F0DECF02F0DECF03F0DECF04F049
:10231600000E90EC0DF001C013F002C014F003C0E3
:1023260015F004C016F0000E0F6E240E106EF40E9B
:10233600116E490E126E6BEC0AF00FC028F010C039
:1023460029F011C02AF012C02BF00BEC08F028C0BF
:1023560038F029C039F02AC03AF02BC03BF0E7EC40
:1023660010F03850C86E12000B500C10D8B4BEEFE7
:1023760011F0C0EF11F0E0EF11F00BC0D9FF0CC067
:10238600DAFFDF30E832E832070B0D6E080E0D601B
:10239600CFEF11F0D1EF11F0E0EF11F00BC0D9FF44
:1023A6000CC0DAFFDF50070B0D6E040E0D64DEEF76
:1023B60011F0E0EF11F0E4EF11F0000E0E6EFAEFFF
:1023C60011F00BC001F00CC002F06AEC0EF00E6EBC
:1023D6000BC001F00CC002F00BC0D9FF0CC0DAFF35
:1023E600000EDFBE010E036E1BEC0FF00E6E0E50DC
:1023F600120072C013F00FC0D9FF10C0DAFFDF5011
:102406000F0B116E13501118F80B1118136E0FC025
:10241600D9FF10C0DAFFDF38070B116E11461146DF
:10242600114613501118C70B1118136E139C0FC0C9
:10243600D9FF10C0DAFFDFAE02D0138E01D0139E93
:102446000F501010D8A42AEF12F02CEF12F030EF34
:1024560012F0000E126E37EF12F0130E0B6E000E16
:102466000C6EB7EC11F0126E1250120001500210F1
:10247600D8B440EF12F042EF12F04BEF12F00450D6
:102486000510D8A449EF12F04BEF12F04DEF12F001
:1024960074EF12F003C0C9FF9EA654EF12F056EF78
:1024A60012F04FEF12F09E96C5BC5CEF12F05EEF95
:1024B60012F065EF12F004C0D9FF05C0DAFFDF6A3B
:1024C60074EF12F0C5AC6AEF12F06CEF12F074EF15
:1024D60012F004C0D9FF05C0DAFF010EDF6E74EFFB
:1024E60012F0120071C00EF00BC0D9FF0CC0DAFF5B
:1024F600DF500F0B0D6E0E500D18F80B0D180E6EEB
:102506000BC0D9FF0CC0DAFFDF38070B0D6E0D4686
:102516000D460D460E500D18C70B0D180E6E0E9C6F
:102526000BC0D9FF0CC0DAFFDFAE02D00E8E01D091
:102536000E9E0B500C10D8A4A3EF12F0A5EF12F0CC
:10254600A7EF12F0AFEF12F00E0E016E000E026E44
:10255600010E036E1BEC0FF0120070C00EF00BC0E4
:10256600D9FF0CC0DAFFDF500F0B0D6E0E500D18A1
:10257600F80B0D180E6E0BC0D9FF0CC0DAFFDF3852
:10258600070B0D6E0D460D460D460E500D18C70B6A
:102596000D180E6E0E9C0BC0D9FF0CC0DAFFDFAE15
:1025A60002D00E8E01D00E9E0B500C10D8A4DEEF7A
:1025B60012F0E0EF12F0E2EF12F0EAEF12F00E0E78
:1025C600016E000E026E000E036E1BEC0FF0120081
:1025D60001500210D8B4F2EF12F0F4EF12F0FDEF52
:1025E60012F004500510D8A4FBEF12F0FDEF12F024
:1025F600FFEF12F025EF13F0C586C7A005EF13F025
:1026060007EF13F000EF13F004C0D9FF05C0DAFF9F
:10261600C9CFDFFF0350D8A413EF13F015EF13F063
:1026260019EF13F0C59AC58825EF13F00304D8A453
:102636001FEF13F021EF13F025EF13F0C58AC588BD
:1026460025EF13F01200040EF66E280EF76E000E3C
:10265600F86E00EEABF010EE24F00900F5CFEEFFB9
:10266600E550E150FAE1B40EF66E280EF76E000E54
:10267600F86E0900F5CF7DF000EE80F02B0EEE6AC5
:10268600E806FDE100EE49F0340EEE6AE806FDE1EB
:102696007E907E9200015DEF10F0076E000E086ED0
:1026A600730E016E000E026EC7EC13F0730E016E10
:1026B600000E026E07C003F0080E046E000E056ED3
:1026C60039EC12F0730E016E000E026E06C003F0B6
:1026D600080E046E000E056E39EC12F0730E016ED4
:1026E600000E026EA0EC13F01200086E000E096ECA
:1026F600730E016E000E026EC7EC13F0730E016EC0
:10270600000E026E08C003F0090E046E000E056E80
:1027160039EC12F0730E016E000E026E010E036E9E
:1027260006C004F007C005F0EBEC12F0730E016E64
:10273600000E026EA0EC13F0120001500210D8A495
:10274600A7EF13F0A9EF13F0ABEF13F0C6EF13F0FA
:10275600C584C5B4B1EF13F0B3EF13F0ACEF13F0CB
:102766009E96C7A8B9EF13F0BBEF13F0BDEF13F0B9
:10277600C6EF13F0C7B8C2EF13F0C4EF13F0C6EFFD
:1027860013F0A9EF13F0120001500210D8A4CEEFF7
:1027960013F0D0EF13F0D2EF13F0EDEF13F0C58086
:1027A600C5B0D8EF13F0DAEF13F0D3EF13F09E961F
:1027B600C7A6E0EF13F0E2EF13F0E4EF13F0EDEF4E
:1027C60013F0C7B6E9EF13F0EBEF13F0EDEF13F0EC
:1027D600D0EF13F01200A00E736E860E746E010E0B
:1027E600756E000E766E799479807982080E776E12
:1027F600730E456E000E466EC0EC0FF01200800F91
:10280600810F820F830F840F890F8A0F8B0F8C0F16
:102816008D0F920F930F940F950F960F030B131BAB
:10282600232B20EE04F00150D9260250DA22DF5085
:10283600036EC6500318F00B0318C66E12007D0E09
:102846000F6E000E106EFCEC11F012004A50B36EC3
:1028560049C0B2FFA19212004C50CF6E4BC0CEFFC2
:102866009E9012004E50D76E4DC0D6FFF2941200C5
:1028760094869488120066C0CCFF1200F290120073
:10288600F2901200F2901200F2901200F0921200F2
:10289600F0901200F29212009D981200A190120080
:0F28A6009E9412009E9C1200120012001200035A
:020000040030CA
:0E000000FF02091EFF8181FF0FC00FE00F40BD
:00000001FF
