:0400000050EF01F0CC
:060008007C820BED08F004
:100018007C80D8CF6CF0E8CF6DF0E0CF6EF0F0BC0C
:1000280018EF00F01AEF00F023EF00F0F0A01FEF38
:1000380000F021EF00F023EF00F059EC0CF0F0BED7
:1000480028EF00F02AEF00F033EF00F0F0A22FEFD6
:1000580000F031EF00F033EF00F057EC0CF0F1B0A6
:1000680038EF00F03AEF00F050EF00F0F2A03FEF69
:1000780000F041EF00F050EF00F081380F0B010B5A
:100088003918D8B44AEF00F04CEF00F050EF00F008
:10009800010E391A55EC0CF0F1B055EF00F057EF9E
:1000A80000F06EEF00F0F2A05CEF00F05EEF00F001
:1000B8006EEF00F08138E842070B010B3818D8B40E
:1000C80068EF00F06AEF00F06EEF00F0010E381AEA
:1000D80053EC0CF0F1B073EF00F075EF00F08CEF1B
:1000E80000F0F2A07AEF00F07CEF00F08CEF00F067
:1000F8008144E846030B010B3718D8B486EF00F0AB
:1001080088EF00F08CEF00F0010E371A51EC0CF07C
:10011800F1B091EF00F093EF00F0A8EF00F0F2A03B
:1001280098EF00F09AEF00F0A8EF00F08144010B7F
:100138003618D8B4A2EF00F0A4EF00F0A8EF00F052
:10014800010E361A4FEC0CF09FBCADEF00F0AFEF8C
:1001580000F0B8EF00F09EACB4EF00F0B6EF00F09E
:10016800B8EF00F061EC0CF0F1B4BDEF00F0BFEFB8
:1001780000F0C8EF00F0F2A4C4EF00F0C6EF00F002
:10018800C8EF00F02CEC0CF09FB0CDEF00F0CFEFF3
:1001980000F0D8EF00F09EA0D4EF00F0D6EF00F00A
:1001A800D8EF00F026EC0CF09FB2DDEF00F0DFEFA7
:1001B80000F0E8EF00F09EA2E4EF00F0E6EF00F0B8
:1001C800E8EF00F049EC0CF0A2B2EDEF00F0EFEF31
:1001D80000F0F8EF00F0A1A2F4EF00F0F6EF00F065
:1001E800F8EF00F020EC0CF09FB4FDEF00F0FFEF0B
:1001F80000F008EF01F09EA404EF01F006EF01F013
:1002080008EF01F05FEC0CF0A2B00DEF01F00FEF7A
:1002180001F018EF01F0A1A014EF01F016EF01F0C2
:1002280018EF01F05DEC0CF09FB81DEF01F01FEF27
:1002380001F028EF01F09EA824EF01F026EF01F06D
:1002480028EF01F05BEC0CF09FBA2DEF01F02FEFD7
:1002580001F038EF01F09EAA34EF01F036EF01F01B
:1002680038EF01F07AEC0CF09FB63DEF01F03FEF6C
:1002780001F048EF01F09EA644EF01F046EF01F0CF
:1002880048EF01F079EC0CF06EC0E0FF6DC0E8FFBC
:0C0298006CC0D8FF7C90100083EF0BF0CE
:10100000003738392F3435362A3132332D23303DED
:051010002B2569000022
:101016000600F2A811EF08F013EF08F01CEF08F035
:10102600F2A218EF08F01AEF08F01CEF08F077ECC0
:101036000CF0F0AC21EF08F023EF08F02CEF08F0ED
:10104600F0A028EF08F02AEF08F02CEF08F06DEC7E
:101056000CF0F0AE31EF08F033EF08F03CEF08F09B
:10106600F0A238EF08F03AEF08F03CEF08F06BEC2E
:101076000CF0F1A041EF08F043EF08F059EF08F04B
:10108600F2A048EF08F04AEF08F059EF08F081386F
:101096000F0B010B3918D8B453EF08F055EF08F0D1
:1010A60059EF08F0010E391A69EC0CF0F1A05EEF69
:1010B60008F060EF08F077EF08F0F2A065EF08F0AF
:1010C60067EF08F077EF08F08138E842070B010B6D
:1010D6003818D8B471EF08F073EF08F077EF08F01E
:1010E600010E381A67EC0CF0F1A07CEF08F07EEFE9
:1010F60008F095EF08F0F2A083EF08F085EF08F00E
:1011060095EF08F08144E846030B010B3718D8B475
:101116008FEF08F091EF08F095EF08F0010E371AFF
:1011260065EC0CF0F1A09AEF08F09CEF08F0B1EF37
:1011360008F0F2A0A1EF08F0A3EF08F0B1EF08F075
:101146008144010B3618D8B4ABEF08F0ADEF08F0C8
:10115600B1EF08F0010E361A63EC0CF09FACB6EF57
:1011660008F0B8EF08F0C1EF08F09EACBDEF08F04C
:10117600BFEF08F0C1EF08F075EC0CF0F1A4C6EF74
:1011860008F0C8EF08F0D1EF08F0F2A4CDEF08F0B0
:10119600CFEF08F0D1EF08F03EEC0CF09FA0D6EFB1
:1011A60008F0D8EF08F0E1EF08F09EA0DDEF08F0B8
:1011B600DFEF08F0E1EF08F038EC0CF09FA2E6EF65
:1011C60008F0E8EF08F0F1EF08F09EA2EDEF08F066
:1011D600EFEF08F0F1EF08F04CEC0CF0A2A2F6EFFE
:1011E60008F0F8EF08F001EF09F0A1A2FDEF08F012
:1011F600FFEF08F001EF09F032EC0CF09FA406EFC8
:1012060009F008EF09F011EF09F09EA40DEF09F0BF
:101216000FEF09F011EF09F073EC0CF0A2A016EF36
:1012260009F018EF09F021EF09F0A1A01DEF09F070
:101236001FEF09F021EF09F071EC0CF09FA826EFE3
:1012460009F028EF09F031EF09F09EA82DEF09F01B
:101256002FEF09F031EF09F06FEC0CF09FAA36EF93
:1012660009F038EF09F041EF09F09EAA3DEF09F0C9
:101276003FEF09F041EF09F07CEC0CF09FA646EF3A
:1012860009F048EF09F051EF09F09EA64DEF09F07D
:101296004FEF09F051EF09F07BEC0CF07C92110056
:1012A600010E776E6F507010D8B45CEF09F05EEFE8
:1012B60009F07EEF09F06FC0D9FF70C0DAFFDF30AA
:1012C600E832E832070B716E080E71606DEF09F0B7
:1012D6006FEF09F07EEF09F06FC0D9FF70C0DAFF3B
:1012E600DF50070B716E040E71647CEF09F07EEF20
:1012F60009F0E1EF09F0000E776E02EF0AF06FC019
:10130600D9FF70C0DAFFDF30E832E832070B716EC2
:10131600010E726E712A92EF09F0D8907236712E14
:1013260090EF09F07250FF0A736E6FC0D9FF70C05C
:10133600DAFFDF50070B746E7450020D5B0EF32458
:10134600D96E000EF420DA6EDECF75F0DDCF76F0C2
:1013560075C0D9FF76C0DAFF7350DF1602EF0AF0C8
:101366006FC0D9FF70C0DAFFDF30E832E832070B12
:10137600716E010E726E712AC3EF09F0D890723643
:10138600712EC1EF09F06FC0D9FF70C0DAFFDF50D0
:10139600070B736E7350020D5B0EF324D96E000EAD
:1013A600F420DA6EDECF74F0DDCF75F074C0D9FFAD
:1013B60075C0DAFF7250DF1202EF0AF06FC0D9FF74
:1013C60070C0DAFFDFBCEAEF09F0EDEF09F0010EBD
:1013D600EEEF09F0000E716E726A7250000AD8B410
:1013E600F7EF09F07EEF09F07150000AD8B482EFEA
:1013F60009F0010AD8B4B3EF09F07EEF09F077508F
:101406001200010E786E6F507010D8B40DEF0AF00E
:101416000FEF0AF02FEF0AF06FC0D9FF70C0DAFFA6
:10142600DF30E832E832070B726E080E72601EEF8C
:101436000AF020EF0AF02FEF0AF06FC0D9FF70C054
:10144600DAFFDF50070B726E040E72642DEF0AF09E
:101456002FEF0AF092EF0AF0000E786EA7EF0AF06F
:101466006FC0D9FF70C0DAFFDF30E832E832070B11
:10147600726E010E736E722A43EF0AF0D8907336BD
:10148600722E41EF0AF06FC0D9FF70C0DAFFDF504D
:10149600070B746E7450020D510EF324D96E000EB4
:1014A600F420DA6EDECF75F0DDCF76F075C0D9FFA9
:1014B60076C0DAFF7350DF12A7EF0AF06FC0D9FFCC
:1014C60070C0DAFFDF30E832E832070B726E010EC9
:1014D600736E722A71EF0AF0D8907336722E6FEF20
:1014E6000AF07350FF0A746E6FC0D9FF70C0DAFF3E
:1014F600DF50070B756E7550020D510EF324D96E31
:10150600000EF420DA6EDECF76F0DDCF77F076C00F
:10151600D9FF77C0DAFF7450DF16A7EF0AF07150D3
:10152600726E736A7350000AD8B49CEF0AF02FEFFC
:101536000AF07250000AD8B461EF0AF0010AD8B472
:1015460033EF0AF02FEF0AF07850120044EC0CF05B
:10155600460E796E000E7A6E310EA4EC0BF0060E76
:101566000001946F130E936FAD0EE82EFED7932FE6
:10157600FCD7942FFAD700D0450E796E000E7A6EFE
:10158600320EA4EC0BF0060E0001946F130E936F4F
:10159600AD0EE82EFED7932FFCD7942FFAD700D0A6
:1015A600460E796E000E7A6E330EA4EC0BF0060E24
:1015B6000001946F130E936FAD0EE82EFED7932F96
:1015C600FCD7942FFAD700D0450E796E000E7A6EAE
:1015D600340EA4EC0BF0060E0001946F130E936FFD
:1015E600AD0EE82EFED7932FFCD7942FFAD700D056
:1015F600ABEF0AF050EF01F079507A10D8B406EF4D
:101606000BF008EF0BF028EF0BF079C0D9FF7AC08A
:10161600DAFFDF30E832E832070B7B6E080E7B60BC
:1016260017EF0BF019EF0BF028EF0BF079C0D9FF8D
:101636007AC0DAFFDF50070B7B6E040E7B6426EF61
:101646000BF028EF0BF02DEF0BF0000E0001916F61
:1016560045EF0BF079C06FF07AC070F053EC09F0EB
:101666000001916F79C06FF07AC070F079C0D9FF30
:101676007AC0DAFF000EDFBE010E716E04EC0AF0CE
:101686000001916F9151120071507210D8A44EEF63
:101696000BF050EF0BF052EF0BF082EF0BF0C69A07
:1016A60071C0D9FF72C0DAFFDFA402D0C68801D0AC
:1016B600C69871C0D9FF72C0DAFFDFA002D0C78C0E
:1016C60001D0C79C71C0D9FF72C0DAFFDFA202D079
:1016D600C78E01D0C79E71C06FF072C070F0E3EC88
:1016E6000BF020EE01F07150D9267250DA22DF504D
:1016F600736EC6507318F00B7318C66EC68A120046
:10170600000EF66E180EF76E000EF86E00EE47F03D
:1017160010EE25F00900F5CFEEFFE550E150FAE1B5
:1017260000EE80F0110EEE6AE806FDE100EE01F033
:10173600460EEE6AE806FDE17C907C920001A9EF78
:101746000AF00001926F000E0001916F79C06FF0F0
:101756007AC070F0000E716E04EC0AF092C0C9FFF8
:10176600C7A0B8EF0BF0BAEF0BF0B3EF0BF0C95010
:1017760079C06FF07AC070F0010E716E04EC0AF059
:1017860012004650F80B0209466E4550F80B020946
:10179600456E4650C70B3009466E380E4512469CBC
:1017A600459C468E458E460E796E000E7A6EFFEC8F
:1017B6000AF0450E796E000E7A6EFFEC0AF0120002
:1017C600949A6FC0D9FF70C0DAFFDFB6EDEF0BF069
:1017D600EFEF0BF0F2EF0BF09496FFEF0BF06FC00C
:1017E600D9FF70C0DAFFDFA6FBEF0BF0FDEF0BF0C1
:1017F600FFEF0BF09486928A1200800F810F820F02
:10180600830F840F890F8A0F8B0F8C0F8D0F920F0A
:0F181600930F940F950F960F71030B131B232B3A
:101826004396000E446E439443904382430E716E7A
:10183600000E726E47EC0BF012001050B36E0FC024
:10184600B2FFA19212001450CF6E13C0CEFF9E902D
:1018560012001850D76E17C0D6FFF294120010501F
:10186600B36E0FC0B2FFA19212001450CF6E13C018
:10187600CEFF9E9012001850D76E17C0D6FFF29476
:101886001200C4EC0BF013EC0CF0120035C0CCFFC8
:10189600120035C0CCFF1200F2901200F290120036
:1018A600F2901200F2901200F0921200F0901200E4
:1018B6009D981200A19012009E9412009E9C120008
:1018C600F2901200F2901200F2901200F2901200C2
:1018D600F0921200F09012009D981200A190120052
:1018E6009E9412009E9C1200F292120012001200A8
:0418F60012001200CA
:020000040030CA
:0E000000FF02091EFF8181FF0FC00FE00F40BD
:00000001FF
