:0400000007EF00F016
:0A0008007B8238ED0CF05FEF12F080
:10100000003738392F3435362A3132332D23303DED
:051010002B2569000022
:101016002D50800B366E2D502D24386E2CAE16EFCB
:1010260008F018EF08F019EF08F038803850D8B4F7
:101036001FEF08F021EF08F036EF08F03828D8A4A3
:1010460027EF08F029EF08F031EF08F0000E2A6EBE
:10105600000E2B6E000E2C6E000E2D6E2C8E000ECA
:101066002D6E3EEF08F0000E2A6E000E2B6E000E5F
:101076002C6E000E2D6E3150800B376E36503718A1
:10108600D8B448EF08F04AEF08F04BEF08F0368C7A
:1010960031503124376E30AE53EF08F055EF08F07B
:1010A60056EF08F037803750D8B45CEF08F05EEFA3
:1010B60008F073EF08F03728D8A464EF08F066EF5D
:1010C60008F06EEF08F0000E2E6E000E2F6E000E6A
:1010D600306E000E316E308E000E316E7BEF08F0F2
:1010E600000E2E6E000E2F6E000E306E000E316E4C
:1010F6003850375CD8B082EF08F084EF08F0ABEFD9
:1011060008F036AC89EF08F08BEF08F08DEF08F0A9
:10111600800E361A38C039F037C038F039C037F08B
:101126002AC039F02EC02AF039C02EF02BC039F073
:101136002FC02BF039C02FF02CC039F030C02CF066
:1011460039C030F02DC039F031C02DF039C031F042
:10115600000E396E385037C032F0336A325E000EF8
:10116600335A33BEC0EF08F0335009E11A0E325C31
:10117600D8A0C0EF08F0C2EF08F0F9EF08F02A5047
:101186002B102C102D10D8A4CBEF08F0CEEF08F0C2
:10119600010ECFEF08F0000E396E000E2A6E000E1B
:1011A6002B6E000E2C6E000E2D6E37C038F002EF3F
:1011B60009F039A0E1EF08F0E3EF08F0E9EF08F0F5
:1011C600D89039300109396EEBEF08F0D8903932F2
:1011D6002AA0F0EF08F0F2EF08F0F3EF08F0398EEE
:1011E6002D342D322C322B322A32382A3750385CA5
:1011F600D8A000EF09F002EF09F0DCEF08F036BCEA
:1012060007EF09F009EF09F049EF09F03850D8A4C3
:101216000FEF09F011EF09F01BEF09F0000E2A6E2F
:10122600000E2B6E000E2C6E000E2D6E6AEF0AF06D
:101236002E502A262F502B2230502C2231502D2270
:101246002DA028EF09F02AEF09F0D6EF09F039A012
:101256002FEF09F031EF09F037EF09F0D890393068
:101266000109396E39EF09F0D89039322AA03EEFDC
:1012760009F040EF09F041EF09F0398E2D342D3297
:101286002C322B322A32382AD6EF09F02E502A5C1D
:101296002F502B5830502C582D50800A326E31501A
:1012A600800A3258D8B05AEF09F05CEF09F087EFA0
:1012B60009F02A502E5C326E2B502F58336E2C506C
:1012C6003058346E2D503158356EFF0E32242A6E4A
:1012D600FF0E33202B6EFF0E34202C6EFF0E3520B2
:1012E6002D6E800E361A396C3950D8A47DEF09F070
:1012F6007FEF09F08FEF09F0010E2A26000E2B2250
:101306002C222D228FEF09F02E502A5E2F502B5AB9
:1013160030502C5A31502D5A2A502B102C102D108B
:10132600D8A498EF09F09AEF09F0CFEF09F03950F9
:10133600D8A4A0EF09F0A2EF09F0CFEF09F0000E54
:101346002A6E000E2B6E000E2C6E000E2D6E6AEFAE
:101356000AF0D8902A362B362C362D3639AEB6EF13
:1013660009F0B8EF09F0B9EF09F02A8039A0BEEF0D
:1013760009F0C0EF09F0C4EF09F0D8803936C6EF9E
:1013860009F0D89039363850D8B4CCEF09F0CEEF02
:1013960009F0CFEF09F038062CAED4EF09F0D6EFFE
:1013A60009F0ACEF09F0000E376E39AEDDEF09F04B
:1013B600DFEF09F0F7EF09F039C032F07F0E321691
:1013C600D8B4E8EF09F0EAEF09F0EEEF09F0010E04
:1013D600376EF7EF09F02AA0F3EF09F0F5EF09F001
:1013E600F7EF09F0EAEF09F03750D8B4FDEF09F04E
:1013F600FFEF09F02AEF0AF0010E2A26000E2B2233
:101406002C222D222DA00AEF0AF00CEF0AF02AEF6B
:101416000AF02AC032F02BC033F02CC034F02DC0B5
:1014260035F03534353234323332323232C02AF086
:1014360033C02BF034C02CF035C02DF03828D8B48A
:1014460027EF0AF029EF0AF02AEF0AF0382A38289F
:10145600D8B430EF0AF032EF0AF03AEF0AF038501B
:10146600D8A438EF0AF03AEF0AF04CEF0AF0000E73
:101476002A6E000E2B6E000E2C6E000E2D6E38504E
:10148600D8A448EF0AF04AEF0AF04CEF0AF0000E33
:10149600366E38A051EF0AF053EF0AF056EF0AF015
:1014A6002C8E57EF0AF02C9ED89038302D6E36AE23
:1014B6005FEF0AF061EF0AF062EF0AF02D8E2AC0A4
:1014C6002AF02BC02BF02CC02CF02DC02DF01200D2
:1014D6001450800B216E14501424286E13AE76EF30
:1014E6000AF078EF0AF079EF0AF028802850D8B48D
:1014F6007FEF0AF081EF0AF096EF0AF02828D8A4C9
:1015060087EF0AF089EF0AF091EF0AF0000E116EEC
:10151600000E126E000E136E000E146E138E000E69
:10152600146E9EEF0AF0000E116E000E126E000E83
:10153600136E000E146E1850800B211A18501824C2
:10154600296E17AEA9EF0AF0ABEF0AF0ACEF0AF07E
:1015560029802950D8B4B2EF0AF0B4EF0AF0C9EFE7
:101566000AF02928D8A4BAEF0AF0BCEF0AF0C4EFB3
:101576000AF0000E156E000E166E000E176E000EA7
:10158600186E178E000E186ED1EF0AF0000E156E4B
:10159600000E166E000E176E000E186E1550161001
:1015A60017101810D8A4DAEF0AF0DCEF0AF0F4EFFF
:1015B6000AF0000E116E000E126E000E136E000E73
:1015C600146E800E13127F0E14122150141211C0C5
:1015D60011F012C012F013C013F014C014F037EF5C
:1015E6000CF02850D8A4FAEF0AF0FCEF0AF006EF48
:1015F6000BF0000E116E000E126E000E136E000E32
:10160600146E37EF0CF0295028C019F01A6A195ECB
:10161600000E1A5A7F0E1924226E000E1A20236E0F
:1016260011C01DF012C01EF013C01FF014C020F030
:10163600000E116E000E126E000E136E000E146E6A
:10164600000E246E000E256E000E266E000E276E0E
:10165600000E296E67EF0BF02950D8B435EF0BF06A
:1016660037EF0BF04EEF0BF0D8901D361E361F36B7
:101676002036D890113612361336143627AE46EF7A
:101686000BF048EF0BF049EF0BF01180D8902436A1
:1016960025362636273615501D5C16501E5817500F
:1016A6001F5818502058D8A05BEF0BF05DEF0BF0D9
:1016B60066EF0BF0278C15501D5E16501E5A1750FC
:1016C6001F5A1850205A292A190E29646DEF0BF05B
:1016D6006FEF0BF02FEF0BF01D501E101F10201098
:1016E600D8B478EF0BF07AEF0BF092EF0BF0248082
:1016F60092EF0BF0D890113612361336143627AE09
:1017060087EF0BF089EF0BF08AEF0BF01180D89082
:1017160024362536263627362206D8A0230613AECB
:1017260097EF0BF099EF0BF07DEF0BF0000E296EA3
:1017360027AEA0EF0BF0A2EF0BF0C6EF0BF0FF0EFB
:101746002414196EFF0E25141A6EFF0E26141B6E36
:101756007F0E27141C6E19501A101B101C10D8B4BB
:10176600B7EF0BF0B9EF0BF0BDEF0BF0010E296EE2
:10177600C6EF0BF011A0C2EF0BF0C4EF0BF0C6EFF3
:101786000BF0B9EF0BF02950D8B4CCEF0BF0CEEF3D
:101796000BF0F2EF0BF0010E1126000E12221322AF
:1017A600142214A0D9EF0BF0DBEF0BF0F2EF0BF0E5
:1017B60011C019F012C01AF013C01BF014C01CF0AF
:1017C6001C341C321B321A32193219C011F01AC0DD
:1017D60012F01BC013F01CC014F0224A232A23BEA9
:1017E600FDEF0BF0235008E12228D8A0FDEF0BF007
:1017F600FFEF0BF00AEF0CF0000E236E2268000ECE
:10180600116E000E126E000E136E000E146E23BEC5
:1018160017EF0CF0235006E12204D8B015EF0CF0B8
:1018260017EF0CF025EF0CF0000E236E000E226E63
:10183600000E116E000E126E000E136E000E146E68
:10184600000E216E22C028F028A02CEF0CF02EEFFF
:101856000CF031EF0CF0138E32EF0CF0139ED89093
:101866002830146EE8EF0AF012000600FACF01F0F5
:10187600FBCF02F0F2A842EF0CF044EF0CF04DEF74
:101886000CF0F2A249EF0CF04BEF0CF04DEF0CF020
:1018960072EC13F0F0A652EF0CF054EF0CF05DEF83
:1018A6000CF0F0A059EF0CF05BEF0CF05DEF0CF0D4
:1018B60070EC13F0F0A862EF0CF064EF0CF06DEF33
:1018C6000CF0F0A269EF0CF06BEF0CF06DEF0CF082
:1018D6006EEC13F0F2A672EF0CF074EF0CF08AEFD8
:1018E6000CF0F2A079EF0CF07BEF0CF08AEF0CF025
:1018F60081380F0B010B6318D8B484EF0CF086EF18
:101906000CF08AEF0CF0010E631A6CEC13F0F2A6E1
:101916008FEF0CF091EF0CF0A8EF0CF0F2A096EF21
:101926000CF098EF0CF0A8EF0CF08138E842070BAA
:10193600010B6218D8B4A2EF0CF0A4EF0CF0A8EFDC
:101946000CF0010E621A6AEC13F0F2A6ADEF0CF081
:10195600AFEF0CF0C6EF0CF0F2A0B4EF0CF0B6EF60
:101966000CF0C6EF0CF08144E846030B010B61183E
:10197600D8B4C0EF0CF0C2EF0CF0C6EF0CF0010EBD
:10198600611A68EC13F0F2A6CBEF0CF0CDEF0CF079
:10199600E2EF0CF0F2A0D2EF0CF0D4EF0CF0E2EF95
:1019A6000CF08144010B6018D8B4DCEF0CF0DEEFCC
:1019B6000CF0E2EF0CF0010E601A66EC13F09DAC31
:1019C600E7EF0CF0E9EF0CF0F2EF0CF09EACEEEF67
:1019D6000CF0F0EF0CF0F2EF0CF07AEC13F0F2AA48
:1019E600F7EF0CF0F9EF0CF002EF0DF0F2A4FEEFBA
:1019F6000CF000EF0DF002EF0DF05AEC13F09DA085
:101A060007EF0DF009EF0DF012EF0DF09EA00EEFAF
:101A16000DF010EF0DF012EF0DF054EC13F09DA247
:101A260017EF0DF019EF0DF022EF0DF09EA21EEF4D
:101A36000DF020EF0DF022EF0DF063EC13F0A0A2F5
:101A460027EF0DF029EF0DF032EF0DF0A1A22EEFEA
:101A56000DF030EF0DF032EF0DF04EEC13F09DA4CB
:101A660037EF0DF039EF0DF042EF0DF09EA43EEF8B
:101A76000DF040EF0DF042EF0DF078EC13F0A0A062
:101A860047EF0DF049EF0DF052EF0DF0A1A04EEF2C
:101A96000DF050EF0DF052EF0DF076EC13F09DA81F
:101AA60057EF0DF059EF0DF062EF0DF09EA85EEFC7
:101AB6000DF060EF0DF062EF0DF074EC13F09DAADF
:101AC60067EF0DF069EF0DF072EF0DF09EAA6EEF65
:101AD6000DF070EF0DF072EF0DF07CEC13F09DA69B
:101AE60077EF0DF079EF0DF082EF0DF09EA67EEF09
:101AF6000DF080EF0DF082EF0DF033EC12F0A0A6A2
:101B060087EF0DF089EF0DF092EF0DF0A1A68EEFA5
:101B16000DF090EF0DF092EF0DF0FDEC12F002C01B
:101B2600FBFF01C0FAFF7B9211000B6E0B50D8B47D
:101B36009FEF0DF0A1EF0DF0C3EF0DF006BEA8EF7D
:101B46000DF0A6EF0DF0C3EF0DF003C007F004C0D3
:101B560008F005C009F006C00AF0071E081E091E97
:101B66000A1E072A000E082209220A2207C00DF0C3
:101B760008C00EF009C00FF00AC010F0CBEF0DF050
:101B860003C00DF004C00EF005C00FF006C010F043
:101B96000350041005100610D8A4D4EF0DF0D6EFAC
:101BA6000DF0E0EF0DF0000E036E000E046E000E59
:101BB600056E000E066E71EF0EF0960E0C6EEAEFD5
:101BC6000DF00C2AD89010320F320E320D32000E64
:101BD6000D14076E000E0E14086E000E0F14096E1B
:101BE600FE0E10140A6E0750081009100A10D8A429
:101BF600FFEF0DF001EF0EF0E4EF0DF00FEF0EF03A
:101C06000C2A010E0D26000E0E220F221022D8904D
:101C160010320F320E320D32000E0D14076E000E0A
:101C26000E14086E000E0F14096EFF0E10140A6EC5
:101C36000750081009100A10D8A424EF0EF026EF5A
:101C46000EF003EF0EF02EEF0EF00C06D8900D36C8
:101C56000E360F3610360FBE33EF0EF035EF0EF0A0
:101C66003DEF0EF0020E0C603BEF0EF03DEF0EF076
:101C760028EF0EF00CB042EF0EF044EF0EF045EFF9
:101C86000EF00F9ED8900C320CC007F0086A096A55
:101C96000A6A07C00AF0096A086A076A07500D123D
:101CA60008500E1209500F120A5010120B50D8B4D9
:101CB6005FEF0EF061EF0EF069EF0EF006BE68EF13
:101CC6000EF066EF0EF069EF0EF0108E0DC003F009
:101CD6000EC004F00FC005F010C006F01200010E91
:101CE6000B6E03500410D8B47BEF0EF07DEF0EF0B0
:101CF6009DEF0EF003C0D9FF04C0DAFFDF30E832F3
:101D0600E832070B056E080E05608CEF0EF08EEFBD
:101D16000EF09DEF0EF003C0D9FF04C0DAFFDF50CE
:101D2600070B056E040E05649BEF0EF09DEF0EF09B
:101D360000EF0FF0000E0B6E21EF0FF003C0D9FF7E
:101D460004C0DAFFDF30E832E832070B056E010E19
:101D5600066E052AB1EF0EF0D8900636052EAFEFC7
:101D66000EF00650FF0A076E03C0D9FF04C0DAFF63
:101D7600DF50070B086E0850020DD50EF324D96EFE
:101D8600000EF420DA6EDECF09F0DDCF0AF009C0CE
:101D9600D9FF0AC0DAFF0750DF1621EF0FF003C0A4
:101DA600D9FF04C0DAFFDF30E832E832070B056EF0
:101DB600010E066E052AE2EF0EF0D8900636052EC5
:101DC600E0EF0EF003C0D9FF04C0DAFFDF50070BC7
:101DD600076E0750020DD50EF324D96E000EF420BF
:101DE600DA6EDECF08F0DDCF09F008C0D9FF09C0F2
:101DF600DAFF0650DF1221EF0FF003C0D9FF04C04F
:101E0600DAFFDFBC09EF0FF00CEF0FF0010E0DEF5C
:101E16000FF0000E056E066A0650000AD8B416EFDB
:101E26000FF09DEF0EF00550000AD8B4A1EF0EF0AA
:101E3600010AD8B4D2EF0EF09DEF0EF00B5012004F
:101E4600010E0C6E03500410D8B42CEF0FF02EEFD9
:101E56000FF04EEF0FF003C0D9FF04C0DAFFDF30FA
:101E6600E832E832070B066E080E06603DEF0FF00B
:101E76003FEF0FF04EEF0FF003C0D9FF04C0DAFFBB
:101E8600DF50070B066E040E06644CEF0FF04EEFA4
:101E96000FF0B1EF0FF0000E0C6EC6EF0FF003C09F
:101EA600D9FF04C0DAFFDF30E832E832070B066EEE
:101EB600010E076E062A62EF0FF0D8900736062E3F
:101EC60060EF0FF003C0D9FF04C0DAFFDF50070B45
:101ED600086E0850020DCB0EF324D96E000EF420C6
:101EE600DA6EDECF09F0DDCF0AF009C0D9FF0AC0ED
:101EF600DAFF0750DF12C6EF0FF003C0D9FF04C0A8
:101F0600DAFFDF30E832E832070B066E010E076EA5
:101F1600062A90EF0FF0D8900736062E8EEF0FF0B8
:101F26000750FF0A086E03C0D9FF04C0DAFFDF506E
:101F3600070B096E0950020DCB0EF324D96E000E65
:101F4600F420DA6EDECF0AF0DDCF0BF00AC0D9FF3F
:101F56000BC0DAFF0850DF16C6EF0FF00550066E0D
:101F6600076A0750000AD8B4BBEF0FF04EEF0FF028
:101F76000650000AD8B480EF0FF0010AD8B452EF29
:101F86000FF04EEF0FF00C50120047504810D8A437
:101F9600CFEF0FF0D1EF0FF0D3EF0FF06AEF10F0A5
:101FA600C69A20EE0CF04750D9264850DA22DFA018
:101FB600DFEF0FF0E1EF0FF0E9EF0FF047C044F06D
:101FC60048C045F0EEEC10F025EF10F020EE0CF0D6
:101FD6004750D9264850DA22DFB0F4EF0FF0F6EF7B
:101FE6000FF025EF10F020EE0CF04750D9264850A0
:101FF600DA22DFA601EF10F003EF10F006EF10F083
:10200600C58E14EF10F020EE0CF04750D92648503C
:10201600DA22DFB611EF10F013EF10F014EF10F024
:10202600C59EC69EC69CC68820EE0BF04750D92694
:102036004850DA22DF50C86E47C003F048C004F0AB
:1020460039EC13F060EC13F020EE0CF04750D92673
:102056004850DA22DFB232EF10F034EF10F037EFEB
:1020660010F0C79E45EF10F020EE0CF04750D92631
:102076004850DA22DFA242EF10F044EF10F045EFAD
:1020860010F0C78E20EE0CF04750D9264850DA22C1
:10209600DFA450EF10F052EF10F055EF10F0C78CA0
:1020A60063EF10F020EE0CF04750D9264850DA22A4
:1020B600DFB460EF10F062EF10F063EF10F0C79C32
:1020C60047C003F048C004F0D8EC12F0C68A1200EC
:1020D6003C343D34436E4350D8A474EF10F076EF91
:1020E60010F080EF10F0000E3A6E000E3B6E000E00
:1020F6003C6E000E3D6EEDEF10F03AC03EF03BC078
:102106003FF03CC040F03DC041F0200E90EF10F093
:10211600D890413240323F323E32E82E8BEF10F0FB
:102126003E50426E3C8EFF0E3A16FF0E3B16FF0ED9
:102136003C16000E3D16960E435E43BEA7EF10F00A
:10214600A5EF10F0BDEF10F04350800A970FD8B0FE
:10215600AFEF10F0B1EF10F0B3EF10F076EF10F034
:10216600D8903D323C323B323A32433EB3EF10F028
:10217600D5EF10F01F0E4364C3EF10F0C5EF10F05B
:10218600CDEF10F076EF10F0D8903A363B363C366D
:102196003D3643064350D8A4D3EF10F0D5EF10F0E8
:1021A600C7EF10F04250D8B4DBEF10F0DDEF10F0BF
:1021B600E5EF10F03D1E3C1E3B1E3A6C000E3B2226
:1021C6003C223D223AC03AF03BC03BF03CC03CF0DA
:1021D6003DC03DF0120020EE0AF04450D92645508D
:1021E600DA22DF50466EC6504618F00B4618C66E09
:1021F600000E2E6E000E2F6E800E306EBF0E316EEC
:1022060044C0D9FF45C0DAFFDECF03F0DECF04F0CD
:10221600DECF05F0DECF06F0000E98EC0DF003C021
:1022260015F004C016F005C017F006C018F0000E31
:10223600116E240E126EF40E136E490E146E6BECB4
:102246000AF011C02AF012C02BF013C02CF014C0F3
:102256002DF00BEC08F02AC03AF02BC03BF02CC056
:102266003CF02DC03DF06BEC10F03A50C86E1200F9
:102276000D500E10D8B442EF11F044EF11F064EF98
:1022860011F00DC0D9FF0EC0DAFFDF30E832E832B8
:10229600070B0F6E080E0F6053EF11F055EF11F09C
:1022A60064EF11F00DC0D9FF0EC0DAFFDF50070B47
:1022B6000F6E040E0F6462EF11F064EF11F068EF19
:1022C60011F0000E106E7EEF11F00DC003F00EC07F
:1022D60004F072EC0EF0106E0DC003F00EC004F0A8
:1022E6000DC0D9FF0EC0DAFF000EDFBE010E056E6F
:1022F60023EC0FF0106E105012006AC015F011C0DA
:10230600D9FF12C0DAFFDF500F0B136E15501318EA
:10231600F80B1318156E11C0D9FF12C0DAFFDF389B
:10232600070B136E13461346134615501318C70BA7
:102336001318156E159C11C0D9FF12C0DAFFDFAE57
:1023460002D0158E01D0159E11501210D8A4AEEFF2
:1023560011F0B0EF11F0B4EF11F0000E146EBBEFF8
:1023660011F0150E0D6E000E0E6E3BEC11F0146E94
:102376001450120069C010F00DC0D9FF0EC0DAFF6C
:10238600DF500F0B0F6E10500F18F80B0F18106E52
:102396000DC0D9FF0EC0DAFFDF38070B0F6E0F46F0
:1023A6000F460F4610500F18C70B0F18106E109CD3
:1023B6000DC0D9FF0EC0DAFFDFAE02D0108E01D0FD
:1023C600109E0D500E10D8A4EBEF11F0EDEF11F0AA
:1023D600EFEF11F0F7EF11F0100E036E000E046E22
:1023E600010E056E23EC0FF0120068C010F00DC050
:1023F600D9FF0EC0DAFFDF500F0B0F6E10500F180B
:10240600F80B0F18106E0DC0D9FF0EC0DAFFDF38BB
:10241600070B0F6E0F460F460F4610500F18C70BCF
:102426000F18106E109C0DC0D9FF0EC0DAFFDFAE7C
:1024360002D0108E01D0109E0D500E10D8A426EF9B
:1024460012F028EF12F02AEF12F032EF12F0100E0F
:10245600036E000E046E000E056E23EC0FF01200E4
:102466009E9653505410D8B43BEF12F03DEF12F045
:1024760049EF12F002D849EF12F00500FA6E5350F8
:10248600FD6E5450FE6EFF6AFA5012005150521003
:10249600D8B450EF12F052EF12F05EEF12F002D8FD
:1024A6005EEF12F00500FA6E5150FD6E5250FE6E50
:1024B600FF6AFA50120012004E0EF66E260EF76EE6
:1024C600000EF86E00EEC1F010EE24F00900F5CF14
:1024D600EEFFE550E150FAE1FA0EF66E260EF76EC3
:1024E600000EF86E0900F5CF7AF000EE80F0410E8E
:1024F600EE6AE806FDE100EE49F0310EEE6AE80606
:10250600FDE17B907B920001B2EF12F0C7AA8EEF3D
:1025160012F090EF12F094EF12F0C9CF5DF0B1EF28
:1025260012F0C7BA99EF12F09BEF12F0B1EF12F06A
:10253600C7B4A0EF12F0A2EF12F0A7EF12F0C95045
:10254600010E5C6EB1EF12F0C7A4ACEF12F0AEEF65
:1025560012F0B1EF12F0C750B1EF12F0120014EC06
:1025660013F047EC13F0610E5D18D8A4BDEF12F01E
:10257600BFEF12F0C5EF12F07A0E0D6E000E0E6E62
:10258600BDEC11F0630E5D18D8A4CCEF12F0CEEFBF
:1025960012F0B6EF12F07A0E0D6E000E0E6EF8EC1B
:1025A60011F0B6EF12F007EF00F09E96A19620EE1E
:1025B60008F00350D9260450DA22DECF51F0DDCFE1
:1025C60052F020EE04F00350D9260450DA22DECF72
:1025D6004FF0DDCF50F020EE06F00350D926045020
:1025E600DA22DECF95F0DDCF96F09D86A086F28EBC
:1025F600F28C1200A1964F505010D8B405EF13F08C
:1026060007EF13F013EF13F002D813EF13F00500E2
:10261600FA6E4F50FD6E5050FE6EFF6AFA50120071
:102626001200779477907782060E756E7796120E63
:10263600736E250E746E180E766E6B0E476E000E58
:10264600486EC8EC0FF01200800F810F820F830FC7
:10265600840F890F8A0F8B0F8C0F8D0F920F930F9C
:10266600940F950F960F030B131B232B20EE0AF0E6
:102676000350D9260450DA22DF50056EC6500518DD
:10268600F00B0518C66E12007A0E116E000E126E51
:1026960080EC11F012004A50B36E49C0B2FFA1920D
:1026A60012004C50CF6E4BC0CEFF9E9012004E5083
:1026B600D76E4DC0D6FFF29412009486948812000D
:1026C6005EC0CCFF1200F2901200F2901200F2905F
:1026D6001200F2901200F0921200F0901200F292A4
:1026E60012009D981200A19012009E9412009E9CCA
:0526F6001200120003B8
:020000040030CA
:0E000000FF02091EFF8181FF0FC00FE00F40BD
:00000001FF
