:04000000C3EF0BF04F
:10100000003738392F3435362A3132332D23303DED
:101010002B00010E306E28502910D8B412EF08F0C2
:1010200014EF08F034EF08F028C0D9FF29C0DAFF28
:10103000DF30E832E832070B2A6E080E2A6023EF11
:1010400008F025EF08F034EF08F028C0D9FF29C0D8
:10105000DAFFDF50070B2A6E040E2A6432EF08F025
:1010600034EF08F097EF08F0000E306EB8EF08F09C
:1010700028C0D9FF29C0DAFFDF30E832E832070B99
:101080002A6E010E2B6E2A2A48EF08F0D8902B36D4
:101090002A2E46EF08F02B50FF0A2C6E28C0D9FFED
:1010A00029C0DAFFDF50070B2D6E2D50020D150EF3
:1010B000F324D96E000EF420DA6EDECF2EF0DDCFF1
:1010C0002FF02EC0D9FF2FC0DAFF2C50DF16B8EF5B
:1010D00008F028C0D9FF29C0DAFFDF30E832E83253
:1010E000070B2A6E010E2B6E2A2A79EF08F0D89092
:1010F0002B362A2E77EF08F028C0D9FF29C0DAFF57
:10110000DF50070B2C6E2C50020D150EF324D96EF8
:10111000000EF420DA6EDECF2DF0DDCF2EF02DC0E4
:10112000D9FF2EC0DAFF2B50DF12B8EF08F028C02D
:10113000D9FF29C0DAFFDFBCA0EF08F0A3EF08F069
:10114000010EA4EF08F0000E2A6E2B6A2B50000A45
:10115000D8B4ADEF08F034EF08F02A50000AD8B444
:1011600038EF08F0010AD8B469EF08F034EF08F05E
:1011700030501200010E316E28502910D8B4C3EF40
:1011800008F0C5EF08F0E5EF08F028C0D9FF29C046
:10119000DAFFDF30E832E832070B2B6E080E2B60E7
:1011A000D4EF08F0D6EF08F0E5EF08F028C0D9FF3B
:1011B00029C0DAFFDF50070B2B6E040E2B64E3EF20
:1011C00008F0E5EF08F048EF09F0000E316E5DEF32
:1011D00009F028C0D9FF29C0DAFFDF30E832E83251
:1011E000070B2B6E010E2C6E2B2AF9EF08F0D8900E
:1011F0002C362B2EF7EF08F028C0D9FF29C0DAFFD4
:10120000DF50070B2D6E2D50020D0B0EF324D96EFF
:10121000000EF420DA6EDECF2EF0DDCF2FF02EC0E0
:10122000D9FF2FC0DAFF2C50DF125DEF09F028C084
:10123000D9FF29C0DAFFDF30E832E832070B2B6E26
:10124000010E2C6E2B2A27EF09F0D8902C362B2E6E
:1012500025EF09F02C50FF0A2D6E28C0D9FF29C0B8
:10126000DAFFDF50070B2E6E2E50020D0B0EF3240B
:10127000D96E000EF420DA6EDECF2FF0DDCF30F025
:101280002FC0D9FF30C0DAFF2D50DF165DEF09F017
:101290002A502B6E2C6A2C50000AD8B452EF09F059
:1012A000E5EF08F02B50000AD8B417EF09F0010A57
:1012B000D8B4E9EF08F0E5EF08F031501200000E65
:1012C0003B6E000E3C6E000E3A6E000E396E3250D0
:1012D0003310D8B46EEF09F070EF09F079EF09F030
:1012E00034503510D8A477EF09F079EF09F07DEF8D
:1012F00009F0000E386EEBEF09F0000E3B6E000EA9
:101300003A6E3A503224286E000E3320296E000EB9
:101310002A6EBAEC08F03A2A030E3A6492EF09F00A
:1013200094EF09F081EF09F03B503224286E000E53
:101330003320296E010E2A6EBAEC08F00D0E366EBF
:10134000FC0EE82EFED7362EFCD7000E3C6E3C502D
:101350003224366E000E3320376E040E3624286E8B
:10136000000E3720296E390E2A6E000E2B6EEDEC22
:1013700009F0386E3904D8A4C0EF09F0C2EF09F0C3
:10138000D9EF09F03B50040D010EF324366E100E18
:10139000F420376E3C503626000E372236C0F6FF5A
:1013A00037C0F7FF34C0D9FF35C0DAFF0800F5CFEA
:1013B000DFFF3C2A030E3C64E0EF09F0E2EF09F0A6
:1013C000A7EF09F03B2A030E3B64E9EF09F0EBEFCE
:1013D00009F07FEF09F038501200010E316E2850ED
:1013E0002910D8B4F6EF09F0F8EF09F021EF0AF070
:1013F0002A502B10D8B4FFEF09F001EF0AF021EFCB
:101400000AF028C0D9FF29C0DAFFDF30E832E8321D
:10141000070B2C6E080E2C6010EF0AF012EF0AF08A
:1014200021EF0AF028C0D9FF29C0DAFFDF50070BEF
:101430002C6E040E2C641FEF0AF021EF0AF025EF4A
:101440000AF0000E316E56EF0AF028C0D9FF29C00D
:10145000DAFFDF30E832E832070B2C6E28C0D9FF04
:1014600029C0DAFFDF50070B2D6E2D50020D010E43
:10147000F324D96E000EF420DA6EDECF2EF0DDCF2D
:101480002FF02EC0D9FF2FC0DAFFDF50306E2C2A8C
:101490004CEF0AF0D89030322C2E4AEF0AF0305040
:1014A000010B2AC0D9FF2BC0DAFFDF6E31501200CA
:1014B00032503310D8B45FEF0AF061EF0AF081EFD9
:1014C0000AF032C0D9FF33C0DAFFDF30E832E83249
:1014D000070B346E080E346070EF0AF072EF0AF0FA
:1014E00081EF0AF032C0D9FF33C0DAFFDF50070BBB
:1014F000346E040E34647FEF0AF081EF0AF085EF5A
:101500000AF0000E356E9BEF0AF032C028F033C0AF
:1015100029F009EC08F0356E32C028F033C029F00C
:1015200032C0D9FF33C0DAFF000EDFBE010E2A6ED3
:10153000BAEC08F0356E35501200000E3B6E000E0E
:101540003C6E36503710D8A4A8EF0AF0AAEF0AF084
:10155000AEEF0AF0000E3A6EDBEF0AF0000E3B6EC3
:101560003B503624326E000E3720336E58EC0AF0B2
:101570003B2A030E3B64BFEF0AF0C1EF0AF0B0EF65
:101580000AF0000E3C6E3C503624386E000E3720B8
:10159000396E040E3824286E000E3920296E09ECAD
:1015A00008F03A6E3C2A030E3C64D9EF0AF0DBEFF8
:1015B0000AF0C3EF0AF03A50120043C03AF036C0C6
:1015C000D9FF37C0DAFFDF500F0B386E3A503818AA
:1015D000F80B38183A6E36C0D9FF37C0DAFFDF385B
:1015E000070B386E3846384638463A503818C70B1D
:1015F00038183A6E3A9C36C0D9FF37C0DAFFDFAEF2
:1016000002D03A8E01D03A9E36503710D8A40BEF54
:101610000BF00DEF0BF011EF0BF0000E396E18EF21
:101620000BF03A0E326E000E336E58EC0AF0396E43
:101630003950120042C035F032C0D9FF33C0DAFF52
:10164000DF500F0B346E35503418F80B3418356EEC
:1016500032C0D9FF33C0DAFFDF38070B346E3446AF
:101660003446344635503418C70B3418356E359C23
:1016700032C0D9FF33C0DAFFDFAE02D0358E01D0E1
:10168000359E32503310D8A448EF0BF04AEF0BF0E0
:101690004CEF0BF054EF0BF0350E286E000E296E58
:1016A000010E2A6EBAEC08F0120041C035F032C0CB
:1016B000D9FF33C0DAFFDF500F0B346E35503418CA
:1016C000F80B3418356E32C0D9FF33C0DAFFDF387B
:1016D000070B346E34463446344635503418C70B45
:1016E0003418356E359C32C0D9FF33C0DAFFDFAE17
:1016F00002D0358E01D0359E32503310D8A483EFFE
:101700000BF085EF0BF087EF0BF08FEF0BF0350E42
:10171000286E000E296E000E2A6EBAEC08F0120038
:10172000F2EC0BF01F0E326E000E336E440E346E70
:10173000000E356E5FEC09F0456E370E4418D8A4E4
:10174000A4EF0BF0A6EF0BF0AEEF0BF0270E326E0E
:10175000000E336E1AEC0BF092EF0BF0380E4418BB
:10176000D8A4B5EF0BF0B7EF0BF0BFEF0BF0270EDF
:10177000326E000E336E55EC0BF092EF0BF092EFE1
:101780000BF000EF00F0BC0EF66E170EF76E000EB9
:10179000F86E00EE01F010EE27F00900F5CFEEFF35
:1017A000E550E150FAE100EE3DF0080EEE6AE80681
:1017B000FDE1000EF86E000190EF0BF0800F810F3D
:1017C000820F830F840F890F8A0F8B0F8C0F8D0F61
:1017D000920F930F940F950F960F020A121A626AD6
:0317E000727A0317
:1017E4001F0E366E000E376E9DEC0AF0270E366E15
:0A17F400000E376EDDEC0AF0120063
:020000040030CA
:0E000000FF02091EFF8181FF0FC00FE00F40BD
:00000001FF
