:0400000018EF01F004
:0600080066820BED08F01A
:100018006680D8CF51F0E8CF52F0E0CF53F0FACF56
:1000280054F0FBCF55F0D9CF56F0DACF57F0F3CFD5
:1000380058F0F4CF59F0F0BC24EF00F026EF00F0B0
:100048002FEF00F0F0A02BEF00F02DEF00F02FEFD6
:1000580000F0A7EC0EF0F0BE34EF00F036EF00F041
:100068003FEF00F0F0A23BEF00F03DEF00F03FEF74
:1000780000F0A5EC0EF0F1B044EF00F046EF00F010
:100088005CEF00F0F2A04BEF00F04DEF00F05CEFFA
:1000980000F081380F0B010B2018D8B456EF00F090
:1000A80058EF00F05CEF00F0010E201AA3EC0EF000
:1000B800F1B061EF00F063EF00F07AEF00F0F2A02A
:1000C80068EF00F06AEF00F07AEF00F08138E8425C
:1000D800070B010B1F18D8B474EF00F076EF00F08F
:1000E8007AEF00F0010E1F1AA1EC0EF0F1B07FEFCD
:1000F80000F081EF00F098EF00F0F2A086EF00F03A
:1001080088EF00F098EF00F08144E846030B010BFC
:100118001E18D8B492EF00F094EF00F098EF00F0BA
:10012800010E1E1A9FEC0EF0F1B09DEF00F09FEF4C
:1001380000F0B4EF00F0F2A0A4EF00F0A6EF00F09A
:10014800B4EF00F08144010B1D18D8B4AEEF00F0F5
:10015800B0EF00F0B4EF00F0010E1D1A9DEC0EF0A8
:100168009FBCB9EF00F0BBEF00F0C4EF00F09EAC0D
:10017800C0EF00F0C2EF00F0C4EF00F0A9EC0EF001
:10018800F1B4C9EF00F0CBEF00F0D4EF00F0F2A427
:10019800D0EF00F0D2EF00F0D4EF00F080EC0EF0DA
:1001A8009FB0D9EF00F0DBEF00F0E4EF00F09EA085
:1001B800E0EF00F0E2EF00F0E4EF00F07AEC0EF090
:1001C8009FB2E9EF00F0EBEF00F0F4EF00F09EA231
:1001D800F0EF00F0F2EF00F0F4EF00F0F9EC0DF0C2
:1001E800A2B2F9EF00F0FBEF00F004EF01F0A1A2DA
:1001F80000EF01F002EF01F004EF01F0BBEC0EF0AC
:1002080059C0F4FF58C0F3FF57C0DAFF56C0D9FFF2
:1002180055C0FBFF54C0FAFF53C0E0FF52C0E8FFCF
:0C02280051C0D8FF669010009DEF0DF053
:10100000003738392F3435362A3132332D23303DED
:051010002B2569000022
:101016000600FACF3FF0FBCF40F0D9CF41F0DACF50
:1010260042F0F3CF43F0F4CF44F0F2A81DEF08F0FE
:101036001FEF08F028EF08F0F2A224EF08F026EFE1
:1010460008F028EF08F0B9EC0EF0F0AC2DEF08F040
:101056002FEF08F038EF08F0F0A034EF08F036EF85
:1010660008F038EF08F0B5EC0EF0F0AE3DEF08F002
:101076003FEF08F048EF08F0F0A244EF08F046EF23
:1010860008F048EF08F0B3EC0EF0F1A04DEF08F0D1
:101096004FEF08F065EF08F0F2A054EF08F056EFB6
:1010A60008F065EF08F081380F0B010B2018D8B453
:1010B6005FEF08F061EF08F065EF08F0010E201A07
:1010C600B1EC0EF0F1A06AEF08F06CEF08F083EFD8
:1010D60008F0F2A071EF08F073EF08F083EF08F064
:1010E6008138E842070B010B1F18D8B47DEF08F0D2
:1010F6007FEF08F083EF08F0010E1F1AAFEC0EF039
:10110600F1A088EF08F08AEF08F0A1EF08F0F2A04E
:101116008FEF08F091EF08F0A1EF08F08144E84660
:10112600030B010B1E18D8B49BEF08F09DEF08F0D7
:10113600A1EF08F0010E1E1AADEC0EF0F1A0A6EF1D
:1011460008F0A8EF08F0BDEF08F0F2A0ADEF08F048
:10115600AFEF08F0BDEF08F08144010B1D18D8B4BD
:10116600B7EF08F0B9EF08F0BDEF08F0010E1D1A51
:10117600ABEC0EF09FACC2EF08F0C4EF08F0CDEF79
:1011860008F09EACC9EF08F0CBEF08F0CDEF08F001
:10119600B7EC0EF0F1A4D2EF08F0D4EF08F0DDEFD3
:1011A60008F0F2A4D9EF08F0DBEF08F0DDEF08F065
:1011B6008CEC0EF09FA0E2EF08F0E4EF08F0EDEF04
:1011C60008F09EA0E9EF08F0EBEF08F0EDEF08F06D
:1011D60086EC0EF09FA2F2EF08F0F4EF08F0FDEFB8
:1011E60008F09EA2F9EF08F0FBEF08F0FDEF08F01B
:1011F60012EC0EF0A2A202EF09F004EF09F00DEFD7
:1012060009F0A1A209EF09F00BEF09F00DEF09F0C3
:10121600BCEC0EF044C0F4FF43C0F3FF42C0DAFF5B
:1012260041C0D9FF40C0FBFF3FC0FAFF66921100E4
:10123600010E0001A26F9A519B11D8B425EF09F057
:1012460027EF09F047EF09F09AC0D9FF9BC0DAFFF4
:10125600DF30E832E832070B9C6F080E9C6136EFF0
:1012660009F038EF09F047EF09F09AC0D9FF9BC0A3
:10127600DAFFDF50070B9C6F040E9C6545EF09F003
:1012860047EF09F0ACEF09F0000EA26FCDEF09F0C1
:101296009AC0D9FF9BC0DAFFDF30E832E832070B8D
:1012A6009C6F010E9D6F9C2B5BEF09F0D8909D37CC
:1012B6009C2F59EF09F000019D51FF0A9E6F9AC0BD
:1012C600D9FF9BC0DAFFDF50070B9F6F9F51020DBE
:1012D6008A0EF324D96E000EF420DA6EDECFA0F06B
:1012E600DDCFA1F0A0C0D9FFA1C0DAFF9E51DF1665
:1012F600CDEF09F09AC0D9FF9BC0DAFFDF30E832A4
:10130600E832070B9C6F010E9D6F9C2B8DEF09F049
:10131600D8909D379C2F8BEF09F09AC0D9FF9BC0C0
:10132600DAFFDF50070B00019E6F9E51020D8A0EF9
:10133600F324D96E000EF420DA6EDECF9FF0DDCFF7
:10134600A0F09FC0D9FFA0C0DAFF9D51DF12CDEFFC
:1013560009F09AC0D9FF9BC0DAFFDFBCB5EF09F0F0
:10136600B8EF09F0010EB9EF09F0000E9C6F9D6B06
:101376009D51000AD8B4C2EF09F047EF09F09C511D
:10138600000AD8B44BEF09F0010AD8B47DEF09F092
:1013960047EF09F0A2511200010E0001A36F9A5106
:1013A6009B11D8B4D9EF09F0DBEF09F0FBEF09F098
:1013B6009AC0D9FF9BC0DAFFDF30E832E832070B6C
:1013C6009D6F080E9D61EAEF09F0ECEF09F0FBEF67
:1013D60009F09AC0D9FF9BC0DAFFDF50070B9D6F5B
:1013E600040E9D65F9EF09F0FBEF09F060EF0AF0D6
:1013F600000EA36F75EF0AF09AC0D9FF9BC0DAFF03
:10140600DF30E832E832070B9D6F010E9E6F9D2B91
:101416000FEF0AF0D8909E379D2F0DEF0AF09AC075
:10142600D9FF9BC0DAFFDF50070B00019F6F9F516A
:10143600020D5A0EF324D96E000EF420DA6EDECFBA
:10144600A0F0DDCFA1F0A0C0D9FFA1C0DAFF9E5168
:10145600DF1275EF0AF09AC0D9FF9BC0DAFFDF30C2
:10146600E832E832070B9D6F010E9E6F9D2B3EEF13
:101476000AF0D8909E379D2F3CEF0AF000019E514E
:10148600FF0A9F6F9AC0D9FF9BC0DAFFDF50070B98
:10149600A06FA051020D5A0EF324D96E000EF4204F
:1014A600DA6EDECFA1F0DDCFA2F0A1C0D9FFA2C0D7
:1014B600DAFF9F51DF1675EF0AF09C519D6F9E6B08
:1014C6009E51000AD8B46AEF0AF0FBEF09F09D516D
:1014D600000AD8B42EEF0AF0010AD8B4FFEF09F0DB
:1014E600FBEF09F0A3511200000E0001B06FAC51E2
:1014F600AD11D8A481EF0AF083EF0AF087EF0AF066
:10150600000EB16FEDEF0AF0ACC0A4F0ADC0A5F0CF
:1015160064EC0CF00001B16F010EAC25A46F000E57
:10152600AD21A56F64EC0CF00001B16F000EB06F39
:10153600B051AC25AE6F000EAD21AF6F020EAE25D9
:10154600A46F000EAF21A56F64EC0CF00001B02B68
:10155600030EB065B1EF0AF0B3EF0AF09BEF0AF0A5
:10156600ACC0A8F0ADC0A9F0330EAA6FECEC0CF03D
:10157600640EE82EFED7ACC0A8F0ADC0A9F0320EBE
:101586000001AA6FECEC0CF0ACC0A8F0ADC0A9F05D
:10159600280E0001AA6FECEC0CF0ACC0A8F0ADC0B0
:1015A600A9F0010E0001AA6FECEC0CF0ACC0A8F09B
:1015B600ADC0A9F0060E0001AA6FECEC0CF0ACC0B1
:1015C600A8F0ADC0A9F00C0E0001AA6FECEC0CF06F
:1015D6000001B16FB1511200010E00019D6F9A51C9
:1015E6009B11D8A4F9EF0AF0FBEF0AF0FFEF0AF01F
:1015F600000E9D6F5FEF0BF0CA9420EE04F09A5137
:10160600D9269B51DA22DF30E8320F0B9C6F9C47BC
:101616009C479C47CA509C19870B9C19CA6E20EEA2
:1016260004F09A51D9269B51DA22DF50030B9C6FA6
:10163600CA509C19FC0B9C19CA6E20EE03F09A51F5
:10164600D9269B51DA22DF50CC6E20EE03F09A5158
:10165600D9269B51DA22DF501B6E9D829E929AC03C
:10166600D9FF9BC0DAFFDECF01F0DDCF02F0D08ECE
:1016760020EE02F09A51D9269B51DA22DE04D8A434
:1016860047EF0BF049EF0BF04DEF0BF09F82F28E18
:101696005EEF0BF020EE02F09A51D9269B51DA222A
:1016A600DF50D8A459EF0BF05BEF0BF05EEF0BF0B9
:1016B6009F92F28EF28CCA849D511200010E4C6EDE
:1016C60045504610D8B46AEF0BF06CEF0BF08CEF78
:1016D6000BF045C0D9FF46C0DAFFDF30E832E8320A
:1016E600070B476E080E47607BEF0BF07DEF0BF0A4
:1016F6008CEF0BF045C0D9FF46C0DAFFDF50070B71
:10170600476E040E47648AEF0BF08CEF0BF090EFF8
:101716000BF0000E4C6EBCEF0BF045C0D9FF46C077
:10172600DAFFDF30E832E832070B476E010E486E0B
:10173600472AA0EF0BF0D8904836472E9EEF0BF0C5
:1017460045C0D9FF46C0DAFFDF50070B496E495046
:10175600020D5A0EF324D96E000EF420DA6EDECF97
:101766004AF0DDCF4BF04AC0D9FF4BC0DAFF4850F4
:10177600DF1A4C501200010E3A6E33503410D8B4B2
:10178600C7EF0BF0C9EF0BF0E9EF0BF033C0D9FF51
:1017960034C0DAFFDF30E832E832070B356E080E68
:1017A6003560D8EF0BF0DAEF0BF0E9EF0BF033C052
:1017B600D9FF34C0DAFFDF50070B356E040E3564EF
:1017C600E7EF0BF0E9EF0BF0EDEF0BF0000E3A6EE2
:1017D60019EF0CF033C0D9FF34C0DAFFDF30E8323E
:1017E600E832070B356E010E366E352AFDEF0BF02B
:1017F600D8903636352EFBEF0BF033C0D9FF34C008
:10180600DAFFDF50070B376E3750020D5A0EF324FE
:10181600D96E000EF420DA6EDECF38F0DDCF39F067
:1018260038C0D9FF39C0DAFF3650DF1A3A501200F5
:101836000001A451A511D8A423EF0CF025EF0CF05C
:1018460029EF0CF0000EA76F62EF0CF0020EA42534
:101856009A6F000EA5219B6FA651010B9C6FCFECD2
:1018660009F00001A76F030EA4259A6F000EA521AB
:101876009B6FD890A631010B9C6FCFEC09F000014D
:10188600A76F040EA4259A6F000EA5219B6FA64193
:10189600E8423F0B010B9C6FCFEC09F00001A76FEC
:1018A600050EA4259A6F000EA5219B6FA639E84662
:1018B6001F0B010B9C6FCFEC09F00001A76FA7511E
:1018C60012000001A451A511D8B46CEF0CF06EEF14
:1018D6000CF08EEF0CF0A4C0D9FFA5C0DAFFDF3004
:1018E600E832E832070BA66F080EA6617DEF0CF012
:1018F6007FEF0CF08EEF0CF0A4C0D9FFA5C0DAFF85
:10190600DF50070BA66F040EA6658CEF0CF08EEF6A
:101916000CF092EF0CF0000EA76FAAEF0CF0A4C02B
:101926009AF0A5C09BF01BEC09F00001A76FA4C0BC
:101936009AF0A5C09BF0A4C0D9FFA5C0DAFF000E9F
:10194600DFBE010E9C6FCFEC09F00001A76FA75117
:10195600120027C0ACF0A8C0D9FFA9C0DAFFDF503B
:101966000F0B0001AA6FAC51AA19F80BAA19AC6F9C
:10197600A8C0D9FFA9C0DAFFDF38070BAA6FAA47AC
:10198600AA47AA47AC51AA19C70BAA19AC6FAC9DB6
:10199600A8C0D9FFA9C0DAFFDFAE02D0AC8F02D053
:1019A6000001AC9FA851A911D8A4DCEF0CF0DEEF22
:1019B6000CF0E2EF0CF0000EAB6FEAEF0CF0AC0EA1
:1019C600A46F000EA56F64EC0CF00001AB6FAB5179
:1019D60012000001A851A911D8A4F4EF0CF0F6EFFB
:1019E6000CF0FAEF0CF0000EAB6F29EF0DF0A8C06B
:1019F6009AF0A9C09BF0000E9C6FCFEC09F0000195
:101A0600AB6FA8C0A4F0A9C0A5F0AA390F0BA66FAA
:101A16001BEC0CF00001AB6FA8C0A4F0A9C0A5F0A8
:101A2600CEEC0DF00001AB6FA8C0A4F0A9C0A5F0E4
:101A3600AAC0A6F01BEC0CF00001AB6FA8C0A4F086
:101A4600A9C0A5F0CEEC0DF00001AB6FAB511200B2
:101A560024C050F04DC0D9FF4EC0DAFFDF500F0B47
:101A66004F6E50504F18F80B4F18506E4DC0D9FF9F
:101A76004EC0DAFFDF38070B4F6E4F464F464F46D4
:101A860050504F18C70B4F18506E509C4DC0D9FF81
:101A96004EC0DAFFDFAE02D0508E01D0509E4D50C0
:101AA6004E10D8A459EF0DF05BEF0DF05DEF0DF081
:101AB60063EF0DF0500E456E000E466E61EC0BF0B6
:101AC600120024C03EF03BC0D9FF3CC0DAFFDF5015
:101AD6000F0B3D6E3E503D18F80B3D183E6E3BC059
:101AE600D9FF3CC0DAFFDF38070B3D6E3D463D4669
:101AF6003D463E503D18C70B3D183E6E3E9C3BC0D2
:101B0600D9FF3CC0DAFFDFAE02D03E8E01D03E9E4A
:101B16003B503C10D8A492EF0DF094EF0DF096EFE9
:101B26000DF09CEF0DF03E0E336E000E346EBEECE3
:101B36000BF01200A80EF66E1C0EF76E000EF86E75
:101B460000EE80F010EE1AF00900F5CFEEFFE5503A
:101B5600E150FAE1240EF66E1D0EF76E000EF86ED9
:101B660000EE5AF010EE0BF00900F5CFEEFFE5504F
:101B7600E150FAE100EEB3F0150EEE6AE806FDE17B
:101B860000EE01F0320EEE6AE806FDE1669066921E
:101B9600000174EF0EF00001A451A511D8A4D6EFF0
:101BA6000DF0D8EF0DF0DCEF0DF0000EA66FF7EF9D
:101BB6000DF0010EA4259A6F000EA5219B6F010E54
:101BC6009C6FCFEC09F0030EE82EFED700F0010E55
:101BD6000001A4259A6F000EA5219B6F000E9C6F35
:101BE600CFEC09F00001A66FA65112001BC0CCFF76
:101BF6009E9201500210D8B403EF0EF005EF0EF0DE
:101C060011EF0EF002D811EF0EF00500FA6E01503A
:101C1600FD6E0250FE6EFF6AFA50120012001BC0E3
:101C2600CCFF9E9201500210D8B41CEF0EF01EEFAE
:101C36000EF02AEF0EF002D82AEF0EF00500FA6E2B
:101C46000150FD6E0250FE6EFF6AFA50120012003D
:101C5600C20E2E6E1C0E2F6E010E306E3250FC0B15
:101C66000209326E3C0E3212FA0E316E2E0E000151
:101C76009A6F000E9B6FEFEC0AF0656E1200940EE1
:101C86000001AC6F000EAD6F77EC0AF00001B26F89
:101C9600640EA86F000EA96FACEC0CF00001B21731
:101CA6001200800F810F820F830F840F920F930F04
:101CB600940F950F960F030B131B232B66A266EF4B
:101CC6000EF06DEF0EF0640E4D6E000E4E6E2BECA8
:101CD6000DF01200640E3B6E000E3C6E64EC0DF0CF
:101CE600120098EC0EF076EF0EF018EF01F00450AB
:101CF600CF6E03C0CEFF9E9012000850D76E07C06D
:101D0600D6FFF29412000450CF6E03C0CEFF9E9011
:101D160012000850D76E07C0D6FFF2941200890F42
:091D26008A0F8B0F8C0F8D0F71D9
:101D300042EC0EF02BEC0EF01200F2901200F2903A
:101D40001200F2901200F2901200F0921200F09045
:101D500012009E9C1200F2901200F2901200F2907B
:101D60001200F2901200F0921200F09012009E9C6D
:0A1D70001200F2921200120012009D
:020000040030CA
:0E000000FF02091EFF8181FF0FC00FE00F40BD
:00000001FF
