:04000000B0EF00F06D
:060008005F820BED08F021
:100018005F80D8CF55F0E8CF56F0E0CF57F0F0BC6E
:1000280018EF00F01AEF00F023EF00F0F0A01FEF38
:1000380000F021EF00F023EF00F07DEC09F0F0BEB6
:1000480028EF00F02AEF00F033EF00F0F0A22FEFD6
:1000580000F031EF00F033EF00F07BEC09F0F1B085
:1000680038EF00F03AEF00F050EF00F0F2A03FEF69
:1000780000F041EF00F050EF00F081380F0B010B5A
:100088004C18D8B44AEF00F04CEF00F050EF00F0F5
:10009800010E4C1A79EC09F0F1B055EF00F057EF6A
:1000A80000F06EEF00F0F2A05CEF00F05EEF00F001
:1000B8006EEF00F08138E842070B010B4B18D8B4FB
:1000C80068EF00F06AEF00F06EEF00F0010E4B1AD7
:1000D80077EC09F0F1B073EF00F075EF00F08CEFFA
:1000E80000F0F2A07AEF00F07CEF00F08CEF00F067
:1000F8008144E846030B010B4A18D8B486EF00F098
:1001080088EF00F08CEF00F0010E4A1A75EC09F048
:10011800F1B091EF00F093EF00F0A8EF00F0F2A03B
:1001280098EF00F09AEF00F0A8EF00F08144010B7F
:100138004918D8B4A2EF00F0A4EF00F0A8EF00F03F
:10014800010E491A73EC09F057C0E0FF56C0E8FFEA
:0C01580055C0D8FF5F90100016EF09F0B2
:10100000003738392F3435362A3132332D23303DED
:051010002B2569000022
:101016000600F2A811EF08F013EF08F01CEF08F035
:10102600F2A218EF08F01AEF08F01CEF08F08BECAC
:1010360009F0F0AC21EF08F023EF08F02CEF08F0F0
:10104600F0A028EF08F02AEF08F02CEF08F089EC62
:1010560009F0F0AE31EF08F033EF08F03CEF08F09E
:10106600F0A238EF08F03AEF08F03CEF08F087EC12
:1010760009F0F1A041EF08F043EF08F059EF08F04E
:10108600F2A048EF08F04AEF08F059EF08F081386F
:101096000F0B010B4C18D8B453EF08F055EF08F0BE
:1010A60059EF08F0010E4C1A85EC09F0F1A05EEF3D
:1010B60008F060EF08F077EF08F0F2A065EF08F0AF
:1010C60067EF08F077EF08F08138E842070B010B6D
:1010D6004B18D8B471EF08F073EF08F077EF08F00B
:1010E600010E4B1A83EC09F0F1A07CEF08F07EEFBD
:1010F60008F095EF08F0F2A083EF08F085EF08F00E
:1011060095EF08F08144E846030B010B4A18D8B462
:101116008FEF08F091EF08F095EF08F0010E4A1AEC
:1011260081EC09F0F1A09AEF08F09CEF08F0B1EF1E
:1011360008F0F2A0A1EF08F0A3EF08F0B1EF08F075
:101146008144010B4918D8B4ABEF08F0ADEF08F0B5
:10115600B1EF08F0010E491A7FEC09F05F92110019
:10116600000E5E6E5E0E586E000E596E45EC09F06E
:101176005BC058F05CC059F069EC09F05D506FEC4B
:1011860009F0A69EA69CA684F29E550EA76EAA0EF0
:10119600A76EA682A6B2D2EF08F0D4EF08F0CDEF84
:1011A60008F0A6945E0E586E000E596E54EC09F0C7
:1011B6001200800F810F820F830F840F890F8A0F11
:1011C6008B0F8C0F8D0F920F930F940F950F960F19
:1011D600323A030B131B232B333B020A121A626AA1
:1011E600727A020A121A222A332313035C505D1004
:1011F600D8A400EF09F002EF09F004EF09F015EFAB
:1012060009F05AC058F05BC059F069EC09F0A69E87
:10121600A69CA68000F000F05CC058F05DC059F0B6
:1012260062EC09F01200B80EF66E110EF76E000EA3
:10123600F86E00EE01F010EE3AF00900F5CFEEFF81
:10124600E550E150FAE100EE3BF01A0EEE6AE806D0
:10125600FDE15F905F92000131EF09F0030E5C6ED5
:101266005B68330E5D6EB3EC08F0030E5B6E5A6876
:10127600540E5C6E000E5D6EF9EC08F041EF09F05D
:10128600B0EF00F0F2BE4AEF09F04DEF09F0010EA3
:101296004EEF09F0000E58C0D9FF59C0DAFFDF6ED5
:1012A600120058C0D9FF59C0DAFFDF505A6E5A32C1
:1012B6005A32F2505A187F0B5A18F26E120058C062
:1012C600D9FF59C0DAFFA8CFDFFF12005950030B30
:1012D600AA6E58C0A9FF1200586E58C0A8FF120087
:1012E600F2901200F2901200F2901200F2901200A8
:1012F600F0921200F0901200F2901200F29012009A
:10130600F2901200F2901200F0921200F090120089
:04131600F29212003D
:020000040030CA
:0E000000FF02091EFF8181FF0FC00FE00F40BD
:00000001FF
