:0400000007EF00F016
:0A0008007A8238ED0CF0A8EF12F038
:10100000003738392F3435362A3132332D23303DED
:051010002B2569000022
:101016002E50800B376E2E502E24396E2DAE16EFC5
:1010260008F018EF08F019EF08F039803950D8B4F5
:101036001FEF08F021EF08F036EF08F03928D8A4A2
:1010460027EF08F029EF08F031EF08F0000E2B6EBD
:10105600000E2C6E000E2D6E000E2E6E2D8E000EC6
:101066002E6E3EEF08F0000E2B6E000E2C6E000E5C
:101076002D6E000E2E6E3250800B386E375038189B
:10108600D8B448EF08F04AEF08F04BEF08F0378C79
:1010960032503224386E31AE53EF08F055EF08F077
:1010A60056EF08F038803850D8B45CEF08F05EEFA1
:1010B60008F073EF08F03828D8A464EF08F066EF5C
:1010C60008F06EEF08F0000E2F6E000E306E000E68
:1010D600316E000E326E318E000E326E7BEF08F0EE
:1010E600000E2F6E000E306E000E316E000E326E48
:1010F6003950385CD8B082EF08F084EF08F0ABEFD7
:1011060008F037AC89EF08F08BEF08F08DEF08F0A8
:10111600800E371A39C03AF038C039F03AC038F084
:101126002BC03AF02FC02BF03AC02FF02CC03AF06B
:1011360030C02CF03AC030F02DC03AF031C02DF05E
:101146003AC031F02EC03AF032C02EF03AC032F03A
:10115600000E3A6E395038C033F0346A335E000EF2
:10116600345A34BEC0EF08F0345009E11A0E335C2D
:10117600D8A0C0EF08F0C2EF08F0F9EF08F02B5046
:101186002C102D102E10D8A4CBEF08F0CEEF08F0BF
:10119600010ECFEF08F0000E3A6E000E2B6E000E19
:1011A6002C6E000E2D6E000E2E6E38C039F002EF3A
:1011B60009F03AA0E1EF08F0E3EF08F0E9EF08F0F4
:1011C600D8903A3001093A6EEBEF08F0D8903A32EF
:1011D6002BA0F0EF08F0F2EF08F0F3EF08F03A8EEC
:1011E6002E342E322D322C322B32392A3850395C9D
:1011F600D8A000EF09F002EF09F0DCEF08F037BCE9
:1012060007EF09F009EF09F049EF09F03950D8A4C2
:101216000FEF09F011EF09F01BEF09F0000E2B6E2E
:10122600000E2C6E000E2D6E000E2E6E6AEF0AF06A
:101236002F502B2630502C2231502D2232502E2268
:101246002EA028EF09F02AEF09F0D6EF09F03AA010
:101256002FEF09F031EF09F037EF09F0D8903A3067
:1012660001093A6E39EF09F0D8903A322BA03EEFD9
:1012760009F040EF09F041EF09F03A8E2E342E3294
:101286002D322C322B32392AD6EF09F02F502B5C17
:1012960030502C5831502D582E50800A336E325013
:1012A600800A3358D8B05AEF09F05CEF09F087EF9F
:1012B60009F02B502F5C336E2C503058346E2D5065
:1012C6003158356E2E503258366EFF0E33242B6E43
:1012D600FF0E34202C6EFF0E35202D6EFF0E3620AD
:1012E6002E6E800E371A3A6C3A50D8A47DEF09F06C
:1012F6007FEF09F08FEF09F0010E2B26000E2C224E
:101306002D222E228FEF09F02F502B5E30502C5AB3
:1013160031502D5A32502E5A2B502C102D102E1083
:10132600D8A498EF09F09AEF09F0CFEF09F03A50F8
:10133600D8A4A0EF09F0A2EF09F0CFEF09F0000E54
:101346002B6E000E2C6E000E2D6E000E2E6E6AEFAA
:101356000AF0D8902B362C362D362E363AAEB6EF0E
:1013660009F0B8EF09F0B9EF09F02B803AA0BEEF0B
:1013760009F0C0EF09F0C4EF09F0D8803A36C6EF9D
:1013860009F0D8903A363950D8B4CCEF09F0CEEF00
:1013960009F0CFEF09F039062DAED4EF09F0D6EFFC
:1013A60009F0ACEF09F0000E386E3AAEDDEF09F049
:1013B600DFEF09F0F7EF09F03AC033F07F0E33168E
:1013C600D8B4E8EF09F0EAEF09F0EEEF09F0010E04
:1013D600386EF7EF09F02BA0F3EF09F0F5EF09F0FF
:1013E600F7EF09F0EAEF09F03850D8B4FDEF09F04D
:1013F600FFEF09F02AEF0AF0010E2B26000E2C2231
:101406002D222E222EA00AEF0AF00CEF0AF02AEF68
:101416000AF02BC033F02CC034F02DC035F02EC0AE
:1014260036F03634363235323432333233C02BF07E
:1014360034C02CF035C02DF036C02EF03928D8B483
:1014460027EF0AF029EF0AF02AEF0AF0392A39289D
:10145600D8B430EF0AF032EF0AF03AEF0AF039501A
:10146600D8A438EF0AF03AEF0AF04CEF0AF0000E73
:101476002B6E000E2C6E000E2D6E000E2E6E395049
:10148600D8A448EF0AF04AEF0AF04CEF0AF0000E33
:10149600376E39A051EF0AF053EF0AF056EF0AF013
:1014A6002D8E57EF0AF02D9ED89039302E6E37AE1E
:1014B6005FEF0AF061EF0AF062EF0AF02E8E2BC0A2
:1014C6002BF02CC02CF02DC02DF02EC02EF01200CB
:1014D6001550800B226E15501524296E14AE76EF2A
:1014E6000AF078EF0AF079EF0AF029802950D8B48B
:1014F6007FEF0AF081EF0AF096EF0AF02928D8A4C8
:1015060087EF0AF089EF0AF091EF0AF0000E126EEB
:10151600000E136E000E146E000E156E148E000E65
:10152600156E9EEF0AF0000E126E000E136E000E80
:10153600146E000E156E1950800B221A19501924BC
:101546002A6E18AEA9EF0AF0ABEF0AF0ACEF0AF07C
:101556002A802A50D8B4B2EF0AF0B4EF0AF0C9EFE5
:101566000AF02A28D8A4BAEF0AF0BCEF0AF0C4EFB2
:101576000AF0000E166E000E176E000E186E000EA4
:10158600196E188E000E196ED1EF0AF0000E166E47
:10159600000E176E000E186E000E196E16501710FC
:1015A60018101910D8A4DAEF0AF0DCEF0AF0F4EFFD
:1015B6000AF0000E126E000E136E000E146E000E70
:1015C600156E800E14127F0E15122250151212C0BF
:1015D60012F013C013F014C014F015C015F037EF55
:1015E6000CF02950D8A4FAEF0AF0FCEF0AF006EF47
:1015F6000BF0000E126E000E136E000E146E000E2F
:10160600156E37EF0CF02A5029C01AF01B6A1A5EC5
:10161600000E1B5A7F0E1A24236E000E1B20246E0A
:1016260012C01EF013C01FF014C020F015C021F028
:10163600000E126E000E136E000E146E000E156E66
:10164600000E256E000E266E000E276E000E286E0A
:10165600000E2A6E67EF0BF02A50D8B435EF0BF068
:1016660037EF0BF04EEF0BF0D8901E361F362036B4
:101676002136D890123613361436153628AE46EF74
:101686000BF048EF0BF049EF0BF01280D89025369F
:1016960026362736283616501E5C17501F58185007
:1016A600205819502158D8A05BEF0BF05DEF0BF0D6
:1016B60066EF0BF0288C16501E5E17501F5A1850F6
:1016C600205A1950215A2A2A190E2A646DEF0BF056
:1016D6006FEF0BF02FEF0BF01E501F102010211094
:1016E600D8B478EF0BF07AEF0BF092EF0BF0258081
:1016F60092EF0BF0D890123613361436153628AE04
:1017060087EF0BF089EF0BF08AEF0BF01280D89081
:1017160025362636273628362306D8A0240614AEC4
:1017260097EF0BF099EF0BF07DEF0BF0000E2A6EA2
:1017360028AEA0EF0BF0A2EF0BF0C6EF0BF0FF0EFA
:1017460025141A6EFF0E26141B6EFF0E27141C6E30
:101756007F0E28141D6E1A501B101C101D10D8B4B5
:10176600B7EF0BF0B9EF0BF0BDEF0BF0010E2A6EE1
:10177600C6EF0BF012A0C2EF0BF0C4EF0BF0C6EFF2
:101786000BF0B9EF0BF02A50D8B4CCEF0BF0CEEF3C
:101796000BF0F2EF0BF0010E1226000E13221422AC
:1017A600152215A0D9EF0BF0DBEF0BF0F2EF0BF0E3
:1017B60012C01AF013C01BF014C01CF015C01DF0A7
:1017C6001D341D321C321B321A321AC012F01BC0D5
:1017D60013F01CC014F01DC015F0234A242A24BEA1
:1017E600FDEF0BF0245008E12328D8A0FDEF0BF005
:1017F600FFEF0BF00AEF0CF0000E246E2368000ECC
:10180600126E000E136E000E146E000E156E24BEC0
:1018160017EF0CF0245006E12304D8B015EF0CF0B6
:1018260017EF0CF025EF0CF0000E246E000E236E61
:10183600000E126E000E136E000E146E000E156E64
:10184600000E226E23C029F029A02CEF0CF02EEFFB
:101856000CF031EF0CF0148E32EF0CF0149ED89091
:101866002930156EE8EF0AF012000600FACF02F0F2
:10187600FBCF03F0F2A842EF0CF044EF0CF04DEF73
:101886000CF0F2A249EF0CF04BEF0CF04DEF0CF020
:101896009CEC13F0F0A652EF0CF054EF0CF05DEF59
:1018A6000CF0F0A059EF0CF05BEF0CF05DEF0CF0D4
:1018B6009AEC13F0F0A862EF0CF064EF0CF06DEF09
:1018C6000CF0F0A269EF0CF06BEF0CF06DEF0CF082
:1018D60098EC13F0F2A672EF0CF074EF0CF08AEFAE
:1018E6000CF0F2A079EF0CF07BEF0CF08AEF0CF025
:1018F60081380F0B010B6218D8B484EF0CF086EF19
:101906000CF08AEF0CF0010E621A94EC13F0F2A6BA
:101916008FEF0CF091EF0CF0A8EF0CF0F2A096EF21
:101926000CF098EF0CF0A8EF0CF08138E842070BAA
:10193600010B6118D8B4A2EF0CF0A4EF0CF0A8EFDD
:101946000CF0010E611A92EC13F0F2A6ADEF0CF05A
:10195600AFEF0CF0C6EF0CF0F2A0B4EF0CF0B6EF60
:101966000CF0C6EF0CF08144E846030B010B60183F
:10197600D8B4C0EF0CF0C2EF0CF0C6EF0CF0010EBD
:10198600601A90EC13F0F2A6CBEF0CF0CDEF0CF052
:10199600E2EF0CF0F2A0D2EF0CF0D4EF0CF0E2EF95
:1019A6000CF08144010B5F18D8B4DCEF0CF0DEEFCD
:1019B6000CF0E2EF0CF0010E5F1A8EEC13F09DAC0A
:1019C600E7EF0CF0E9EF0CF0F2EF0CF09EACEEEF67
:1019D6000CF0F0EF0CF0F2EF0CF0A4EC13F0F2AA1E
:1019E600F7EF0CF0F9EF0CF002EF0DF0F2A4FEEFBA
:1019F6000CF000EF0DF002EF0DF07AEC13F09DA065
:101A060007EF0DF009EF0DF012EF0DF09EA00EEFAF
:101A16000DF010EF0DF012EF0DF074EC13F09DA227
:101A260017EF0DF019EF0DF022EF0DF09EA21EEF4D
:101A36000DF020EF0DF022EF0DF08BEC13F0A0A2CD
:101A460027EF0DF029EF0DF032EF0DF0A1A22EEFEA
:101A56000DF030EF0DF032EF0DF06EEC13F09DA4AB
:101A660037EF0DF039EF0DF042EF0DF09EA43EEF8B
:101A76000DF040EF0DF042EF0DF0A2EC13F0A0A038
:101A860047EF0DF049EF0DF052EF0DF0A1A04EEF2C
:101A96000DF050EF0DF052EF0DF0A0EC13F09DA8F5
:101AA60057EF0DF059EF0DF062EF0DF09EA85EEFC7
:101AB6000DF060EF0DF062EF0DF09EEC13F09DAAB5
:101AC60067EF0DF069EF0DF072EF0DF09EAA6EEF65
:101AD6000DF070EF0DF072EF0DF0A6EC13F09DA671
:101AE60077EF0DF079EF0DF082EF0DF09EA67EEF09
:101AF6000DF080EF0DF082EF0DF07CEC12F0A0A659
:101B060087EF0DF089EF0DF092EF0DF0A1A68EEFA5
:101B16000DF090EF0DF092EF0DF01DEC13F003C0F9
:101B2600FBFF02C0FAFF7A9211000C6E0C50D8B47B
:101B36009FEF0DF0A1EF0DF0C3EF0DF007BEA8EF7C
:101B46000DF0A6EF0DF0C3EF0DF004C008F005C0D0
:101B560009F006C00AF007C00BF0081E091E0A1E8F
:101B66000B1E082A000E09220A220B2208C00EF0BC
:101B760009C00FF00AC010F00BC011F0CBEF0DF04A
:101B860004C00EF005C00FF006C010F007C011F03B
:101B96000450051006100710D8A4D4EF0DF0D6EFA8
:101BA6000DF0E0EF0DF0000E046E000E056E000E57
:101BB600066E000E076E71EF0EF0960E0D6EEAEFD2
:101BC6000DF00D2AD890113210320F320E32000E5F
:101BD6000E14086E000E0F14096E000E10140A6E15
:101BE600FE0E11140B6E085009100A100B10D8A423
:101BF600FFEF0DF001EF0EF0E4EF0DF00FEF0EF03A
:101C06000D2A010E0E26000E0F2210221122D89048
:101C1600113210320F320E32000E0E14086E000E04
:101C26000F14096E000E10140A6EFF0E11140B6EBF
:101C3600085009100A100B10D8A424EF0EF026EF56
:101C46000EF003EF0EF02EEF0EF00D06D8900E36C6
:101C56000F361036113610BE33EF0EF035EF0EF09C
:101C66003DEF0EF0020E0D603BEF0EF03DEF0EF075
:101C760028EF0EF00DB042EF0EF044EF0EF045EFF8
:101C86000EF0109ED8900D320DC008F0096A0A6A4F
:101C96000B6A08C00BF00A6A096A086A08500E1235
:101CA60009500F120A5010120B5011120C50D8B4D2
:101CB6005FEF0EF061EF0EF069EF0EF007BE68EF12
:101CC6000EF066EF0EF069EF0EF0118E0EC004F006
:101CD6000FC005F010C006F011C007F01200010E8B
:101CE6000C6E04500510D8B47BEF0EF07DEF0EF0AD
:101CF6009DEF0EF004C0D9FF05C0DAFFDF30E832F1
:101D0600E832070B066E080E06608CEF0EF08EEFBB
:101D16000EF09DEF0EF004C0D9FF05C0DAFFDF50CC
:101D2600070B066E040E06649BEF0EF09DEF0EF099
:101D360000EF0FF0000E0C6E21EF0FF004C0D9FF7C
:101D460005C0DAFFDF30E832E832070B066E010E17
:101D5600076E062AB1EF0EF0D8900736062EAFEFC3
:101D66000EF00750FF0A086E04C0D9FF05C0DAFF5F
:101D7600DF50070B096E0950020DD70EF324D96EFA
:101D8600000EF420DA6EDECF0AF0DDCF0BF00AC0CB
:101D9600D9FF0BC0DAFF0850DF1621EF0FF004C0A1
:101DA600D9FF05C0DAFFDF30E832E832070B066EEE
:101DB600010E076E062AE2EF0EF0D8900736062EC1
:101DC600E0EF0EF004C0D9FF05C0DAFFDF50070BC5
:101DD600086E0850020DD70EF324D96E000EF420BB
:101DE600DA6EDECF09F0DDCF0AF009C0D9FF0AC0EE
:101DF600DAFF0750DF1221EF0FF004C0D9FF05C04C
:101E0600DAFFDFBC09EF0FF00CEF0FF0010E0DEF5C
:101E16000FF0000E066E076A0750000AD8B416EFD8
:101E26000FF09DEF0EF00650000AD8B4A1EF0EF0A9
:101E3600010AD8B4D2EF0EF09DEF0EF00C5012004E
:101E4600010E0D6E04500510D8B42CEF0FF02EEFD6
:101E56000FF04EEF0FF004C0D9FF05C0DAFFDF30F8
:101E6600E832E832070B076E080E07603DEF0FF009
:101E76003FEF0FF04EEF0FF004C0D9FF05C0DAFFB9
:101E8600DF50070B076E040E07644CEF0FF04EEFA2
:101E96000FF0B1EF0FF0000E0D6EC6EF0FF004C09D
:101EA600D9FF05C0DAFFDF30E832E832070B076EEC
:101EB600010E086E072A62EF0FF0D8900836072E3B
:101EC60060EF0FF004C0D9FF05C0DAFFDF50070B43
:101ED600096E0950020DCD0EF324D96E000EF420C2
:101EE600DA6EDECF0AF0DDCF0BF00AC0D9FF0BC0E9
:101EF600DAFF0850DF12C6EF0FF004C0D9FF05C0A5
:101F0600DAFFDF30E832E832070B076E010E086EA3
:101F1600072A90EF0FF0D8900836072E8EEF0FF0B5
:101F26000850FF0A096E04C0D9FF05C0DAFFDF506A
:101F3600070B0A6E0A50020DCD0EF324D96E000E61
:101F4600F420DA6EDECF0BF0DDCF0CF00BC0D9FF3C
:101F56000CC0DAFF0950DF16C6EF0FF00650076E09
:101F6600086A0850000AD8B4BBEF0FF04EEF0FF026
:101F76000750000AD8B480EF0FF0010AD8B452EF28
:101F86000FF04EEF0FF00D50120048504910D8A434
:101F9600CFEF0FF0D1EF0FF0D3EF0FF06AEF10F0A5
:101FA600C69A20EE0CF04850D9264950DA22DFA016
:101FB600DFEF0FF0E1EF0FF0E9EF0FF048C045F06B
:101FC60049C046F0EEEC10F025EF10F020EE0CF0D4
:101FD6004850D9264950DA22DFB0F4EF0FF0F6EF79
:101FE6000FF025EF10F020EE0CF04850D92649509E
:101FF600DA22DFA601EF10F003EF10F006EF10F083
:10200600C58E14EF10F020EE0CF04850D92649503A
:10201600DA22DFB611EF10F013EF10F014EF10F024
:10202600C59EC69EC69CC68820EE0BF04850D92693
:102036004950DA22DF50C86E48C004F049C005F0A6
:1020460059EC13F088EC13F020EE0CF04850D9262A
:102056004950DA22DFB232EF10F034EF10F037EFEA
:1020660010F0C79E45EF10F020EE0CF04850D92630
:102076004950DA22DFA242EF10F044EF10F045EFAC
:1020860010F0C78E20EE0CF04850D9264950DA22BF
:10209600DFA450EF10F052EF10F055EF10F0C78CA0
:1020A60063EF10F020EE0CF04850D9264950DA22A2
:1020B600DFB460EF10F062EF10F063EF10F0C79C32
:1020C60048C004F049C005F0F8EC12F0C68A1200C8
:1020D6003D343E34446E4450D8A474EF10F076EF8D
:1020E60010F080EF10F0000E3B6E000E3C6E000EFE
:1020F6003D6E000E3E6EEDEF10F03BC03FF03CC073
:1021060040F03DC041F03EC042F0200E90EF10F08E
:10211600D8904232413240323F32E82E8BEF10F0F7
:102126003F50436E3D8EFF0E3B16FF0E3C16FF0ED4
:102136003D16000E3E16960E445E44BEA7EF10F006
:10214600A5EF10F0BDEF10F04450800A970FD8B0FD
:10215600AFEF10F0B1EF10F0B3EF10F076EF10F034
:10216600D8903E323D323C323B32443EB3EF10F023
:10217600D5EF10F01F0E4464C3EF10F0C5EF10F05A
:10218600CDEF10F076EF10F0D8903B363C363D366A
:102196003E3644064450D8A4D3EF10F0D5EF10F0E5
:1021A600C7EF10F04350D8B4DBEF10F0DDEF10F0BE
:1021B600E5EF10F03E1E3D1E3C1E3B6C000E3C2221
:1021C6003D223E223BC03BF03CC03CF03DC03DF0D2
:1021D6003EC03EF0120020EE0AF04550D926465089
:1021E600DA22DF50476EC6504718F00B4718C66E06
:1021F600000E2F6E000E306E800E316EBF0E326EE8
:1022060045C0D9FF46C0DAFFDECF04F0DECF05F0C9
:10221600DECF06F0DECF07F0000E98EC0DF004C01E
:1022260016F005C017F006C018F007C019F0000E2A
:10223600126E240E136EF40E146E490E156E6BECB0
:102246000AF012C02BF013C02CF014C02DF015C0EC
:102256002EF00BEC08F02BC03BF02CC03CF02DC050
:102266003DF02EC03EF06BEC10F03B50C86E1200F5
:10227600C7B440EF11F042EF11F04CEF11F0C7AACE
:1022860047EF11F049EF11F04CEF11F084EC13F029
:102296005C6EC7B451EF11F053EF11F05CEF11F023
:1022A600C7BA58EF11F05AEF11F05CEF11F096EC47
:1022B60013F0C7A461EF11F063EF11F083EF11F093
:1022C600C7BA68EF11F06AEF11F083EF11F096ECE0
:1022D60013F05B50D8A472EF11F074EF11F07CEF9D
:1022E60011F0010E5B6E620E80EC13F0C68883EF70
:1022F60011F0000E5B6E640E80EC13F079EF11F0B6
:1023060012000E500F10D8B48BEF11F08DEF11F0B4
:10231600ADEF11F00EC0D9FF0FC0DAFFDF30E832A3
:10232600E832070B106E080E10609CEF11F09EEF5E
:1023360011F0ADEF11F00EC0D9FF0FC0DAFFDF507C
:10234600070B106E040E1064ABEF11F0ADEF11F039
:10235600B1EF11F0000E116EC7EF11F00EC004F0D0
:102366000FC005F072EC0EF0116E0EC004F00FC037
:1023760005F00EC0D9FF0FC0DAFF000EDFBE010E5A
:10238600066E23EC0FF0116E1150120069C016F0A4
:1023960012C0D9FF13C0DAFFDF500F0B146E1650B0
:1023A6001418F80B1418166E12C0D9FF13C0DAFFF2
:1023B600DF38070B146E14461446144616501418CC
:1023C600C70B1418166E169C12C0D9FF13C0DAFF7D
:1023D600DFAE02D0168E01D0169E12501310D8A46E
:1023E600F7EF11F0F9EF11F0FDEF11F0000E156E99
:1023F60004EF12F0160E0E6E000E0F6E84EC11F046
:10240600156E1550120068C011F00EC0D9FF0FC02E
:10241600DAFFDF500F0B106E11501018F80B101862
:10242600116E0EC0D9FF0FC0DAFFDF38070B106E32
:1024360010461046104611501018C70B1018116E92
:10244600119C0EC0D9FF0FC0DAFFDFAE02D0118E8D
:1024560001D0119E0E500F10D8A434EF12F036EFB3
:1024660012F038EF12F040EF12F0110E046E000E6B
:10247600056E010E066E23EC0FF0120067C011F018
:102486000EC0D9FF0FC0DAFFDF500F0B106E1150D0
:102496001018F80B1018116E0EC0D9FF0FC0DAFF16
:1024A600DF38070B106E10461046104611501018F4
:1024B600C70B1018116E119C0EC0D9FF0FC0DAFFA2
:1024C600DFAE02D0118E01D0119E0E500F10D8A48F
:1024D6006FEF12F071EF12F073EF12F07BEF12F064
:1024E600110E046E000E056E000E066E23EC0FF044
:1024F60012009E9654505510D8B484EF12F086EF11
:1025060012F092EF12F002D892EF12F00500FA6E76
:102516005450FD6E5550FE6EFF6AFA50120052502E
:102526005310D8B499EF12F09BEF12F0A7EF12F008
:1025360002D8A7EF12F00500FA6E5250FD6E535006
:10254600FE6EFF6AFA50120012008E0EF66E260E0E
:10255600F76E000EF86E00EEC3F010EE24F00900E0
:10256600F5CFEEFFE550E150FAE14E0EF66E270E7E
:10257600F76E000EF86E0900F5CF79F000EE80F0E8
:10258600430EEE6AE806FDE100EE4AF02F0EEE6A13
:10259600E806FDE17A907A920001D2EF12F034EC6F
:1025A60013F067EC13F0420E5C18D8A4DDEF12F0BE
:1025B600DFEF12F0E5EF12F0790E0E6E000E0F6EE1
:1025C60006EC12F0440E5C18D8A4ECEF12F0EEEF15
:1025D60012F0D6EF12F0790E0E6E000E0F6E41EC71
:1025E60012F0D6EF12F007EF00F09E96A19620EEBD
:1025F60008F00450D9260550DA22DECF52F0DDCF9E
:1026060053F020EE04F00450D9260550DA22DECF2E
:1026160050F0DDCF51F020EE06F00450D9260550DB
:10262600DA22DECF95F0DDCF96F09D86A086F28E7B
:10263600F28C1200A19650505110D8B425EF13F029
:1026460027EF13F033EF13F002D833EF13F0050042
:10265600FA6E5050FD6E5150FE6EFF6AFA5012002F
:102666001200769476907682060E746E7696760EC4
:10267600726E220E736E620E756E6A0E486E000ED4
:10268600496EC8EC0FF01200800F810F820F830F86
:10269600840F890F8A0F8B0F8C0F8D0F920F930F5C
:1026A600940F950F960F030B131B232B20EE0AF0A6
:1026B6000450D9260550DA22DF50066EC650061899
:1026C600F00B0618C66E1200790E126E000E136E0F
:1026D600C9EC11F012004B50B36E4AC0B2FFA19282
:1026E60012004D50CF6E4CC0CEFF9E9012004F5040
:1026F600D76E4EC0D6FFF2941200016E01C0C9FF1C
:102706001200C9CF01F0015012009486948812007D
:102716005DC0CCFF1200F2901200F2901200F2900F
:102726001200F2901200C9501200F0921200F090BE
:102736001200F29212009D981200A19012009E942F
:0927460012009E9C120012000317
:020000040030CA
:0E000000FF02091EFF8181FF0FC00FE00F40BD
:00000001FF
