:04000000D0EF00F04D
:060008006582F0ED0EF030
:100018006580D8CF14F0E8CF15F0E0CF16F0FACF0E
:1000280017F0FBCF18F0D9CF19F0DACF1AF0F0BCDF
:1000380020EF00F022EF00F02BEF00F0F0A027EF08
:1000480000F029EF00F02BEF00F059EC1BF0F0BEA8
:1000580030EF00F032EF00F03BEF00F0F0A237EFA6
:1000680000F039EF00F03BEF00F057EC1BF0F1B077
:1000780040EF00F042EF00F058EF00F0F2A047EF39
:1000880000F049EF00F058EF00F081380F0B010B3A
:100098005818D8B452EF00F054EF00F058EF00F0C1
:1000A800010E581A55EC1BF0F1B05DEF00F05FEF50
:1000B80000F076EF00F0F2A064EF00F066EF00F0D9
:1000C80076EF00F08138E842070B010B5718D8B4D7
:1000D80070EF00F072EF00F076EF00F0010E571AA3
:1000E80053EC1BF0F1B07BEF00F07DEF00F094EFE4
:1000F80000F0F2A082EF00F084EF00F094EF00F03F
:100108008144E846030B010B5618D8B48EEF00F073
:1001180090EF00F094EF00F0010E561A51EC1BF02E
:10012800F1B099EF00F09BEF00F0B0EF00F0F2A013
:10013800A0EF00F0A2EF00F0B0EF00F08144010B57
:100148005518D8B4AAEF00F0ACEF00F0B0EF00F00B
:10015800010E551A4FEC1BF09FBCB5EF00F0B7EF3E
:1001680000F0C0EF00F09EACBCEF00F0BEEF00F076
:10017800C0EF00F0F0EC1AF01AC0DAFF19C0D9FF8E
:1001880018C0FBFF17C0FAFF16C0E0FF15C0E8FF54
:0C01980014C0D8FF6590100084EF19F02F
:10100000003738392F3435362A3132332D23303DED
:101010002B2054656D7031203A20002054656D708E
:1010200032203A20004C4D3335205465737400252E
:0310300069000054
:101034002C50800B356E2C502C243B6E2BAE25EFA0
:1010440008F027EF08F028EF08F03B803B50D8B4B5
:101054002EEF08F030EF08F043EF08F03B28D8A457
:1010640036EF08F038EF08F040EF08F0000E296E74
:10107400000E2A6E000E2B6E000E2C6E2B8E4BEF84
:1010840008F0000E296E000E2A6E000E2B6E000E64
:101094002C6E3050800B351A305030243A6E2FAEFF
:1010A40056EF08F058EF08F059EF08F03A803A503C
:1010B400D8B45FEF08F061EF08F074EF08F03A2855
:1010C400D8A467EF08F069EF08F071EF08F0000E9C
:1010D4002D6E000E2E6E000E2F6E000E306E2F8EB3
:1010E4007CEF08F0000E2D6E000E2E6E000E2F6E9B
:1010F400000E306E3A50D8B482EF08F084EF08F056
:101104008CEF08F03B50D8A48AEF08F08CEF08F07D
:1011140096EF08F0000E296E000E2A6E000E2B6E5C
:10112400000E2C6E2EEF0AF02F502902F3CF40F060
:10113400F4CF41F04050366E376A386A396A41500C
:101144003C6E3D6A3E6A3F6A2E502A02F3CF40F05D
:10115400F4CF41F040503626000E3722382239228F
:1011640041503C26000E3D223E223F222D502B02B0
:10117400F3CF40F0F4CF41F040503626000E372232
:101184003822392241503C26000E3D223E223F2285
:1011940038C039F037C038F036C037F0366A2D50D1
:1011A4002A02F3CF40F0F4CF41F0405036264150AC
:1011B4003722000E3822000E39222E502902F3CF96
:1011C40040F0F4CF41F04050362641503722000E13
:1011D4003822000E392238C039F037C038F036C012
:1011E40037F0366A2D502902F3CF40F0F4CF41F0A6
:1011F4004050362641503722000E3822000E392244
:101204002F502A02F3CF40F0F4CF41F040503C2657
:1012140041503D22000E3E22000E3F222E502B0252
:10122400F3CF40F0F4CF41F040503C2641503D22F2
:10123400000E3E22000E3F222F502B02F3CF40F02F
:10124400F4CF41F04050316E4150326E336A346A0B
:1012540033C034F032C033F031C032F0316A31502F
:101264003C2632503D2233503E2234503F2236C079
:1012740031F037C032F038C033F039C034F0190ED1
:1012840049EF09F0D8903432333232323132E82E19
:1012940044EF09F031503C2632503D2233503E2277
:1012A40034503F2238C039F037C038F036C037F0F8
:1012B400366A3A503BC031F0326A3126000E32228F
:1012C400820E3124406EFF0E3220416E7FEF09F012
:1012D400D8903C363D363E363F3639AE74EF09F091
:1012E40076EF09F077EF09F03C80D8903636373640
:1012F400383639364006D8A041063EAE84EF09F0B0
:1013040086EF09F06AEF09F0000E3A6E39AE8DEF00
:1013140009F08FEF09F0B3EF09F0FF0E3614316EC8
:10132400FF0E3714326EFF0E3814336E7F0E3914ED
:10133400346E3150321033103410D8B4A4EF09F0A5
:10134400A6EF09F0AAEF09F0010E3A6EB3EF09F027
:101354003CA0AFEF09F0B1EF09F0B3EF09F0A6EF4D
:1013640009F03A50D8B4B9EF09F0BBEF09F0DFEF58
:1013740009F0010E3C26000E3D223E223F223FA0F2
:10138400C6EF09F0C8EF09F0DFEF09F03CC031F017
:101394003DC032F03EC033F03FC034F03434343218
:1013A40033323232313231C03CF032C03DF033C0DE
:1013B4003EF034C03FF0404A412A41BEEAEF09F012
:1013C400415008E14028D8A0EAEF09F0ECEF09F019
:1013D400F6EF09F0000E3C6E000E3D6E800E3E6E80
:1013E4007F0E3F6E24EF0AF041BE03EF0AF0415036
:1013F40006E14004D8B001EF0AF003EF0AF00FEF62
:101404000AF0000E3C6E000E3D6E000E3E6E000EA5
:101414003F6E000E356E24EF0AF040C03BF0FF0E25
:101424003C16FF0E3D167F0E3E16000E3F163BA0E7
:101434001EEF0AF020EF0AF021EF0AF03E8ED8905A
:101444003B303F6E35503F123CC029F03DC02AF07E
:101454003EC02BF03FC02CF012004550800B000121
:10146400EC6F45504524F36F44AE3BEF0AF03DEF7B
:101474000AF03EEF0AF0F381F351D8B444EF0AF0D6
:1014840046EF0AF05BEF0AF0F329D8A44CEF0AF018
:101494004EEF0AF056EF0AF0000E426E000E436E55
:1014A400000E446E000E456E448E000E456E63EFD2
:1014B4000AF0000E426E000E436E000E446E000EE3
:1014C400456E4950800BEC1B49504924F46F48AEDB
:1014D4006EEF0AF070EF0AF071EF0AF0F481F45144
:1014E400D8B477EF0AF079EF0AF08EEF0AF0F42916
:1014F400D8A47FEF0AF081EF0AF089EF0AF0000E1A
:10150400466E000E476E000E486E000E496E488E01
:10151400000E496E96EF0AF0000E466E000E476EFE
:10152400000E486E000E496E465047104810491090
:10153400D8A49FEF0AF0A1EF0AF0B9EF0AF0000E69
:10154400426E000E436E000E446E000E456E800E19
:1015540044127F0E4512EC51451242C042F043C082
:1015640043F044C044F045C045F0FCEF0BF0F351A8
:10157400D8A4BFEF0AF0C1EF0AF0CBEF0AF0000ED7
:10158400426E000E436E000E446E000E456EFCEF7C
:101594000BF0F451F3C0E4F0E56BE45F000EE55B9F
:1015A4007F0EE425ED6F000EE521EE6F42C0E8F0FA
:1015B40043C0E9F044C0EAF045C0EBF0000E426ECF
:1015C400000E436E000E446E000E456E000EEF6F6B
:1015D400000EF06F000EF16F000EF26F000EF46F4C
:1015E4002CEF0BF0F451D8B4FAEF0AF0FCEF0AF048
:1015F40013EF0BF0D890E837E937EA37EB37D89098
:101604004236433644364536F2AF0BEF0BF00DEF5E
:101614000BF00EEF0BF04280D890EF37F037F13734
:10162400F2374650E85D4750E9594850EA59495065
:10163400EB59D8A020EF0BF022EF0BF02BEF0BF0BF
:10164400F28D4650E85F4750E95B4850EA5B4950E9
:10165400EB5BF42B190EF46532EF0BF034EF0BF067
:10166400F4EF0AF0E851E911EA11EB11D8B43DEFB7
:101674000BF03FEF0BF057EF0BF0EF8157EF0BF050
:10168400D8904236433644364536F2AF4CEF0BF031
:101694004EEF0BF04FEF0BF04280D890EF37F0375E
:1016A400F137F237ED07D8A0EE0744AE5CEF0BF04C
:1016B4005EEF0BF042EF0BF0000EF46FF2AF65EF4C
:1016C4000BF067EF0BF08BEF0BF0FF0EEF15E46FF1
:1016D400FF0EF015E56FFF0EF115E66F7F0EF215A4
:1016E400E76FE451E511E611E711D8B47CEF0BF094
:1016F4007EEF0BF082EF0BF0010EF46F8BEF0BF02B
:1017040042A087EF0BF089EF0BF08BEF0BF07EEF2D
:101714000BF0F451D8B491EF0BF093EF0BF0B7EF5B
:101724000BF0010E4226000E43224422452245A01E
:101734009EEF0BF0A0EF0BF0B7EF0BF042C0E4F01C
:1017440043C0E5F044C0E6F045C0E7F0E735E733D1
:10175400E633E533E433E4C042F0E5C043F0E6C0E9
:1017640044F0E7C045F0ED4BEE2BEEBFC2EF0BF0BB
:10177400EE5108E1ED29D8A0C2EF0BF0C4EF0BF055
:10178400CFEF0BF0000EEE6FED69000E426E000E0F
:10179400436E000E446E000E456EEEBFDCEF0BF0A0
:1017A400EE5106E1ED05D8B0DAEF0BF0DCEF0BF00B
:1017B400EAEF0BF0000EEE6F000EED6F000E426EBE
:1017C400000E436E000E446E000E456E000EEC6F6C
:1017D400EDC0F3F0F3A1F1EF0BF0F3EF0BF0F6EF44
:1017E4000BF0448EF7EF0BF0449ED890F331456E26
:1017F400ADEF0AF0120046EC1BF0DA0E336E000E69
:10180400346E010E356E060E366E250E376E100ED2
:10181400386EF1EC16F0646E080E0101376F1B0E82
:10182400366F270EE82EFED7362FFCD7372FFAD780
:10183400DA0E296E000E2A6E010E2B6E41EC18F0A2
:101844006416DA0E336E000E346E010E356E010E20
:10185400366E110E376E100E386EF1EC16F06416FB
:10186400DA0E336E000E346E020E356E010E366ED5
:101874001B0E376E100E386EF1EC16F064165450D1
:10188400D8A447EF0CF049EF0CF052EF0CF0D30E54
:10189400236E000E246E000E256E9CEC1AF0641666
:1018A4005404D8A458EF0CF05AEF0CF063EF0CF08A
:1018B400D30E236E000E246E010E256E9CEC1AF0DE
:1018C4006416000E466E000E476E200E486E410EE2
:1018D400496EF60E2D6E280E2E6E9C0E2F6E400E47
:1018E400306E62C01BF063C01CF01D6A1E6A000EDD
:1018F4004BEC0DF01BC029F01CC02AF01DC02BF0CE
:101904001EC02CF01AEC08F029C042F02AC043F0A3
:101914002BC044F02CC045F02FEC0AF042C0F5F087
:1019240043C0F6F044C0F7F045C0F8F05FEC12F0A5
:10193400F5C09BF0F6C09CF0000E466E000E476E9C
:10194400200E486E410E496EF60E2D6E280E2E6E38
:101954009C0E2F6E400E306E60C01BF061C01CF0F8
:101964001D6A1E6A000E4BEC0DF01BC029F01CC052
:101974002AF01DC02BF01EC02CF01AEC08F029C070
:1019840042F02AC043F02BC044F02CC045F02FECA9
:101994000AF042C0F5F043C0F6F044C0F7F045C089
:1019A400F8F05FEC12F0F5C099F0F6C09AF09BC025
:1019B400FAF09CC0FBF0AE0E0001FC6F000EFD6F50
:1019C40014EC15F0641699C0FAF09AC0FBF0A70E57
:1019D4000001FC6F000EFD6F14EC15F06416DA0EB6
:1019E400336E000E346E010E356E0A0E366EAE0E78
:1019F400376E000E386EF1EC16F06416DA0E336EA4
:101A0400000E346E020E356E0A0E366EA70E376E59
:101A1400000E386EF1EC16F0641600019C5109E1D9
:101A2400150E9B5DD8A019EF0DF01BEF0DF024EF00
:101A34000DF0E20E256E000E266EF5EC19F064161C
:101A44002BEF0DF0E20E256E000E266ED2EC19F08F
:101A5400641600019A5109E11A0E995DD8A035EF78
:101A64000DF037EF0DF040EF0DF0E00E256E000E97
:101A7400266E18EC1AF0641641EF0CF0E00E256E99
:101A8400000E266ED2EC19F0641641EF0CF0D0EF84
:101A940000F0236E2350D8B452EF0DF054EF0DF044
:101AA40076EF0DF01EBE5BEF0DF059EF0DF076EF03
:101AB4000DF01BC01FF01CC020F01DC021F01EC083
:101AC40022F01F1E201E211E221E1F2A000E20226D
:101AD400212222221FC025F020C026F021C027F099
:101AE40022C028F07EEF0DF01BC025F01CC026F0AC
:101AF4001DC027F01EC028F01B501C101D101E1006
:101B0400D8A487EF0DF089EF0DF093EF0DF0000EE0
:101B14001B6E000E1C6E000E1D6E000E1E6E24EF5A
:101B24000EF0960E246E9DEF0DF0242AD8902832E4
:101B3400273226322532000E25141F6E000E26147D
:101B4400206E000E2714216EFE0E2814226E1F50E4
:101B5400201021102210D8A4B2EF0DF0B4EF0DF034
:101B640097EF0DF0C2EF0DF0242A010E2526000E8A
:101B7400262227222822D8902832273226322532BC
:101B8400000E25141F6E000E2614206E000E27145E
:101B9400216EFF0E2814226E1F50201021102210D7
:101BA400D8A4D7EF0DF0D9EF0DF0B6EF0DF0E1EFBB
:101BB4000DF02406D890253626362736283627BE3B
:101BC400E6EF0DF0E8EF0DF0F0EF0DF0020E2460FB
:101BD400EEEF0DF0F0EF0DF0DBEF0DF024B0F5EFCC
:101BE4000DF0F7EF0DF0F8EF0DF0279ED8902432AA
:101BF40024C01FF0206A216A226A1FC022F0216AD1
:101C0400206A1F6A1F5025122050261221502712C5
:101C1400225028122350D8B412EF0EF014EF0EF015
:101C24001CEF0EF01EBE1BEF0EF019EF0EF01CEFB2
:101C34000EF0288E25C01BF026C01CF027C01DF016
:101C440028C01EF0120039BE2AEF0EF02DEF0EF060
:101C5400010E2EEF0EF0000E406E4050D8B435EF5A
:101C64000EF037EF0EF03BEF0EF0386C391ED8B0A3
:101C7400392A000198BF43EF0EF041EF0EF049EF0F
:101C84000EF0000E3D6E010E3C6E4DEF0EF097C04F
:101C94003CF098C03DF095C03EF096C03FF04050F7
:101CA400D8B457EF0EF059EF0EF070EF0EF03E0679
:101CB400D8A03F064050D8A462EF0EF064EF0EF0B7
:101CC4006AEF0EF0000E3B6E2B0E3A6E6EEF0EF0C6
:101CD400000E3B6E2D0E3A6E3AC040F0000E426E7E
:101CE4001F0E416E000E01011F6FA9EF0EF0410699
:101CF400D8A04206000E4124D96E010E4220DA6EAD
:101D040038C01BF039C01CF0000E1E6E0A0E1D6E8A
:101D140099EC16F01BC021F01CC022F05DEC1AF007
:101D24002150300FDF6E3C06D8A03D063E06D8A0F9
:101D34003F0638C01BF039C01CF0000E1E6E0A0EA0
:101D44001D6EDFEC15F01BC038F01CC039F042BE2C
:101D5400B4EF0EF0425008E14104D8A0B4EF0EF005
:101D6400B6EF0EF0CCEF0EF038503910D8A4BDEF1A
:101D74000EF0BFEF0EF079EF0EF03DBECCEF0EF09B
:101D84003D5006E13C04D8B0CAEF0EF0CCEF0EF0A3
:101D940079EF0EF04050D8B4D2EF0EF0D4EF0EF03D
:101DA400DFEF0EF04106D8A04206000E4124D96EA2
:101DB400010E4220DA6E40C0DFFF36C02BF037C080
:101DC4002CF0000E41242D6E010E42202E6E3EC0DA
:101DD4002FF03FC030F0CBEC17F012000600FACF22
:101DE40008F0FBCF09F0D9CF0AF0DACF0BF0F2A854
:101DF400FEEF0EF000EF0FF009EF0FF0F2A205EF87
:101E04000FF007EF0FF009EF0FF067EC1BF0F0ACE9
:101E14000EEF0FF010EF0FF019EF0FF0F0A015EF29
:101E24000FF017EF0FF019EF0FF065EC1BF0F0AEA9
:101E34001EEF0FF020EF0FF029EF0FF0F0A225EFC7
:101E44000FF027EF0FF029EF0FF063EC1BF0F1A078
:101E54002EEF0FF030EF0FF046EF0FF0F2A035EF5A
:101E64000FF037EF0FF046EF0FF081380F0B010B37
:101E74005818D8B440EF0FF042EF0FF046EF0FF0D0
:101E8400010E581A61EC1BF0F1A04BEF0FF04DEF6F
:101E94000FF064EF0FF0F2A052EF0FF054EF0FF0D9
:101EA40064EF0FF08138E842070B010B5718D8B4E0
:101EB4005EEF0FF060EF0FF064EF0FF0010E571AB2
:101EC4005FEC1BF0F1A069EF0FF06BEF0FF082EF06
:101ED4000FF0F2A070EF0FF072EF0FF082EF0FF03F
:101EE4008144E846030B010B5618D8B47CEF0FF07D
:101EF4007EEF0FF082EF0FF0010E561A5DEC1BF02F
:101F0400F1A087EF0FF089EF0FF09EEF0FF0F2A032
:101F14008EEF0FF090EF0FF09EEF0FF08144010B66
:101F24005518D8B498EF0FF09AEF0FF09EEF0FF01A
:101F3400010E551A5BEC1BF09FACA3EF0FF0A5EF5D
:101F44000FF0AEEF0FF09EACAAEF0FF0ACEF0FF076
:101F5400AEEF0FF007EC1BF00BC0DAFF0AC0D9FF9D
:101F640009C0FBFF08C0FAFF659211001BC025F0F1
:101F74001CC026F01F502010D8A4C3EF0FF0C5EFEB
:101F84000FF0C7EF0FF072EF10F025C0D9FF26C095
:101F9400DAFF1DC0DFFF1F502524216E20502620AC
:101FA400226EFF0E2124D96EFF0E2220DA6E1DC090
:101FB400DFFF205007E1030E1F5CD8B0E4EF0FF001
:101FC400E6EF0FF0E8EF0FF072EF10F020EE01F003
:101FD4002550D9262650DA221DC0DFFF20EE02F05C
:101FE4002550D9262650DA221DC0DFFF1F50252494
:101FF400216E20502620226EFE0E2124D96EFF0E63
:102004002220DA6E1DC0DFFF1F502524216E2050D0
:102014002620226EFD0E2124D96EFF0E2220DA6EB8
:102024001DC0DFFF205007E1070E1F5CD8B01DEF75
:1020340010F01FEF10F021EF10F072EF10F020EE0F
:1020440003F02550D9262650DA221DC0DFFF1F5089
:102054002524216E20502620226EFC0E2124D96EC8
:10206400FF0E2220DA6E1DC0DFFF205007E1090EAB
:102074001F5CD8B040EF10F042EF10F044EF10F0C6
:1020840072EF10F025C021F026C022F0211E221E7E
:10209400214A222A030E2114236E246A2350252662
:1020A4002450262223501F5E2450205AFC0E1F1653
:1020B400FF0E201669EF10F025C0D9FF26C0DAFF05
:1020C4001DC0DFFF1F06D8A02006254A262A1F5060
:1020D4002010D8A470EF10F072EF10F05EEF10F043
:1020E4001200010E236E1B501C10D8B47CEF10F0AC
:1020F4007EEF10F09EEF10F01BC0D9FF1CC0DAFF7A
:10210400DF30E832E832070B1D6E080E1D608DEFDC
:1021140010F08FEF10F09EEF10F01BC0D9FF1CC021
:10212400DAFFDF50070B1D6E040E1D649CEF10F0E8
:102134009EEF10F001EF11F0000E236E22EF11F06C
:102144001BC0D9FF1CC0DAFFDF30E832E832070BCE
:102154001D6E010E1E6E1D2AB2EF10F0D8901E36B1
:102164001D2EB0EF10F01E50FF0A1F6E1BC0D9FFCA
:102174001CC0DAFFDF50070B206E2050020DC90E81
:10218400F324D96E000EF420DA6EDECF21F0DDCF19
:1021940022F021C0D9FF22C0DAFF1F50DF1622EF40
:1021A40011F01BC0D9FF1CC0DAFFDF30E832E8327F
:1021B400070B1D6E010E1E6E1D2AE3EF10F0D89062
:1021C4001E361D2EE1EF10F01BC0D9FF1CC0DAFF34
:1021D400DF50070B1F6E1F50020DC90EF324D96E7A
:1021E400000EF420DA6EDECF20F0DDCF21F020C027
:1021F400D9FF21C0DAFF1E50DF1222EF11F01BC0FD
:10220400D9FF1CC0DAFFDFBC0AEF11F00DEF11F0AB
:10221400010E0EEF11F0000E1D6E1E6A1E50000A14
:10222400D8B417EF11F09EEF10F01D50000AD8B487
:10223400A2EF10F0010AD8B4D3EF10F09EEF10F023
:1022440023501200010E246E1B501C10D8B42DEF25
:1022540011F02FEF11F04FEF11F01BC0D9FF1CC08C
:10226400DAFFDF30E832E832070B1E6E080E1E601C
:102274003EEF11F040EF11F04FEF11F01BC0D9FF0A
:102284001CC0DAFFDF50070B1E6E040E1E644DEFF8
:1022940011F04FEF11F0B2EF11F0000E246EC7EF02
:1022A40011F01BC0D9FF1CC0DAFFDF30E832E8327E
:1022B400070B1E6E010E1F6E1E2A63EF11F0D890DD
:1022C4001F361E2E61EF11F01BC0D9FF1CC0DAFFB0
:1022D400DF50070B206E2050020DBF0EF324D96E81
:1022E400000EF420DA6EDECF21F0DDCF22F021C023
:1022F400D9FF22C0DAFF1F50DF12C7EF11F01BC055
:10230400D9FF1CC0DAFFDF30E832E832070B1E6E5B
:10231400010E1F6E1E2A91EF11F0D8901F361E2E4B
:102324008FEF11F01F50FF0A206E1BC0D9FF1CC095
:10233400DAFFDF50070B216E2150020DBF0EF3248C
:10234400D96E000EF420DA6EDECF22F0DDCF23F05A
:1023540022C0D9FF23C0DAFF2050DF16C7EF11F0E7
:102364001D501E6E1F6A1F50000AD8B4BCEF11F036
:102374004FEF11F01E50000AD8B481EF11F0010A9A
:10238400D8B453EF11F04FEF11F02450120045C0B0
:10239400D9FF46C0DAFFDECFF6FFDDCFF7FFF86ADC
:1023A4000800F550250AD8A4DAEF11F0DCEF11F09B
:1023B40049EF12F045C0D9FF46C0DAFFDE2A000E0D
:1023C400DD22000E0001966F000E956F95C053F04C
:1023D4009769986945C0D9FF46C0DAFFDECFE8F0B7
:1023E400DDCFE9F0E8C0F6FFE9C0F7FFF86A0800BE
:1023F400F550640AD8B401EF12F003EF12F012EFB3
:1024040012F0E8C0F6FFE9C0F7FFF86A0800F550DB
:10241400690AD8A410EF12F012EF12F040EF12F094
:1024240047C0D9FF48C0DAFFDFCF49F0020EDE26ED
:10243400DFCF4AF0000EDD2249C0D9FF4AC0DAFFDF
:10244400DECFE4F0DDCFE5F0010EE825496E000EA5
:10245400E9214A6E45C0D9FF46C0DAFF49C0DEFF14
:102464004AC0DDFF43C036F044C037F0E4C038F062
:10247400E5C039F025EC0EF05EEF12F045C0D9FF4F
:1024840046C0DAFFDE2A000EDD225EEF12F045C000
:10249400D9FF46C0DAFFDECFF6FFDDCFF7FFF86ADB
:1024A4000800F5501B6E1C6A43C01DF044C01EF0AA
:1024B4007AEC15F040EF12F012000001F735F83510
:1024C400FE6FFE51D8A469EF12F06BEF12F075EFB6
:1024D40012F0000EF56F000EF66F000EF76F000E8F
:1024E400F86FE2EF12F0F5C0F9F0F6C0FAF0F7C0B9
:1024F400FBF0F8C0FCF0200E85EF12F0D890FC330E
:10250400FB33FA33F933E82E80EF12F0F951FD6F03
:10251400F78FFF0EF517FF0EF617FF0EF717000ED5
:10252400F817960EFE5FFEBF9CEF12F09AEF12F0C2
:10253400B2EF12F0FE51800A970FD8B0A4EF12F058
:10254400A6EF12F0A8EF12F06BEF12F0D890F83368
:10255400F733F633F533FE3FA8EF12F0CAEF12F06B
:102564001F0EFE65B8EF12F0BAEF12F0C2EF12F0D0
:102574006BEF12F0D890F537F637F737F837FE07D8
:10258400FE51D8A4C8EF12F0CAEF12F0BCEF12F05B
:10259400FD51D8B4D0EF12F0D2EF12F0DAEF12F00E
:1025A400F81FF71FF61FF56D000EF623F723F82327
:1025B400F5C0F5F0F6C0F6F0F7C0F7F0F8C0F8F0A3
:1025C4001200010E226E1F502010D8A4ECEF12F05E
:1025D400EEEF12F0F2EF12F0000E226E63EF13F042
:1025E400C29020EE03F01F50D9262050DA22DF508B
:1025F400216E214621462146C0502118C70B2118BF
:10260400C06E20EE04F01F50D9262050DA22DF508D
:10261400216EC0502118F80B2118C06E20EE05F071
:102624001F50D9262050DA22DF50216E2146214640
:10263400C2502118C30B2118C26E20EE05F01F50A2
:10264400D9262050DA22DF5040EC14F01FC0D9FF05
:1026540020C0DAFFDECF51F0DDCF52F09D8C9E9C7E
:10266400D08E20EE02F01F50D9262050DA22DE044C
:10267400D8A43FEF13F041EF13F045EF13F09F8C14
:10268400F28E56EF13F020EE02F01F50D9262050A0
:10269400DA22DF50D8A451EF13F053EF13F056EFC2
:1026A40013F09F9CF28EF28C1FC01BF020C01CF014
:1026B40004EC19F01FC01BF020C01CF0AAEC18F0A9
:1026C400C28022501200000E326E2D502E10D8A45B
:1026D4006EEF13F070EF13F074EF13F0000E316E21
:1026E400D1EF13F02DC025F02EC026F042EC17F0E8
:1026F400316E010E2D24256E000E2E20266E42EC26
:1027040017F0316E000E326E32502D242F6E000EF3
:102714002E20306E020E2F24256E000E3020266EE1
:1027240042EC17F0322A030E32649BEF13F09DEF54
:1027340013F086EF13F02DC029F02EC02AF0330ECB
:102744002B6E41EC18F0320EE82EFED72DC029F086
:102754002EC02AF0320E2B6E41EC18F02DC029F059
:102764002EC02AF0280E2B6E41EC18F02DC029F053
:102774002EC02AF0010E2B6E41EC18F02DC029F06A
:102784002EC02AF0060E2B6E41EC18F02DC029F055
:102794002EC02AF00C0E2B6E41EC18F0316E315025
:1027A4001200010E136E0C500D10D8B4DCEF13F0B0
:1027B400DEEF13F0E7EF13F00E500F10D8A4E5EF9F
:1027C40013F0E7EF13F01BEF14F0000E136E3EEF5F
:1027D40014F0C350C4CF10F0116A10C011F0106A85
:1027E4001026000E1122060E126E11341132103210
:1027F400122EF7EF13F00EC0D9FF0FC0DAFF10C08E
:10280400DEFF11C0DDFF3EEF14F0C350C4CF10F063
:10281400116A10C011F0106A1026000E11220EC0A9
:10282400D9FF0FC0DAFF10C0DEFF11C0DDFF3EEF9D
:1028340014F020EE06F00C50D9260D50DA22DFB247
:1028440026EF14F029EF14F0010E2AEF14F0000E15
:10285400106E116A1150000AD8B433EF14F007EF68
:1028640014F01050000AD8B4EBEF13F0010AD8B4F6
:1028740007EF14F007EF14F0135012001D6E6AEF07
:1028840014F09280ABEF14F09282ABEF14F09284C8
:10289400ABEF14F09286ABEF14F0928AABEF14F026
:1028A4009680ABEF14F09682ABEF14F09684ABEF06
:1028B40014F09384ABEF14F09386ABEF14F093828F
:1028C400ABEF14F09388ABEF14F09380ABEF14F0FC
:1028D4001D501B6E1C6A1C50000AD8B474EF14F00F
:1028E400ABEF14F01B50000AD8B443EF14F0010A04
:1028F400D8B446EF14F0030AD8B449EF14F0010A2F
:10290400D8B44CEF14F0070AD8B44FEF14F0010A0E
:10291400D8B452EF14F0030AD8B455EF14F0010AF6
:10292400D8B458EF14F00F0AD8B45BEF14F0010ACE
:10293400D8B45EEF14F0030AD8B461EF14F0010ABE
:10294400D8B464EF14F0070AD8B467EF14F0ABEF0F
:1029540014F0120001500210D8B4B3EF14F0B5EF24
:1029640014F0BEEF14F003500410D8A4BCEF14F01C
:10297400BEEF14F0F0EF14F013EF15F0C350C4CF12
:1029840005F0066A05C006F0056A0526000E062253
:10299400060E076E063406320532072ECCEF14F00D
:1029A40003C0D9FF04C0DAFF05C0DEFF06C0DDFFA7
:1029B40013EF15F0C350C4CF05F0066A05C006F046
:1029C400056A0526000E062203C0D9FF04C0DAFFFB
:1029D40005C0DEFF06C0DDFF13EF15F020EE06F0A4
:1029E4000150D9260250DA22DFB2FBEF14F0FEEFD9
:1029F40014F0010EFFEF14F0000E056E066A065087
:102A0400000AD8B408EF15F0DCEF14F00550000A02
:102A1400D8B4C0EF14F0010AD8B4DCEF14F0DCEF42
:102A240014F01200010E0101346F21EE2EF0050E98
:102A3400DE6AE806FDE2000E356F0001FC51FD116F
:102A4400D8A427EF15F029EF15F02EEF15F0000E9E
:102A54000101346F77EF15F0FCC01BF0FDC01CF0D2
:102A6400000E1E6E200E1D6E000E206E060E1F6ED2
:102A7400B8EC0FF02E0E0001F26F010EF36F2F0E63
:102A8400F46F100EF56FFAC0F6F0FBC0F7F0D8EC57
:102A940018F060EF15F02E0E3525D96EDA6A010EA6
:102AA400DA2235510001FC25E16E0101000E00011E
:102AB400FD21E26EDFCFE7FF0101352B2E0E010170
:102AC4003525D96EDA6A010EDA22DF50D8A46DEF0B
:102AD40015F06FEF15F04DEF15F0000120EE05F045
:102AE400FC51D926FD51DA22DF6A0101345112006A
:102AF4001D501E10D8B481EF15F083EF15F08CEF44
:102B040015F01D501E10D8A48AEF15F08CEF15F0A7
:102B140091EF15F01B5069EC1BF0DEEF15F020EE81
:102B24000AF01D50D9261E50DA22DE50DE10D8B429
:102B34009EEF15F0A0EF15F0BBEF15F020EE0AF0B4
:102B44001D50D9261E50DA2210EE03F01D50E12646
:102B54001E50E222DE50E65CE650800A236EDE5010
:102B6400800A2358D8B0B9EF15F0BBEF15F0DEEFAB
:102B740015F020EE03F01D50D9261E50DA22DECFC8
:102B84001FF0DDCF20F01DC0D9FF1EC0DAFFDECF5D
:102B940021F0DDCF22F01F502124D96E20502220B5
:102BA400DA6E1BC0DFFF20EE03F01D50D9261E5045
:102BB400DA22DE2A000EDD221200000E206E1EBE76
:102BC400E8EF15F0E6EF15F0EEEF15F01D6C1E1EA4
:102BD400D8B01E2A010E206E1CBEF5EF15F0F3EFDF
:102BE40015F0FBEF15F01B6C1C1ED8B01C2A010E4F
:102BF400201A000E226E000E216E1D501E10D8B435
:102C040006EF16F008EF16F030EF16F0010E1F6E07
:102C140010EF16F0D8901D361E361F2A1EAE15EF83
:102C240016F017EF16F00CEF16F0D8902136223676
:102C34001D501B5C1E501C58D8A023EF16F025EF26
:102C440016F02AEF16F01D501B5E1E501C5A2180F0
:102C5400D8901E321D321F2E17EF16F02050D8B414
:102C640036EF16F038EF16F03CEF16F0216C221E0A
:102C7400D8B0222A21C01BF022C01CF012002D5013
:102C84002E10D8A448EF16F04AEF16F04CEF16F0C9
:102C940098EF16F030067BEF16F02DC029F02EC009
:102CA4002AF03050800F2B6E41EC18F098EF16F09C
:102CB4002DC029F02EC02AF03050C00F2B6E41ECED
:102CC40018F098EF16F02DC029F02EC02AF03050DD
:102CD400940F2B6E41EC18F098EF16F02DC029F0EC
:102CE4002EC02AF03050D40F2B6E41EC18F098EF20
:102CF40016F02F50316E326A3250000AD8B485EF84
:102D040016F04AEF16F03150010AD8B44FEF16F01E
:102D1400030AD8B45AEF16F0010AD8B465EF16F0D6
:102D2400070AD8B470EF16F04AEF16F01200000E3E
:102D3400206E1CBEA2EF16F0A0EF16F0A8EF16F05E
:102D44001B6C1C1ED8B01C2A010E206E1EBEAFEFD9
:102D540016F0ADEF16F0B3EF16F01D6C1E1ED8B0D2
:102D64001E2A1D501E10D8B4BAEF16F0BCEF16F090
:102D7400E0EF16F0010E1F6EC4EF16F0D8901D366A
:102D84001E361F2A1EAEC9EF16F0CBEF16F0C0EFA9
:102D940016F01D501B5C1E501C58D8A0D4EF16F022
:102DA400D6EF16F0DAEF16F01D501B5E1E501C5ABB
:102DB400D8901E321D321F2ECBEF16F02050D8B4FF
:102DC400E6EF16F0E8EF16F0ECEF16F01B6C1C1EA5
:102DD400D8B01C2A1BC01BF01CC01CF01200010E32
:102DE400396E33503410D8A4FAEF16F0FCEF16F015
:102DF40000EF17F0000E396E40EF17F033C02DF0DE
:102E040034C02EF035C02FF036C030F041EC16F04F
:102E140027EF17F033C029F034C02AF037C0F6FF8B
:102E240038C0F7FF000EF86E0F0EF76403D00800E9
:102E3400F55005D0F6CFE9FFF7CFEAFFEF502B6E40
:102E440008EC18F0396E374A382A37C0F6FF38C014
:102E5400F7FF000EF86E0F0EF76403D00800F5506C
:102E640005D0F6CFE9FFF7CFEAFFEF500009D8A469
:102E74003EEF17F040EF17F00CEF17F03950120047
:102E840025502610D8B449EF17F04BEF17F06BEF2D
:102E940017F025C0D9FF26C0DAFFDF30E832E83268
:102EA400070B276E080E27605AEF17F05CEF17F038
:102EB4006BEF17F025C0D9FF26C0DAFFDF50070BF0
:102EC400276E040E276469EF17F06BEF17F06FEFAE
:102ED40017F0000E286E85EF17F025C01BF026C0F2
:102EE4001CF073EC10F0286E25C01BF026C01CF0FB
:102EF40025C0D9FF26C0DAFF000EDFBE010E1D6E0D
:102F040024EC11F0286E2850120025502610D8A465
:102F14008EEF17F090EF17F094EF17F0000E286E75
:102F2400C9EF17F0020E25241B6E000E26201C6E1E
:102F34002750010B1D6E24EC11F0286E030E25247E
:102F44001B6E000E26201C6ED8902730010B1D6EC0
:102F540024EC11F0286E040E25241B6E000E26208E
:102F64001C6E2740E8423F0B010B1D6E24EC11F050
:102F7400286E050E25241B6E000E26201C6E273895
:102F8400E8461F0B010B1D6E24EC11F0286E28502F
:102F9400120030BED0EF17F0D2EF17F0D8EF17F0D1
:102FA4002FC034F030C035F0DCEF17F0000E356E72
:102FB400000E346E000E336E000E326EEEEF17F01C
:102FC400000E1C6E200E1B6E2BC01DF02CC01EF0BC
:102FD4007AEC15F0324A332A3450325C3350800A8A
:102FE400316E3550800A3158D8A0FBEF17F0FDEF51
:102FF40017F0E2EF17F02DC024F02EC025F02BC0FF
:1030040026F02CC027F03BEC1AF0120029502A10AD
:10301400D8A40FEF18F011EF18F015EF18F0000E08
:103024002C6E3FEF18F029C01BF02AC01CF0010ED3
:103034001D6E24EC11F02C6E29C025F02AC026F058
:103044002B380F0B276E87EC17F02C6E29C025F058
:103054002AC026F0ABEC19F02C6E29C025F02AC04A
:1030640026F02BC027F087EC17F02C6E29C025F032
:103074002AC026F0ABEC19F02C6E2C50120029500B
:103084002A10D8A448EF18F04AEF18F04EEF18F0C1
:10309400000E2C6E78EF18F029C01BF02AC01CF02B
:1030A400000E1D6E24EC11F02C6E29C025F02AC0F0
:1030B40026F02B380F0B276E87EC17F02C6E29C0E7
:1030C40025F02AC026F0ABEC19F02C6E29C025F0AF
:1030D4002AC026F02BC027F087EC17F02C6E29C0ED
:1030E40025F02AC026F0ABEC19F02C6E2C501200FF
:1030F40065A27FEF18F030EF19F05404D8A485EFDF
:1031040018F087EF18F095EF18F0000E546ED30EF8
:103114000C6E000E0D6E600E0E6E000E0F6ED3EC74
:1031240013F0A9EF18F05450D8A49BEF18F09DEFBA
:1031340018F0A9EF18F0010E546ED30E0C6E000EA9
:103144000D6E620E0E6E000E0F6ED3EC13F01200B5
:10315400B4EF18F0300EC112D7EF18F0CF0EC1162D
:10316400D7EF18F020EE06F01B50D9261C50DA22B7
:10317400DFB0BFEF18F0C2EF18F0010EC3EF18F084
:10318400000E1D6E1E6A1E50000AD8B4CCEF18F053
:10319400B0EF18F01D50000AD8B4B0EF18F0010ACF
:1031A400D8B4ACEF18F0B0EF18F01200F60E01012D
:1031B400206F000E216FF2C022F1F3C023F1000E44
:1031C400266F000E256F000E2D6F000E2C6F220E41
:1031D4000001EA6F010EEB6FF4C0ECF0F5C0EDF006
:1031E400200EEE6F010EEF6F5BEC19F0010125511B
:1031F4000001F225D96E010126510001F321DA6E96
:10320400DF6A12000CEF19F0C09E2FEF19F0C08E88
:103214002FEF19F020EE06F01B50D9261C50DA22AD
:10322400DFB217EF19F01AEF19F0010E1BEF19F0C6
:10323400000E1D6E1E6A1E50000AD8B424EF19F049
:1032440009EF19F01D50000AD8B406EF19F0010A6D
:10325400D8B409EF19F009EF19F012005404D8A4F6
:1032640036EF19F038EF19F046EF19F0000E546EEE
:10327400D30E016E000E026E600E036E000E046E1D
:10328400ACEC14F05AEF19F05450D8A44CEF19F0E8
:103294004EEF19F05AEF19F0010E546ED30E016E71
:1032A400000E026E620E036E000E046EACEC14F09F
:1032B4001200ECC0F0F0EDC0F1F06FEF19F0EAC0CD
:1032C40043F0EBC044F0F00E456E000E466EEEC0C7
:1032D40047F0EFC048F0C9EC11F0F0C0F6FFF1C0C0
:1032E400F7FFF86A0800F5500009D8A47CEF19F03C
:1032F4007EEF19F061EF19F0000E0001EB6F000E84
:10330400EA6F1200B00EF66E350EF76E000EF86E10
:1033140000EEB5F010EE2FF00900F5CFEEFFE5500A
:10332400E150FAE101EE00F0200EEE6AE806FDE15C
:1033340000EE80F0350EEE6AE806FDE100EE4BF09B
:10334400190EEE6AE806FDE1659065920001FDEF55
:103354000BF025502610D8A4B2EF19F0B4EF19F0F1
:10336400B8EF19F0000E276ED0EF19F0010E2524E6
:103374001B6E000E26201C6E010E1D6E24EC11F037
:1033840000D000D000F0010E25241B6E000E262074
:103394001C6E000E1D6E24EC11F0276E27501200D7
:1033A40025502610D8A4D9EF19F0DBEF19F0DFEF80
:1033B40019F0000E276EF3EF19F025C01BF026C09C
:1033C4001CF0000E1D6E24EC11F0276E010E252456
:1033D4001B6E000E26201C6E000E1D6E24EC11F0D8
:1033E400276E2750120025502610D8A4FCEF19F0A0
:1033F400FEEF19F002EF1AF0000E276E16EF1AF026
:1034040025C01BF026C01CF0010E1D6E24EC11F02B
:10341400276E010E25241B6E000E26201C6E000E46
:103424001D6E24EC11F0276E275012002550261033
:10343400D8A41FEF1AF021EF1AF025EF1AF0000EAE
:10344400276E39EF1AF025C01BF026C01CF0000EC1
:103454001D6E24EC11F0276E010E25241B6E000E48
:1034640026201C6E010E1D6E24EC11F0276E2750D1
:103474001200000E2A6E000E296E4CEF1AF028C0BE
:103484001BF01C6A26C01DF027C01EF07AEC15F054
:10349400294A2A2A29502424D96E2A502520DA6E52
:1034A400DF50286E2850D8A45AEF1AF05CEF1AF0B7
:1034B40041EF1AF0120022BE6AEF1AF0225006E120
:1034C4002104D8B068EF1AF06AEF1AF078EF1AF016
:1034D40021C023F022C024F0231E241E234A242AC0
:1034E40023C021F024C022F07CEF1AF021C021F087
:1034F40022C022F0120029502A10D8A484EF1AF016
:1035040086EF1AF08AEF1AF0000E2B6E9AEF1AF07B
:1035140029C025F02AC026F042EC17F02B6E010ECC
:103524002924256E000E2A20266E42EC17F02B6EFD
:103534002B50120023502410D8A4A3EF1AF0A5EFA7
:103544001AF0A9EF1AF0000E266EB9EF1AF023C094
:103554001EF024C01FF025C020F0BBEC1AF0266E2C
:1035640023C01BF024C01CF034EC1BF0261626509C
:103574001200010E226E1E501F10D8A4C4EF1AF0C0
:10358400C6EF1AF0CAEF1AF0000E226ED6EF1AF048
:1035940020C021F021462146C2502118C30B211816
:1035A400C26E205040EC14F022501200800F810FA4
:1035B400820F830F840F890F8A0F8B0F8C0F8D0F4F
:1035C400920F930F940F950F960FF430000505009A
:0B35D40002020A121A222A131B030B2A
:1035E0009E9C51505210D8B4F8EF1AF0FAEF1AF02E
:1035F00006EF1BF002D806EF1BF00500FA6E5150E3
:10360000FD6E5250FE6EFF6AFA50120012009E9C30
:1036100051505210D8B40FEF1BF011EF1BF01DEFFB
:103620001BF002D81DEF1BF00500FA6E5150FD6E25
:103630005250FE6EFF6AFA5012001200DA0E2D6E22
:10364000000E2E6E65EC13F0336EE20E296E000E46
:103650002A6E7DEC1AF03316E00E296E000E2A6EEB
:103660007DEC1AF033161200010E1D6E1B501C105B
:10367000D8A43DEF1BF03FEF1BF043EF1BF0000E13
:103680001D6E44EF1BF0C2821D5012001EEC1BF099
:10369000D30E1F6E000E206EE3EC12F01200F290BB
:1036A0001200F2901200F2901200F2901200F092CA
:1036B0001200F0901200F2901200F2901200F290BC
:1036C0001200F2901200F0921200F0901200F292AA
:0436D00012001200D2
:020000040030CA
:0E000000FF02091EFF8181FF0FC00FE00F40BD
:00000001FF
