:04000000F8EF00F025
:06000800608211ED08F01A
:100018006080D8CF4FF0E8CF50F0E0CF51F0FACF62
:1000280052F0FBCF53F0D9CF54F0DACF55F0F3CFDD
:1000380056F0F4CF57F0F0BC24EF00F026EF00F0B4
:100048002FEF00F0F0A02BEF00F02DEF00F02FEFD6
:1000580000F01BEC10F0F0BE34EF00F036EF00F0CB
:100068003FEF00F0F0A23BEF00F03DEF00F03FEF74
:1000780000F019EC10F0F1B044EF00F046EF00F09A
:100088005CEF00F0F2A04BEF00F04DEF00F05CEFFA
:1000980000F081380F0B010B1C18D8B456EF00F094
:1000A80058EF00F05CEF00F0010E1C1A17EC10F08E
:1000B800F1B061EF00F063EF00F07AEF00F0F2A02A
:1000C80068EF00F06AEF00F07AEF00F08138E8425C
:1000D800070B010B1B18D8B474EF00F076EF00F093
:1000E8007AEF00F0010E1B1A15EC10F0F1B07FEF5B
:1000F80000F081EF00F098EF00F0F2A086EF00F03A
:1001080088EF00F098EF00F08144E846030B010BFC
:100118001A18D8B492EF00F094EF00F098EF00F0BE
:10012800010E1A1A13EC10F0F1B09DEF00F09FEFDA
:1001380000F0B4EF00F0F2A0A4EF00F0A6EF00F09A
:10014800B4EF00F08144010B1918D8B4AEEF00F0F9
:10015800B0EF00F0B4EF00F0010E191A11EC10F036
:100168009FBCB9EF00F0BBEF00F0C4EF00F09EAC0D
:10017800C0EF00F0C2EF00F0C4EF00F01DEC10F08B
:10018800F1B4C9EF00F0CBEF00F0D4EF00F0F2A427
:10019800D0EF00F0D2EF00F0D4EF00F0FCEC0FF05D
:1001A8009FB0D9EF00F0DBEF00F0E4EF00F09EA085
:1001B800E0EF00F0E2EF00F0E4EF00F07BEC0FF08E
:1001C80057C0F4FF56C0F3FF55C0DAFF54C0D9FF3B
:1001D80053C0FBFF52C0FAFF51C0E0FF50C0E8FF18
:0C01E8004FC0D8FF609010009CEF0EF09C
:10100000003738392F3435362A3132332D23303DED
:101010002B436F756E746572203D2020002569009A
:0110200000CF
:101022000600FACF3DF0FBCF3EF0D9CF3FF0DACF4A
:1010320040F0F3CF41F0F4CF42F0F2A823EF08F0F2
:1010420025EF08F02EEF08F0F2A22AEF08F02CEFBD
:1010520008F02EEF08F02DEC10F0F0AC33EF08F0B2
:1010620035EF08F03EEF08F0F0A03AEF08F03CEF61
:1010720008F03EEF08F029EC10F0F0AE43EF08F074
:1010820045EF08F04EEF08F0F0A24AEF08F04CEFFF
:1010920008F04EEF08F027EC10F0F1A053EF08F043
:1010A20055EF08F06BEF08F0F2A05AEF08F05CEF92
:1010B20008F06BEF08F081380F0B010B1C18D8B445
:1010C20065EF08F067EF08F06BEF08F0010E1C1AED
:1010D20025EC10F0F1A070EF08F072EF08F089EF44
:1010E20008F0F2A077EF08F079EF08F089EF08F046
:1010F2008138E842070B010B1B18D8B483EF08F0C4
:1011020085EF08F089EF08F0010E1B1A23EC10F0AE
:10111200F1A08EEF08F090EF08F0A7EF08F0F2A030
:1011220095EF08F097EF08F0A7EF08F08144E84642
:10113200030B010B1A18D8B4A1EF08F0A3EF08F0C3
:10114200A7EF08F0010E1A1A21EC10F0F1A0ACEF93
:1011520008F0AEEF08F0C3EF08F0F2A0B3EF08F02A
:10116200B5EF08F0C3EF08F08144010B1918D8B4A9
:10117200BDEF08F0BFEF08F0C3EF08F0010E191A37
:101182001FEC10F09FACC8EF08F0CAEF08F0D3EFE5
:1011920008F09EACCFEF08F0D1EF08F0D3EF08F0E3
:1011A2002BEC10F0F1A4D8EF08F0DAEF08F0E3EF3F
:1011B20008F0F2A4DFEF08F0E1EF08F0E3EF08F047
:1011C20002EC10F09FA0E8EF08F0EAEF08F0F3EF6E
:1011D20008F09EA0EFEF08F0F1EF08F0F3EF08F04F
:1011E20096EC0FF042C0F4FF41C0F3FF40C0DAFFBB
:1011F2003FC0D9FF3EC0FBFF3DC0FAFF6092110025
:10120200010E0001A66F9E519F11D8B40BEF09F099
:101212000DEF09F02DEF09F09EC0D9FF9FC0DAFF54
:10122200DF30E832E832070BA06F080EA0611CEF36
:1012320009F01EEF09F02DEF09F09EC0D9FF9FC003
:10124200DAFFDF50070BA06F040EA0652BEF09F049
:101252002DEF09F092EF09F0000EA66FB3EF09F03F
:101262009EC0D9FF9FC0DAFFDF30E832E832070BB9
:10127200A06F010EA16FA02B41EF09F0D890A1370A
:10128200A02F3FEF09F00001A151FF0AA26F9EC0FB
:10129200D9FF9FC0DAFFDF50070BA36FA351020DE6
:1012A200940EF324D96E000EF420DA6EDECFA4F091
:1012B200DDCFA5F0A4C0D9FFA5C0DAFFA251DF1689
:1012C200B3EF09F09EC0D9FF9FC0DAFFDF30E832EA
:1012D200E832070BA06F010EA16FA02B73EF09F08C
:1012E200D890A137A02F71EF09F09EC0D9FF9FC0FF
:1012F200DAFFDF50070B0001A26FA251020D940E1C
:10130200F324D96E000EF420DA6EDECFA3F0DDCF27
:10131200A4F0A3C0D9FFA4C0DAFFA151DF12B3EF3A
:1013220009F09EC0D9FF9FC0DAFFDFBC9BEF09F036
:101332009EEF09F0010E9FEF09F0000EA06FA16B66
:10134200A151000AD8B4A8EF09F02DEF09F0A0517D
:10135200000AD8B431EF09F0010AD8B463EF09F0FA
:101362002DEF09F0A6511200010E0001A76F9E5148
:101372009F11D8B4BFEF09F0C1EF09F0E1EF09F016
:101382009EC0D9FF9FC0DAFFDF30E832E832070B98
:10139200A16F080EA161D0EF09F0D2EF09F0E1EFE1
:1013A20009F09EC0D9FF9FC0DAFFDF50070BA16F83
:1013B200040EA165DFEF09F0E1EF09F046EF0AF054
:1013C200000EA76F5BEF0AF09EC0D9FF9FC0DAFF45
:1013D200DF30E832E832070BA16F010EA26FA12BBA
:1013E200F5EF09F0D890A237A12FF3EF09F09EC0D4
:1013F200D9FF9FC0DAFFDF50070B0001A36FA35193
:10140200020D8A0EF324D96E000EF420DA6EDECFBE
:10141200A4F0DDCFA5F0A4C0D9FFA5C0DAFFA25188
:10142200DF125BEF0AF09EC0D9FF9FC0DAFFDF3008
:10143200E832E832070BA16F010EA26FA12B24EF55
:101442000AF0D890A237A12F22EF0AF00001A25190
:10145200FF0AA36F9EC0D9FF9FC0DAFFDF50070BC0
:10146200A46FA451020D8A0EF324D96E000EF4204B
:10147200DA6EDECFA5F0DDCFA6F0A5C0D9FFA6C0FB
:10148200DAFFA351DF165BEF0AF0A051A16FA26B46
:10149200A251000AD8B450EF0AF0E1EF09F0A151CD
:1014A200000AD8B414EF0AF0010AD8B4E5EF09F043
:1014B200E1EF09F0A7511200010E0001A46FA05143
:1014C200A111D8A467EF0AF069EF0AF06DEF0AF0F4
:1014D200000EA46FD5EF0AF0CD9020EE05F0A051DA
:1014E200D926A151DA22DF50030BA26FA23BCD50C5
:1014F200A219CF0BA219CD6EA0C09EF0A1C09FF081
:1015020033EC0DF0000120EE03F0A051D926A151D9
:10151200DA22DECFA2F0DDCFA3F0A3C0A2F0A36B4C
:10152200A251CF6E20EE03F0A051D926A151DA22AA
:10153200DF50CE6E20EE03F0A051D926A151DA225F
:10154200DECF01F0DDCF02F09D809E90A0C0D9FFDA
:10155200A1C0DAFFDECF03F0DDCF04F0D08E20EEA3
:1015620002F0A051D926A151DA22DE04D8A4BCEFA0
:101572000AF0BEEF0AF0C2EF0AF09F80F28ED3EFBC
:101582000AF020EE02F0A051D926A151DA22DF5052
:10159200D8A4CEEF0AF0D0EF0AF0D3EF0AF09F9072
:1015A200F28EF28CCD8ECD80A4511200000E00017D
:1015B200B46FB051B111D8A4E1EF0AF0E3EF0AF031
:1015C200E7EF0AF0000EB56F4DEF0BF0B0C0A8F0D8
:1015D200B1C0A9F0ABEC0CF00001B56F010EB02563
:1015E200A86F000EB121A96FABEC0CF00001B56F32
:1015F200000EB46FB451B025B26F000EB121B36FBB
:10160200020EB225A86F000EB321A96FABEC0CF04D
:101612000001B42B030EB46511EF0BF013EF0BF0C6
:10162200FBEF0AF0B0C0ACF0B1C0ADF0330EAE6F5C
:10163200B2EC0DF0640EE82EFED7B0C0ACF0B1C033
:10164200ADF0320E0001AE6FB2EC0DF0B0C0ACF0F6
:10165200B1C0ADF0280E0001AE6FB2EC0DF0B0C01B
:10166200ACF0B1C0ADF0010E0001AE6FB2EC0DF006
:10167200B0C0ACF0B1C0ADF0060E0001AE6FB2EC7E
:101682000DF0B0C0ACF0B1C0ADF00C0E0001AE6F09
:10169200B2EC0DF00001B56FB5511200010E4A6EA9
:1016A20043504410D8B458EF0BF05AEF0BF07AEFD6
:1016B2000BF043C0D9FF44C0DAFFDF30E832E83232
:1016C200070B456E080E456069EF0BF06BEF0BF0F0
:1016D2007AEF0BF043C0D9FF44C0DAFFDF50070BAB
:1016E200456E040E456478EF0BF07AEF0BF07EEF57
:1016F2000BF0000E4A6EAAEF0BF043C0D9FF44C0B4
:10170200DAFFDF30E832E832070B456E010E466E33
:10171200452A8EEF0BF0D8904636452E8CEF0BF013
:1017220043C0D9FF44C0DAFFDF50070B476E475072
:10173200020D8A0EF324D96E000EF420DA6EDECF8B
:1017420048F0DDCF49F048C0D9FF49C0DAFF465022
:10175200DF1A4A501200010E386E31503210D8B4DE
:10176200B5EF0BF0B7EF0BF0D7EF0BF031C0D9FFAD
:1017720032C0DAFFDF30E832E832070B336E080E90
:101782003360C6EF0BF0C8EF0BF0D7EF0BF031C0B0
:10179200D9FF32C0DAFFDF50070B336E040E336419
:1017A200D5EF0BF0D7EF0BF0DBEF0BF0000E386E3E
:1017B20007EF0CF031C0D9FF32C0DAFFDF30E83278
:1017C200E832070B336E010E346E332AEBEF0BF067
:1017D200D8903436332EE9EF0BF031C0D9FF32C046
:1017E200DAFFDF50070B356E3550020D8A0EF324F7
:1017F200D96E000EF420DA6EDECF36F0DDCF37F090
:1018020036C0D9FF37C0DAFF3450DF1A3850120021
:101812000001B051B111D8A411EF0CF013EF0CF08C
:1018220015EF0CF061EF0CF0B30744EF0CF0B0C011
:10183200ACF0B1C0ADF0B351800FAE6FB2EC0DF0B1
:1018420061EF0CF0B0C0ACF0B1C0ADF0B351C00F5D
:10185200AE6FB2EC0DF061EF0CF0B0C0ACF0B1C005
:10186200ADF0B351940FAE6FB2EC0DF061EF0CF02E
:10187200B0C0ACF0B1C0ADF0B351D40FAE6FB2ECAA
:101882000DF061EF0CF0B251B46FB56BB551000AB7
:10189200D8B44EEF0CF013EF0CF0B451010AD8B4E7
:1018A20018EF0CF0030AD8B423EF0CF0010AD8B4F5
:1018B2002EEF0CF0070AD8B439EF0CF013EF0CF04E
:1018C20012000001A851A911D8A46AEF0CF06CEF24
:1018D2000CF070EF0CF0000EAB6FA9EF0CF0020EE3
:1018E200A8259E6F000EA9219F6FAA51010BA06F20
:1018F200B5EC09F00001AB6F030EA8259E6F000E38
:10190200A9219F6FD890AA31010BA06FB5EC09F005
:101912000001AB6F040EA8259E6F000EA9219F6FD8
:10192200AA41E8423F0B010BA06FB5EC09F00001A0
:10193200AB6F050EA8259E6F000EA9219F6FAA39D5
:10194200E8461F0B010BA06FB5EC09F00001AB6F6D
:10195200AB5112000001A851A911D8B4B3EF0CF099
:10196200B5EF0CF0D5EF0CF0A8C0D9FFA9C0DAFF93
:10197200DF30E832E832070BAA6F080EAA61C4EF23
:101982000CF0C6EF0CF0D5EF0CF0A8C0D9FFA9C03F
:10199200DAFFDF50070BAA6F040EAA65D3EF0CF033
:1019A200D5EF0CF0D9EF0CF0000EAB6FF1EF0CF0AD
:1019B200A8C09EF0A9C09FF001EC09F00001AB6F36
:1019C200A8C09EF0A9C09FF0A8C0D9FFA9C0DAFFA5
:1019D200000EDFBE010EA06FB5EC09F00001AB6F87
:1019E200AB51120023C0B0F0ACC0D9FFADC0DAFFDA
:1019F200DF500F0B0001AE6FB051AE19F80BAE19EC
:101A0200B06FACC0D9FFADC0DAFFDF38070BAE6FE5
:101A1200AE47AE47AE47B051AE19C70BAE19B06F65
:101A2200B09DACC0D9FFADC0DAFFDFAE02D0B08F3F
:101A320002D00001B09FAC51AD11D8A423EF0DF03C
:101A420025EF0DF029EF0DF0000EAF6F31EF0DF025
:101A5200B00EA86F000EA96FABEC0CF00001AF6FD7
:101A6200AF511200000120EE05F09E51D9269F5180
:101A7200DA22DFB43FEF0DF041EF0DF044EF0DF04D
:101A8200CD9272EF0DF020EE05F09E51D9269F51B6
:101A9200DA22DFA44FEF0DF051EF0DF072EF0DF0EF
:101AA200CD8220EE05F09E51D9269F51DA22DFB673
:101AB2005DEF0DF05FEF0DF062EF0DF0CD9472EF80
:101AC2000DF020EE05F09E51D9269F51DA22DFA6B5
:101AD2006DEF0DF06FEF0DF072EF0DF0CD8472EF40
:101AE2000DF012000001AC51AD11D8A47BEF0DF046
:101AF2007DEF0DF081EF0DF0000EAF6FB0EF0DF046
:101B0200ACC09EF0ADC09FF0010EA06FB5EC09F025
:101B12000001AF6FACC0A8F0ADC0A9F0AE390F0B99
:101B2200AA6F62EC0CF00001AF6FACC0A8F0ADC0C0
:101B3200A9F02BEC0FF00001AF6FACC0A8F0ADC064
:101B4200A9F0AEC0AAF062EC0CF00001AF6FACC01D
:101B5200A8F0ADC0A9F02BEC0FF00001AF6FAF51B0
:101B620012000001AC51AD11D8A4BAEF0DF0BCEFD8
:101B72000DF0C0EF0DF0000EAF6FEFEF0DF0ACC047
:101B82009EF0ADC09FF0000EA06FB5EC09F0000111
:101B9200AF6FACC0A8F0ADC0A9F0AE390F0BAA6F01
:101BA20062EC0CF00001AF6FACC0A8F0ADC0A9F0C0
:101BB2002BEC0FF00001AF6FACC0A8F0ADC0A9F0E4
:101BC200AEC0AAF062EC0CF00001AF6FACC0A8F09E
:101BD200ADC0A9F02BEC0FF00001AF6FAF511200B6
:101BE2000001B651B711D8A4F9EF0DF0FBEF0DF0DB
:101BF200FDEF0DF029EF0EF0B6C0B0F0B7C0B1F0B6
:101C0200B8C0B2F0B9C0B3F009EC0CF01AEF0EF0A4
:101C1200B6C0ACF0B7C0ADF0BAC0F6FFBBC0F7FFBC
:101C2200F86A0800F5CFAEF073EC0DF00001BA4B84
:101C3200BB2BBAC0F6FFBBC0F7FFF86A0800F5502D
:101C42000009D8A427EF0EF029EF0EF009EF0EF0ED
:101C5200120020C04EF04BC0D9FF4CC0DAFFDF505B
:101C62000F0B4D6E4E504D18F80B4D184E6E4BC06B
:101C7200D9FF4CC0DAFFDF38070B4D6E4D464D469B
:101C82004D464E504D18C70B4D184E6E4E9C4BC0D4
:101C9200D9FF4CC0DAFFDFAE02D04E8E01D04E9E8D
:101CA2004B504C10D8A458EF0EF05AEF0EF05CEFE8
:101CB2000EF062EF0EF04E0E436E000E446E4FECCD
:101CC2000BF0120020C03CF039C0D9FF3AC0DAFF55
:101CD200DF500F0B3B6E3C503B18F80B3B183C6E31
:101CE20039C0D9FF3AC0DAFFDF38070B3B6E3B46FB
:101CF2003B463B463C503B18C70B3B183C6E3C9C5A
:101D020039C0D9FF3AC0DAFFDFAE02D03C8E01D033
:101D12003C9E39503A10D8A491EF0EF093EF0EF09A
:101D220095EF0EF09BEF0EF03C0E316E000E326E10
:101D3200ACEC0BF01200B40EF66E1F0EF76E000E36
:101D4200F86E00EE80F010EE1EF00900F5CFEEFF07
:101D5200E550E150FAE11A0EF66E200EF76E000E13
:101D6200F86E00EE58F010EE07F00900F5CFEEFF26
:101D7200E550E150FAE100EEBCF0150EEE6AE8061D
:101D8200FDE100EE01F0300EEE6AE806FDE1609042
:101D920060920001FDEF0EF0000E0001A46F000E34
:101DA200A56F9E519F11D8B4D9EF0EF0DBEF0EF064
:101DB200E4EF0EF0A051A111D8A4E2EF0EF0E4EF8F
:101DC2000EF0E6EF0EF0FCEF0EF0CECFA4F0CFCF88
:101DD200A5F0A451A5C0A2F0A36BA2C0A3F0A26B70
:101DE200A213000EA313A0C0D9FFA1C0DAFFA2C0A4
:101DF200DEFFA3C0DDFF120008EC10F0240E00018C
:101E02009E6F000E9F6F300EA06F000EA16FCDEC83
:101E12000EF0580E0001B66F000EB76F010EB86FCC
:101E2200010EB96F110EBA6F100EBB6FF1EC0DF00F
:101E3200580E0001B66F000EB76F010EB86F0B0E91
:101E4200B96F3050300FBA6F56EC0FF0FFEF0EF053
:101E5200F8EF00F00001A851A911D8A433EF0FF058
:101E620035EF0FF039EF0FF0000EAA6F54EF0FF0BD
:101E7200010EA8259E6F000EA9219F6F010EA06F73
:101E8200B5EC09F0030EE82EFED700F0010E0001BA
:101E9200A8259E6F000EA9219F6F000EA06FB5ECC2
:101EA20009F00001AA6FAA511200010E0001BB6FD6
:101EB200B651B711D8A460EF0FF062EF0FF066EFE2
:101EC2000FF0000EBB6F78EF0FF0B6C0B0F0B7C0E6
:101ED200B1F0B8C0B2F0B9C0B3F009EC0CF0B6C0C2
:101EE200ACF0B7C0ADF0BAC0AEF073EC0DF00001CB
:101EF200BB5112000250CF6E01C0CEFF9E90035024
:101F02000410D8B487EF0FF089EF0FF095EF0FF0C0
:101F120002D895EF0FF00500FA6E0350FD6E0450E3
:101F2200FE6EFF6AFA50120012000250CF6E01C01C
:101F3200CEFF9E9003500410D8B4A2EF0FF0A4EF8E
:101F42000FF0B0EF0FF002D8B0EF0FF00500FA6E0D
:101F52000350FD6E0450FE6EFF6AFA50120012002A
:101F6200000E246E000E256EFC0E2916010E266E42
:101F72002984000E286E000E276E2996240E000179
:101F8200A06F000EA16F5DEC0AF05F6E1200580E9A
:101F92000001B06F000EB16FD7EC0AF00001B66F0E
:101FA2005E0EAC6F000EAD6FF3EC0CF00001B617D5
:101FB2001200800F810F820F830F840F890F8A0F07
:101FC2008B0F8C0F8D0F920F930F940F950F960F0F
:101FD20060A2EEEF0FF0F5EF0FF05E0E4B6E000E0B
:101FE2004C6E2AEC0EF012005E0E396E000E3A6E46
:101FF20063EC0EF012000650D76E05C0D6FFF294C5
:1020020012000650D76E05C0D6FFF2941200C8EC3B
:0F2012000FF0B1EC0FF01200030B131B232B7117
:10202200F2901200F2901200F2901200F29012005E
:10203200F0921200F09012009E9C1200F290120098
:10204200F2901200F2901200F2901200F09212003E
:0C205200F09012009E9C1200F29212000E
:020000040030CA
:0E000000FF02091EFF8181FF0FC00FE00F40BD
:00000001FF
