:0400000070EF01F0AC
:060008007F82BEED0EF048
:100018007F80D8CFE0F0E8CFE1F0E0CFE2F0FACF90
:10002800E3F0FBCFE4F0E1CFE5F0E2CFE6F0D9CFA3
:10003800E7F0DACFE8F0F3CFE9F0F4CFEAF0F6CF63
:10004800EBF0F7CFECF0F8CFEDF0F5CFEEF0F0BC39
:1000580030EF00F032EF00F03BEF00F0F0A037EFA8
:1000680000F039EF00F03BEF00F0EAEC23F0F0BECF
:1000780040EF00F042EF00F04BEF00F0F0A247EF46
:1000880000F049EF00F04BEF00F0E8EC23F0F1B09E
:1000980050EF00F052EF00F068EF00F0F2A057EFD9
:1000A80000F059EF00F068EF00F081380F0B010BFA
:1000B8007618D8B462EF00F064EF00F068EF00F053
:1000C800010E761AE6EC23F0F1B06DEF00F06FEF59
:1000D80000F086EF00F0F2A074EF00F076EF00F089
:1000E80086EF00F08138E842070B010B7518D8B489
:1000F80080EF00F082EF00F086EF00F0010E751A35
:10010800E4EC23F0F1B08BEF00F08DEF00F0A4EFFA
:1001180000F0F2A092EF00F094EF00F0A4EF00F0EE
:100128008144E846030B010B7418D8B49EEF00F025
:10013800A0EF00F0A4EF00F0010E741AE2EC23F037
:10014800F1B0A9EF00F0ABEF00F0C0EF00F0F2A0C3
:10015800B0EF00F0B2EF00F0C0EF00F08144010B07
:100168007318D8B4BAEF00F0BCEF00F0C0EF00F09D
:10017800010E731AE0EC23F09FBCC5EF00F0C7EF47
:1001880000F0D0EF00F09EACCCEF00F0CEEF00F026
:10019800D0EF00F0F0EC23F0F1B4D5EF00F0D7EF9A
:1001A80000F0E0EF00F0F2A4DCEF00F0DEEF00F08A
:1001B800E0EF00F0BFEC23F09FB0E5EF00F0E7EFD1
:1001C80000F0F0EF00F09EA0ECEF00F0EEEF00F092
:1001D800F0EF00F0B9EC23F09FB2F5EF00F0F7EF85
:1001E80000F000EF01F09EA2FCEF00F0FEEF00F03F
:1001F80000EF01F0DAEC23F0A2B205EF01F007EF0F
:1002080001F010EF01F0A1A20CEF01F00EEF01F0E8
:1002180010EF01F0B3EC23F09FB415EF01F017EFE6
:1002280001F020EF01F09EA41CEF01F01EEF01F099
:1002380020EF01F0EEEC23F0A2B025EF01F027EF5C
:1002480001F030EF01F0A1A02CEF01F02EEF01F04A
:1002580030EF01F0ECEC23F09FB835EF01F037EF09
:1002680001F040EF01F09EA83CEF01F03EEF01F0F5
:1002780040EF01F045EC23F09FBA45EF01F047EF5E
:1002880001F050EF01F09EAA4CEF01F04EEF01F0A3
:1002980050EF01F000EC1EF0EEC0F5FFEDC0F8FFE6
:1002A800ECC0F7FFEBC0F6FFEAC0F4FFE9C0F3FFCC
:1002B800E8C0DAFFE7C0D9FFE6C0E2FFE5C0E1FF2A
:1002C800E4C0FBFFE3C0FAFFE2C0E0FFE1C0E8FFE3
:0C02D800E0C0D8FF7F9010002BEF20F05A
:10100000003738392F3435362A3132332D23303DED
:051010002B2569000022
:10101600000E0101A46F000EA56F000EA66F000E54
:10102600A76F42EF0AF0AC98AC94B896A0C1D9FF6E
:10103600A1C1DAFFDECF69F1DECF6AF1DECF6BF157
:10104600DECF6CF1000E26EC10F069C17BF16AC1AF
:101056007CF16BC17DF16CC17EF1000E0101776FF1
:10106600240E786F740E796F4A0E7A6FF0EC0CF0DE
:1010760077C1A8F178C1A9F179C1AAF17AC1ABF11A
:10108600000E01017B6F000E7C6F800E7D6F420E9D
:101096007E6FA8C177F1A9C178F1AAC179F1ABC178
:1010A6007AF1F0EC0CF077C190F178C191F179C149
:1010B60092F17AC193F1000E0101946F000E956FC3
:1010C600800E966FBF0E976F8FEC0AF090C1A4F159
:1010D60091C1A5F192C1A6F193C1A7F16DEF0AF0F6
:1010E600AC98AC84B896A0C1D9FFA1C1DAFFDECF17
:1010F60069F1DECF6AF1DECF6BF1DECF6CF1000E67
:1011060026EC10F069C17BF16AC17CF16BC17DF1FF
:101116006CC17EF1000E0101776F240E786F740E9C
:10112600796F4A0E7A6FF0EC0CF077C1A8F178C1AE
:10113600A9F179C1AAF17AC1ABF1000E01017B6F69
:10114600000E7C6F800E7D6F410E7E6FA8C177F119
:10115600A9C178F1AAC179F1ABC17AF1F0EC0CF032
:1011660077C190F178C191F179C192F17AC193F189
:10117600000E0101946F000E956F800E966FBF0EE4
:10118600976F8FEC0AF090C1A4F191C1A5F192C1BD
:10119600A6F193C1A7F16DEF0AF0AC98AC94B886AE
:1011A600A0C1D9FFA1C1DAFFDECF69F1DECF6AF1B6
:1011B600DECF6BF1DECF6CF1000E26EC10F069C1CC
:1011C6007BF16AC17CF16BC17DF16CC17EF1000ED1
:1011D6000101776F240E786F740E796F4A0E7A6F5D
:1011E600F0EC0CF077C1A8F178C1A9F179C1AAF1A8
:1011F6007AC1ABF1000E01017B6F000E7C6F800E91
:101206007D6F410E7E6FA8C177F1A9C178F1AAC1A1
:1012160079F1ABC17AF1F0EC0CF077C190F178C1BD
:1012260091F179C192F17AC193F1000E0101946FA7
:10123600000E956F800E966FBF0E976F8FEC0AF0BB
:1012460090C1A4F191C1A5F192C1A6F193C1A7F1F4
:101256006DEF0AF0AC98AC84B886A0C1D9FFA1C1E5
:10126600DAFFDECF69F1DECF6AF1DECF6BF1DECFDA
:101276006CF1000E26EC10F069C17BF16AC17CF1BD
:101286006BC17DF16CC17EF1000E0101776F240EFA
:10129600786F740E796F4A0E7A6FF0EC0CF077C1A6
:1012A600A8F178C1A9F179C1AAF17AC1ABF1000E12
:1012B60001017B6F000E7C6F800E7D6F400E7E6F8E
:1012C600A8C177F1A9C178F1AAC179F1ABC17AF1C8
:1012D600F0EC0CF077C190F178C191F179C192F1FF
:1012E6007AC193F1000E0101946F000E956F800E86
:1012F600966FBF0E976F8FEC0AF090C1A4F191C163
:10130600A5F192C1A6F193C1A7F16DEF0AF0AC88E1
:10131600B896A0C1D9FFA1C1DAFFDECF69F1DECF51
:101326006AF1DECF6BF1DECF6CF1000E26EC10F029
:1013360069C17BF16AC17CF16BC17DF16CC17EF143
:10134600000E0101776F240E786F740E796F4A0EC6
:101356007A6FF0EC0CF077C1A8F178C1A9F179C1E8
:10136600AAF17AC1ABF1000E01017B6F000E7C6F12
:10137600800E7D6F400E7E6FA8C177F1A9C178F10E
:10138600AAC179F1ABC17AF1F0EC0CF077C190F11A
:1013960078C191F179C192F17AC193F1000E010100
:1013A600946F000E956F800E966FBF0E976F8FEC41
:1013B6000AF090C1A4F191C1A5F192C1A6F193C121
:1013C600A7F16DEF0AF0AC88B886A0C1D9FFA1C11C
:1013D600DAFFDECF69F1DECF6AF1DECF6BF1DECF69
:1013E6006CF1000E26EC10F069C17BF16AC17CF14C
:1013F6006BC17DF16CC17EF1000E0101776F240E89
:10140600786F740E796F4A0E7A6FF0EC0CF077C134
:10141600A8F178C1A9F179C1AAF17AC1ABF1000EA0
:1014260001017B6F000E7C6F800E7D6F400E7E6F1C
:10143600A8C177F1A9C178F1AAC179F1ABC17AF156
:10144600F0EC0CF077C190F178C191F179C192F18D
:101456007AC193F1000E0101946F000E956F800E14
:10146600966FBF0E976F8FEC0AF090C1A4F191C1F1
:10147600A5F192C1A6F193C1A7F16DEF0AF020EE96
:1014860004F0A051D926A151DA22DF50A26FA36B36
:10149600A351000AD8B452EF0AF06DEF0AF0A25138
:1014A600000AD8B416EF08F0010AD8B473EF08F0B2
:1014B600030AD8B4D0EF08F0010AD8B42DEF09F02A
:1014C600070AD8B48AEF09F0010AD8B4E6EF09F0A2
:1014D6006DEF0AF0A4C169F1A5C16AF1A6C16BF16D
:1014E600A7C16CF177EC18F001016951AF6EA4C188
:1014F60069F1A5C16AF1A6C16BF1A7C16CF177ECE0
:1015060018F001016AC169F16BC16AF16CC16BF136
:101516006C6B6951B06E120001019351800B9C6F88
:10152600935193259E6F92AF9BEF0AF09DEF0AF0C1
:101536009EEF0AF09E819E51D8B4A4EF0AF0A6EF62
:101546000AF0BBEF0AF09E29D8A4ACEF0AF0AEEF82
:101556000AF0B6EF0AF0000E906F000E916F000EC3
:10156600926F000E936F928F000E936FC3EF0AF087
:10157600000E906F000E916F000E926F000E936F2B
:101586009751800B9D6F9C519D19D8B4CDEF0AF0F1
:10159600CFEF0AF0D0EF0AF09C8D975197259D6FFB
:1015A60096AFD8EF0AF0DAEF0AF0DBEF0AF09D818A
:1015B6009D51D8B4E1EF0AF0E3EF0AF0F8EF0AF034
:1015C6009D29D8A4E9EF0AF0EBEF0AF0F3EF0AF051
:1015D600000E946F000E956F000E966F000E976FBB
:1015E600968F000E976F00EF0BF0000E946F000EB3
:1015F600956F000E966F000E976F9E519D5DD8B049
:1016060007EF0BF009EF0BF030EF0BF09CAD0EEF90
:101616000BF010EF0BF012EF0BF0800E9C1B9EC12F
:101626009FF19DC19EF19FC19DF190C19FF194C113
:1016360090F19FC194F191C19FF195C191F19FC124
:1016460095F192C19FF196C192F19FC196F193C116
:101656009FF197C193F19FC197F1000E9F6F9E5125
:101666009DC198F1996B985F000E995B99BF45EF04
:101676000BF0995109E11A0E985DD8A045EF0BF0D1
:1016860047EF0BF07EEF0BF09051911192119311F1
:10169600D8A450EF0BF053EF0BF0010E54EF0BF004
:1016A600000E9F6F000E906F000E916F000E926FEE
:1016B600000E936F9DC19EF187EF0BF09FA166EF21
:1016C6000BF068EF0BF06EEF0BF0D8909F3101092D
:1016D6009F6F70EF0BF0D8909F3390A175EF0BF0D2
:1016E60077EF0BF078EF0BF09F8F933593339233B0
:1016F600913390339E2B9D519E5DD8A085EF0BF0C4
:1017060087EF0BF061EF0BF09CBD8CEF0BF08EEFCB
:101716000BF0CEEF0BF09E51D8A494EF0BF096EFA2
:101726000BF0A0EF0BF0000E906F000E916F000E05
:10173600926F000E936FEFEF0CF094519027955136
:101746009123965192239751932393A1ADEF0BF0DA
:10175600AFEF0BF05BEF0CF09FA1B4EF0BF0B6EF21
:101766000BF0BCEF0BF0D8909F3101099F6FBEEFD5
:101776000BF0D8909F3390A1C3EF0BF0C5EF0BF0A1
:10178600C6EF0BF09F8F933593339233913390339B
:101796009E2B5BEF0CF09451905D955191599651AB
:1017A60092599351800A986F9751800A9859D8B0E8
:1017B600DFEF0BF0E1EF0BF00CEF0CF09051945DC6
:1017C600986F91519559996F925196599A6F935175
:1017D60097599B6FFF0E9825906FFF0E9921916F79
:1017E600FF0E9A21926FFF0E9B21936F800E9C1B1A
:1017F6009F6D9F51D8A402EF0CF004EF0CF014EF8C
:101806000CF0010E9027000E91239223932314EFE0
:101816000CF09451905F9551915B9651925B975164
:10182600935B9051911192119311D8A41DEF0CF076
:101836001FEF0CF054EF0CF09F51D8A425EF0CF0DD
:1018460027EF0CF054EF0CF0000E906F000E916F26
:10185600000E926F000E936FEFEF0CF0D89090375A
:101866009137923793379FAF3BEF0CF03DEF0CF07B
:101876003EEF0CF090819FA143EF0CF045EF0CF08A
:1018860049EF0CF0D8809F374BEF0CF0D8909F377C
:101896009E51D8B451EF0CF053EF0CF054EF0CF00E
:1018A6009E0792AF59EF0CF05BEF0CF031EF0CF0A6
:1018B600000E9D6F9FAF62EF0CF064EF0CF07CEFB3
:1018C6000CF09FC198F17F0E9817D8B46DEF0CF00D
:1018D6006FEF0CF073EF0CF0010E9D6F7CEF0CF0C8
:1018E60090A178EF0CF07AEF0CF07CEF0CF06FEF34
:1018F6000CF09D51D8B482EF0CF084EF0CF0AFEFF2
:101906000CF0010E9027000E91239223932393A1AE
:101916008FEF0CF091EF0CF0AFEF0CF090C198F157
:1019260091C199F192C19AF193C19BF19B359B3379
:101936009A339933983398C190F199C191F19AC12C
:1019460092F19BC193F19E29D8B4ACEF0CF0AEEFA7
:101956000CF0AFEF0CF09E2B9E29D8B4B5EF0CF02F
:10196600B7EF0CF0BFEF0CF09E51D8A4BDEF0CF012
:10197600BFEF0CF0D1EF0CF0000E906F000E916FE0
:10198600000E926F000E936F9E51D8A4CDEF0CF00F
:10199600CFEF0CF0D1EF0CF0000E9C6F9EA1D6EFAE
:1019A6000CF0D8EF0CF0DBEF0CF0928FDCEF0CF0C4
:1019B600929FD8909E31936F9CAFE4EF0CF0E6EFC8
:1019C6000CF0E7EF0CF0938F90C190F191C191F17B
:1019D60092C192F193C193F1120001017A51800BE9
:1019E600876F7A517A258E6F79AFFCEF0CF0FEEF98
:1019F6000CF0FFEF0CF08E818E51D8B405EF0DF090
:101A060007EF0DF01CEF0DF08E29D8A40DEF0DF0A9
:101A16000FEF0DF017EF0DF0000E776F000E786FD9
:101A2600000E796F000E7A6F798F000E7A6F24EFB1
:101A36000DF0000E776F000E786F000E796F000EB6
:101A46007A6F7E51800B871B7E517E258F6F7DAF0F
:101A56002FEF0DF031EF0DF032EF0DF08F818F513A
:101A6600D8B438EF0DF03AEF0DF04FEF0DF08F29A7
:101A7600D8A440EF0DF042EF0DF04AEF0DF0000E46
:101A86007B6F000E7C6F000E7D6F000E7E6F7D8F6C
:101A9600000E7E6F57EF0DF0000E7B6F000E7C6F11
:101AA600000E7D6F000E7E6F7B517C117D117E11C5
:101AB600D8A460EF0DF062EF0DF07AEF0DF0000E96
:101AC600776F000E786F000E796F000E7A6F800EBA
:101AD60079137F0E7A1387517A1377C177F178C11C
:101AE60078F179C179F17AC17AF1BDEF0EF08E51B4
:101AF600D8A480EF0DF082EF0DF08CEF0DF0000E04
:101B0600776F000E786F000E796F000E7A6FBDEF5B
:101B16000EF08F518EC17FF1806B7F5F000E805B70
:101B26007F0E7F25886F000E8021896F77C183F134
:101B360078C184F179C185F17AC186F1000E776F9B
:101B4600000E786F000E796F000E7A6F000E8A6FA6
:101B5600000E8B6F000E8C6F000E8D6F000E8F6F58
:101B6600EDEF0DF08F51D8B4BBEF0DF0BDEF0DF0DA
:101B7600D4EF0DF0D8908337843785378637D890E1
:101B86007737783779377A378DAFCCEF0DF0CEEFE0
:101B96000DF0CFEF0DF07781D8908A378B378C37E1
:101BA6008D377B51835D7C5184597D5185597E519A
:101BB6008659D8A0E1EF0DF0E3EF0DF0ECEF0DF054
:101BC6008D8D7B51835F7C51845B7D51855B7E511E
:101BD600865B8F2B190E8F65F3EF0DF0F5EF0DF089
:101BE600B5EF0DF08351841185118611D8B4FEEF3F
:101BF6000DF000EF0EF018EF0EF08A8118EF0EF0E0
:101C0600D8907737783779377A378DAF0DEF0EF072
:101C16000FEF0EF010EF0EF07781D8908A378B37E2
:101C26008C378D378807D8A0890779AF1DEF0EF05E
:101C36001FEF0EF003EF0EF0000E8F6F8DAF26EF45
:101C46000EF028EF0EF04CEF0EF0FF0E8A157F6FA8
:101C5600FF0E8B15806FFF0E8C15816F7F0E8D1515
:101C6600826F7F51801181118211D8B43DEF0EF041
:101C76003FEF0EF043EF0EF0010E8F6F4CEF0EF0BC
:101C860077A148EF0EF04AEF0EF04CEF0EF03FEF63
:101C96000EF08F51D8B452EF0EF054EF0EF078EFED
:101CA6000EF0010E7727000E782379237A237AA186
:101CB6005FEF0EF061EF0EF078EF0EF077C17FF177
:101CC60078C180F179C181F17AC182F1823582339E
:101CD600813380337F337FC177F180C178F181C151
:101CE60079F182C17AF1884B892B89BF83EF0EF097
:101CF600895108E18829D8A083EF0EF085EF0EF010
:101D060090EF0EF0000E896F8869000E776F000E57
:101D1600786F000E796F000E7A6F89BF9DEF0EF017
:101D2600895106E18805D8B09BEF0EF09DEF0EF0C5
:101D3600ABEF0EF0000E896F000E886F000E776F06
:101D4600000E786F000E796F000E7A6F000E876FA7
:101D560088C18EF18EA1B2EF0EF0B4EF0EF0B7EFA0
:101D66000EF0798FB8EF0EF0799FD8908E317A6F9A
:101D76006EEF0DF012000600FACF5FF0FBCF60F0B9
:101D8600E1CF61F0E2CF62F0D9CF63F0DACF64F051
:101D9600F3CF65F0F4CF66F0F6CF67F0F7CF68F0D3
:101DA600F8CF69F0F5CF6AF0F2A8DCEF0EF0DEEFBF
:101DB6000EF0E7EF0EF0F2A2E3EF0EF0E5EF0EF015
:101DC600E7EF0EF004EC24F0F0ACECEF0EF0EEEFE3
:101DD6000EF0F7EF0EF0F0A0F3EF0EF0F5EF0EF0C9
:101DE600F7EF0EF0FCEC23F0F0AEFCEF0EF0FEEF9A
:101DF6000EF007EF0FF0F0A203EF0FF005EF0FF074
:101E060007EF0FF0FAEC23F0F1A00CEF0FF00EEF56
:101E16000FF024EF0FF0F2A013EF0FF015EF0FF015
:101E260024EF0FF081380F0B010B7618D8B41EEF94
:101E36000FF020EF0FF024EF0FF0010E761AF8ECFA
:101E460023F0F1A029EF0FF02BEF0FF042EF0FF088
:101E5600F2A030EF0FF032EF0FF042EF0FF08138C3
:101E6600E842070B010B7518D8B43CEF0FF03EEFB4
:101E76000FF042EF0FF0010E751AF6EC23F0F1A009
:101E860047EF0FF049EF0FF060EF0FF0F2A04EEFC3
:101E96000FF050EF0FF060EF0FF08144E846030BB0
:101EA600010B7418D8B45AEF0FF05CEF0FF060EF27
:101EB6000FF0010E741AF4EC23F0F1A065EF0FF0A9
:101EC60067EF0FF07CEF0FF0F2A06CEF0FF06EEF04
:101ED6000FF07CEF0FF08144010B7318D8B476EF46
:101EE6000FF078EF0FF07CEF0FF0010E731AF2ECA3
:101EF60023F09FAC81EF0FF083EF0FF08CEF0FF024
:101F06009EAC88EF0FF08AEF0FF08CEF0FF002EC2B
:101F160024F0F1A491EF0FF093EF0FF09CEF0FF088
:101F2600F2A498EF0FF09AEF0FF09CEF0FF0D1ECC0
:101F360023F09FA0A1EF0FF0A3EF0FF0ACEF0FF08F
:101F46009EA0A8EF0FF0AAEF0FF0ACEF0FF0CBECCE
:101F560023F09FA2B1EF0FF0B3EF0FF0BCEF0FF03D
:101F66009EA2B8EF0FF0BAEF0FF0BCEF0FF0DDEC6A
:101F760023F0A2A2C1EF0FF0C3EF0FF0CCEF0FF0EA
:101F8600A1A2C8EF0FF0CAEF0FF0CCEF0FF0C5EC2F
:101F960023F09FA4D1EF0FF0D3EF0FF0DCEF0FF09B
:101FA6009EA4D8EF0FF0DAEF0FF0DCEF0FF000ECA5
:101FB60024F0A2A0E1EF0FF0E3EF0FF0ECEF0FF04B
:101FC600A1A0E8EF0FF0EAEF0FF0ECEF0FF0FEEC58
:101FD60023F09FA8F1EF0FF0F3EF0FF0FCEF0FF0F7
:101FE6009EA8F8EF0FF0FAEF0FF0FCEF0FF05DECA4
:101FF60023F09FAA01EF10F003EF10F00CEF10F0A2
:102006009EAA08EF10F00AEF10F00CEF10F043EC68
:102016001EF06AC0F5FF69C0F8FF68C0F7FF67C029
:10202600F6FF66C0F4FF65C0F3FF64C0DAFF63C065
:10203600D9FF62C0E2FF61C0E1FF60C0FBFF5FC085
:10204600FAFF7F9211000101716F01017151D8B43D
:102056002FEF10F031EF10F053EF10F06CBF38EFA8
:1020660010F036EF10F053EF10F069C16DF16AC150
:102076006EF16BC16FF16CC170F16D1F6E1F6F1F3A
:10208600701F6D2B000E6E236F2370236DC173F1CD
:102096006EC174F16FC175F170C176F15BEF10F02E
:1020A60069C173F16AC174F16BC175F16CC176F1E6
:1020B60069516A116B116C11D8A464EF10F066EFC8
:1020C60010F070EF10F0000E696F000E6A6F000ED0
:1020D6006B6F000E6C6F01EF11F0960E726F7AEF58
:1020E60010F0722BD8907633753374337333000E39
:1020F60073156D6F000E74156E6F000E75156F6F8C
:10210600FE0E7615706F6D516E116F117011D8A499
:102116008FEF10F091EF10F074EF10F09FEF10F0CA
:10212600722B010E7327000E742375237623D89025
:102136007633753374337333000E73156D6F000E7B
:1021460074156E6F000E75156F6FFF0E7615706F36
:102156006D516E116F117011D8A4B4EF10F0B6EF77
:1021660010F093EF10F0BEEF10F07207D8907337AF
:1021760074377537763775BFC3EF10F0C5EF10F0BB
:10218600CDEF10F0020E7261CBEF10F0CDEF10F034
:10219600B8EF10F072B1D2EF10F0D4EF10F0D5EF27
:1021A60010F0759FD890723372C16DF16E6B6F6BC4
:1021B600706B6DC170F16F6B6E6B6D6B6D517313E0
:1021C6006E5174136F517513705176137151D8B4E3
:1021D600EFEF10F0F1EF10F0F9EF10F06CBFF8EF41
:1021E60010F0F6EF10F0F9EF10F0768F73C169F189
:1021F60074C16AF175C16BF176C16CF11200000110
:102206009EBF08EF11F00BEF11F0010E0CEF11F06D
:10221600000EA76FA751D8B413EF11F015EF11F008
:1022260019EF11F09D6D9E1FD8B09E2BF0BF20EFC9
:1022360011F01EEF11F026EF11F0000EA26F010E45
:10224600A16F2AEF11F0EFC0A1F0F0C0A2F019C102
:10225600A3F01AC1A4F0A751D8B434EF11F036EFA9
:1022660011F04DEF11F0A307D8A0A407A751D8A4E9
:102276003FEF11F041EF11F047EF11F0000EA06FA4
:102286002B0E9F6F4BEF11F0000EA06F2D0E9F6F60
:102296009FC0A7F0000EA66F1F0EA56F000E0101CE
:1022A600566F87EF11F0A507D8A0A607370EA5250C
:1022B600D96E010EA621DA6E9DC080F09EC081F017
:1022C600000E836F0A0E826FD9EC1BF080C086F079
:1022D60081C087F07CEC22F000018651300FDF6E62
:1022E600A107D8A0A207A307D8A0A4079DC080F085
:1022F6009EC081F0000E836F0A0E826FB8EC1AF052
:1023060080C09DF081C09EF00001A6BF93EF11F042
:10231600A65108E1A505D8A093EF11F095EF11F0AD
:10232600ABEF11F09D519E11D8A49CEF11F09EEFDA
:1023360011F056EF11F0A2BFABEF11F0A25106E17A
:10234600A105D8B0A9EF11F0ABEF11F056EF11F0DF
:10235600A751D8B4B1EF11F0B3EF11F0BEEF11F001
:10236600A507D8A0A607370EA525D96E010EA6216A
:10237600DA6EA7C0DFFF9BC090F09CC091F0370ECD
:10238600A525926F010EA621936FA3C094F0A4C059
:1023960095F0C5EC1EF012001FBED4EF11F0D7EF7A
:1023A60011F0010ED8EF11F0000E286E2850D8B4A7
:1023B600DFEF11F0E1EF11F0E5EF11F01E6C1F1EDB
:1023C600D8B01F2A0001F0BFEDEF11F0EBEF11F0CE
:1023D600F3EF11F0000E236E010E226EF7EF11F0EF
:1023E600EFC022F0F0C023F019C124F01AC125F085
:1023F6002850D8B401EF12F003EF12F01AEF12F0E2
:102406002406D8A025062850D8A40CEF12F00EEF0B
:1024160012F014EF12F0000E216E2B0E206E18EF44
:1024260012F0000E216E2D0E206E20C028F0000E38
:10243600276E1F0E266E000E0101566F53EF12F027
:102446002606D8A02706370E2624D96E010E272089
:10245600DA6E1EC001F01FC002F0000E046E0A0EF6
:10246600036E8AEC1CF001C007F002C008F09DEC78
:1024760022F00750300FDF6E2206D8A0230624066E
:10248600D8A025061EC001F01FC002F0000E046E83
:102496000A0E036E1BEC1BF001C01EF002C01FF0FB
:1024A60027BE5EEF12F0275008E12604D8A05EEFA3
:1024B60012F060EF12F076EF12F01E501F10D8A443
:1024C60067EF12F069EF12F023EF12F023BE76EFFA
:1024D60012F0235006E12204D8B074EF12F076EF22
:1024E60012F023EF12F02850D8B47CEF12F07EEFF2
:1024F60012F089EF12F02606D8A02706370E2624FA
:10250600D96E010E2720DA6E28C0DFFF1CC011F03D
:102516001DC012F0370E2624136E010E2720146EEE
:1025260024C015F025C016F043EC1FF0120080C041
:102536008AF081C08BF0000184518511D8A4A6EFE2
:1025460012F0A8EF12F0AAEF12F055EF13F08AC0BE
:10255600D9FF8BC0DAFF82C0DFFF84518A25866FE0
:1025660085518B21876FFF0E8625D96EFF0E872139
:10257600DA6E82C0DFFF855107E1030E845DD8B0B5
:10258600C7EF12F0C9EF12F0CBEF12F055EF13F0D0
:1025960020EE01F08A51D9268B51DA2282C0DFFF64
:1025A60020EE02F08A51D9268B51DA2282C0DFFF53
:1025B60084518A25866F85518B21876FFE0E86256D
:1025C600D96EFF0E8721DA6E82C0DFFF84518A251D
:1025D600866F85518B21876FFD0E8625D96EFF0E7E
:1025E6008721DA6E82C0DFFF855107E1070E845D21
:1025F600D8B000EF13F002EF13F004EF13F055EF2D
:1026060013F020EE03F08A51D9268B51DA2282C0CC
:10261600DFFF84518A25866F85518B21876FFC0EDB
:102626008625D96EFF0E8721DA6E82C0DFFF8551BF
:1026360007E1090E845DD8B023EF13F025EF13F000
:1026460027EF13F055EF13F08AC086F08BC087F0A2
:10265600861F871F864B872B030E8615886F896B0F
:1026660088518A2789518B238851845F8951855BDC
:10267600FC0E8417FF0E85174CEF13F08AC0D9FFA6
:102686008BC0DAFF82C0DFFF8407D8A085078A4B9C
:102696008B2B84518511D8A453EF13F055EF13F00B
:1026A60041EF13F0120001C00BF002C00CF0055010
:1026B6000610D8A461EF13F063EF13F065EF13F083
:1026C60010EF14F00BC0D9FF0CC0DAFF03C0DFFF18
:1026D60005500B24076E06500C20086EFF0E0724CB
:1026E600D96EFF0E0820DA6E03C0DFFF065007E141
:1026F600030E055CD8B082EF13F084EF13F086EF7B
:1027060013F010EF14F020EE01F00B50D9260C5008
:10271600DA2203C0DFFF20EE02F00B50D9260C5060
:10272600DA2203C0DFFF05500B24076E06500C208B
:10273600086EFE0E0724D96EFF0E0820DA6E03C05F
:10274600DFFF05500B24076E06500C20086EFD0EA9
:102756000724D96EFF0E0820DA6E03C0DFFF06508D
:1027660007E1070E055CD8B0BBEF13F0BDEF13F021
:10277600BFEF13F010EF14F020EE03F00B50D92644
:102786000C50DA2203C0DFFF05500B24076E0650FB
:102796000C20086EFC0E0724D96EFF0E0820DA6E98
:1027A60003C0DFFF065007E1090E055CD8B0DEEF77
:1027B60013F0E0EF13F0E2EF13F010EF14F00BC09C
:1027C60007F00CC008F0071E081E074A082A030E69
:1027D6000714096E0A6A09500B260A500C22095082
:1027E600055E0A50065AFC0E0516FF0E061607EF82
:1027F60014F00BC0D9FF0CC0DAFF03C0DFFF0506DB
:10280600D8A006060B4A0C2A05500610D8A40EEFCF
:1028160014F010EF14F0FCEF13F01200010E01019A
:10282600716F69516A11D8B41BEF14F01DEF14F0E3
:102836003DEF14F069C1D9FF6AC1DAFFDF30E83233
:10284600E832070B6B6F080E6B612CEF14F02EEF5E
:1028560014F03DEF14F069C1D9FF6AC1DAFFDF5009
:10286600070B6B6F040E6B653BEF14F03DEF14F036
:10287600A2EF14F0000E716FC3EF14F069C1D9FF17
:102886006AC1DAFFDF30E832E832070B6B6F010E00
:102896006C6F6B2B51EF14F0D8906C376B2F4FEF9A
:1028A60014F001016C51FF0A6D6F69C1D9FF6AC14D
:1028B600DAFFDF50070B6E6F6E51020DC40EF32464
:1028C600D96E010EF420DA6EDECF6FF1DDCF70F136
:1028D6006FC1D9FF70C1DAFF6D51DF16C3EF14F077
:1028E60069C1D9FF6AC1DAFFDF30E832E832070B87
:1028F6006B6F010E6C6F6B2B83EF14F0D8906C37F7
:102906006B2F81EF14F069C1D9FF6AC1DAFFDF507E
:10291600070B01016D6F6D51020DC40EF324D96EC4
:10292600010EF420DA6EDECF6EF1DDCF6FF16EC1EF
:10293600D9FF6FC1DAFF6C51DF12C3EF14F069C122
:10294600D9FF6AC1DAFFDFBCABEF14F0AEEF14F0CB
:10295600010EAFEF14F0000E6B6F6C6B6C51000A3A
:10296600D8B4B8EF14F03DEF14F06B51000AD8B4A8
:1029760041EF14F0010AD8B473EF14F03DEF14F0F0
:1029860071511200010E0101726F69516A11D8B4BA
:10299600CFEF14F0D1EF14F0F1EF14F069C1D9FFC5
:1029A6006AC1DAFFDF30E832E832070B6C6F080ED7
:1029B6006C61E0EF14F0E2EF14F0F1EF14F069C18E
:1029C600D9FF6AC1DAFFDF50070B6C6F040E6C6526
:1029D600EFEF14F0F1EF14F056EF15F0000E726FF2
:1029E6006BEF15F069C1D9FF6AC1DAFFDF30E83253
:1029F600E832070B6C6F010E6D6F6C2B05EF15F04F
:102A0600D8906D376C2F03EF15F069C1D9FF6AC1F5
:102A1600DAFFDF50070B01016E6F6E51020DBA0E21
:102A2600F324D96E010EF420DA6EDECF6FF1DDCF1E
:102A360070F16FC1D9FF70C1DAFF6D51DF126BEF14
:102A460015F069C1D9FF6AC1DAFFDF30E832E83232
:102A5600070B6C6F010E6D6F6C2B34EF15F0D89071
:102A66006D376C2F32EF15F001016D51FF0A6E6F55
:102A760069C1D9FF6AC1DAFFDF50070B6F6F6F516B
:102A8600020DBA0EF324D96E010EF420DA6EDECFF3
:102A960070F1DDCF71F170C1D9FF71C1DAFF6E51EE
:102AA600DF166BEF15F06B516C6F6D6B6D51000A95
:102AB600D8B460EF15F0F1EF14F06C51000AD8B4F9
:102AC60024EF15F0010AD8B4F5EF14F0F1EF14F085
:102AD60072511200010E0001896F80518111D8B424
:102AE60077EF15F079EF15F099EF15F080C0D9FF63
:102AF60081C0DAFFDF30E832E832070B836F080E59
:102B0600836188EF15F08AEF15F099EF15F080C014
:102B1600D9FF81C0DAFFDF50070B836F040E836590
:102B260097EF15F099EF15F0FEEF15F0000E896F8F
:102B360013EF16F080C0D9FF81C0DAFFDF30E8322C
:102B4600E832070B836F010E846F832BADEF15F010
:102B5600D8908437832FABEF15F080C0D9FF81C0A2
:102B6600DAFFDF50070B0001856F8551020DBA0EA3
:102B7600F324D96E010EF420DA6EDECF86F0DDCFB7
:102B860087F086C0D9FF87C0DAFF8451DF1213EFC2
:102B960016F080C0D9FF81C0DAFFDF30E832E832B4
:102BA600070B836F010E846F832BDCEF15F0D89033
:102BB6008437832FDAEF15F000018451FF0A856F01
:102BC60080C0D9FF81C0DAFFDF50070B866F8651C0
:102BD600020DBA0EF324D96E010EF420DA6EDECFA2
:102BE60087F0DDCF88F087C0D9FF88C0DAFF85512E
:102BF600DF1613EF16F08251836F846B8451000A3F
:102C0600D8B408EF16F099EF15F08351000AD8B43E
:102C1600CCEF15F0010AD8B49DEF15F099EF15F039
:102C260089511200010E0A6E01500210D8B41EEF2F
:102C360016F020EF16F040EF16F001C0D9FF02C0E3
:102C4600DAFFDF30E832E832070B046E080E046064
:102C56002FEF16F031EF16F040EF16F001C0D9FF56
:102C660002C0DAFFDF50070B046E040E04643EEF69
:102C760016F040EF16F0A3EF16F0000E0A6EB8EF4E
:102C860016F001C0D9FF02C0DAFFDF30E832E832C1
:102C9600070B046E010E056E042A54EF16F0D89049
:102CA6000536042E52EF16F001C0D9FF02C0DAFF36
:102CB600DF50070B066E0650020DBA0EF324D96ECE
:102CC600010EF420DA6EDECF07F0DDCF08F007C084
:102CD600D9FF08C0DAFF0550DF12B8EF16F001C0C1
:102CE600D9FF02C0DAFFDF30E832E832070B046EA4
:102CF600010E056E042A82EF16F0D8900536042ED2
:102D060080EF16F00550FF0A066E01C0D9FF02C01B
:102D1600DAFFDF50070B076E0750020DBA0EF324D9
:102D2600D96E010EF420DA6EDECF08F0DDCF09F0A1
:102D360008C0D9FF09C0DAFF0650DF16B8EF16F053
:102D46000350046E056A0550000AD8B4ADEF16F0BC
:102D560040EF16F00450000AD8B472EF16F0010ADC
:102D6600D8B444EF16F040EF16F00A501200AAC08D
:102D7600D9FFABC0DAFFDECFF6FFDDCFF7FFF86A8B
:102D86000800F550250AD8A4CBEF16F0CDEF16F0C3
:102D96003BEF17F0AAC0D9FFABC0DAFFDE2A000E60
:102DA600DD22000E01011A6F000E196F19C1FDF028
:102DB6000001EF69F069AAC0D9FFABC0DAFFDECF28
:102DC600B4F0DDCFB5F0B4C0F6FFB5C0F7FFF86AD2
:102DD6000800F550640AD8B4F3EF16F0F5EF16F0D4
:102DE60004EF17F0B4C0F6FFB5C0F7FFF86A0800A5
:102DF600F550690AD8A402EF17F004EF17F032EF86
:102E060017F0ACC0D9FFADC0DAFFDFCFAEF0020ECF
:102E1600DE26DFCFAFF0000EDD22AEC0D9FFAFC099
:102E2600DAFFDECFB0F0DDCFB1F0010EB425AE6F24
:102E3600000EB521AF6FAAC0D9FFABC0DAFFAEC096
:102E4600DEFFAFC0DDFFA8C09BF0A9C09CF0B0C0FC
:102E56009DF0B1C09EF002EC11F051EF17F0AAC040
:102E6600D9FFABC0DAFFDE2A000EDD2251EF17F0E4
:102E7600AAC0D9FFABC0DAFFDECFF6FFDDCFF7FF82
:102E8600F86A0800F5500001806F816BA8C082F0D7
:102E9600A9C083F0EDEC19F032EF17F012002BC049
:102EA600D9FF2CC0DAFFDECFF6FFDDCFF7FFF86AD9
:102EB6000800F550250AD8A463EF17F065EF17F060
:102EC600D3EF17F02BC0D9FF2CC0DAFFDE2A000E95
:102ED600DD22000E01011A6F000E196F19C1FDF0F7
:102EE6000001EF69F0692BC0D9FF2CC0DAFFDECFF5
:102EF60035F0DDCF36F035C0F6FF36C0F7FFF86A9D
:102F06000800F550640AD8B48BEF17F08DEF17F070
:102F16009CEF17F035C0F6FF36C0F7FFF86A0800D9
:102F2600F550690AD8A49AEF17F09CEF17F0CAEF8C
:102F360017F02DC0D9FF2EC0DAFFDFCF2FF0020E1B
:102F4600DE26DFCF30F0000EDD222FC0D9FF30C0E5
:102F5600DAFFDECF31F0DDCF32F0010E35242F6EF1
:102F6600000E3620306E2BC0D9FF2CC0DAFF2FC0E2
:102F7600DEFF30C0DDFF29C01CF02AC01DF031C0C5
:102F86001EF032C01FF0CFEC11F0E8EF17F02BC0A7
:102F9600D9FF2CC0DAFFDE2A000EDD22E8EF17F09B
:102FA6002BC0D9FF2CC0DAFFDECFF6FFDDCFF7FF4F
:102FB600F86A0800F550016E026A29C003F02AC0BB
:102FC60004F053EC1AF0CAEF17F01200010120EEDC
:102FD60007F06951D9266A51DA22DFAAF5EF17F010
:102FE600F7EF17F076EF18F0AB8820EE07F069518F
:102FF600D9266A51DA22DFAC03EF18F005EF18F094
:1030060008EF18F09D8A16EF18F020EE07F06951C8
:10301600D9266A51DA22DFBC13EF18F015EF18F043
:1030260016EF18F09D9A20EE0CF06951D9266A51D8
:10303600DA22DECFF5F0DDCFF6F020EE0EF06951A4
:10304600D9266A51DA22DECFF3F0DDCFF4F020EE96
:1030560010F06951D9266A51DA22DECFF1F0DDCFC0
:10306600F2F0D08E20EE08F06951D9266A51DA22A4
:10307600DE04D8A441EF18F043EF18F047EF18F03C
:103086009F8AF28E58EF18F020EE08F06951D92683
:103096006A51DA22DF50D8A453EF18F055EF18F032
:1030A60058EF18F09F9AF28EF28C20EE07F06951D5
:1030B600D9266A51DA22DFAE63EF18F065EF18F011
:1030C60068EF18F0AB8C76EF18F020EE07F0695138
:1030D600D9266A51DA22DFBE73EF18F075EF18F0C1
:1030E60076EF18F0AB9C120001016B356C35726FF0
:1030F6007251D8A481EF18F083EF18F08DEF18F015
:10310600000E696F000E6A6F000E6B6F000E6C6F1B
:10311600FAEF18F069C16DF16AC16EF16BC16FF11A
:103126006CC170F1200E9DEF18F0D89070336F339C
:103136006E336D33E82E98EF18F06D51716F6B8F0B
:10314600FF0E6917FF0E6A17FF0E6B17000E6C173E
:10315600960E725F72BFB4EF18F0B2EF18F0CAEFB6
:1031660018F07251800A970FD8B0BCEF18F0BEEF76
:1031760018F0C0EF18F083EF18F0D8906C336B336B
:103186006A336933723FC0EF18F0E2EF18F01F0E92
:103196007265D0EF18F0D2EF18F0DAEF18F083EF7F
:1031A60018F0D89069376A376B376C3772077251E7
:1031B600D8A4E0EF18F0E2EF18F0D4EF18F0715150
:1031C600D8B4E8EF18F0EAEF18F0F2EF18F06C1F39
:1031D6006B1F6A1F696D000E6A236B236C2369C11E
:1031E60069F16AC16AF16BC16BF16CC16CF11200D5
:1031F600010120EE05F06951D9266A51DA22DFAACB
:1032060007EF19F009EF19F074EF19F0AC8A20EE08
:1032160005F06951D9266A51DA22DFAC15EF19F0AB
:1032260017EF19F01AEF19F09D8828EF19F020EE24
:1032360005F06951D9266A51DA22DFBC25EF19F06B
:1032460027EF19F028EF19F09D9820EE0AF0695142
:10325600D9266A51DA22DECFF7F0DDCFF8F0D08E2C
:1032660020EE06F06951D9266A51DA22DE04D8A486
:103276003FEF19F041EF19F045EF19F09F88F28EF4
:1032860056EF19F020EE06F06951D9266A51DA2276
:10329600DF50D8A451EF19F053EF19F056EF19F09B
:1032A6009F98F28EF28C20EE05F06951D9266A516C
:1032B600DA22DFAE61EF19F063EF19F066EF19F06D
:1032C600AC8C74EF19F020EE05F06951D9266A51DD
:1032D600DA22DFBE71EF19F073EF19F074EF19F00F
:1032E600AC9C1200000E0101806F7B517C11D8A4AA
:1032F6007FEF19F081EF19F085EF19F0000E7F6F5F
:10330600EBEF19F07BC173F17CC174F174EC1DF025
:1033160001017F6F010E7B25736F000E7C21746F98
:1033260074EC1DF001017F6F000E806F80517B25CC
:103336007D6F000E7C217E6F020E7D25736F000E61
:103346007E21746F74EC1DF00101802B030E8065E5
:10335600AFEF19F0B1EF19F099EF19F07BC177F1E2
:103366007CC178F1330E796F86EC1EF0320EE82EB2
:10337600FED77BC177F17CC178F1320E0101796FFE
:1033860086EC1EF07BC177F17CC178F1280E010135
:10339600796F86EC1EF07BC177F17CC178F1010E66
:1033A6000101796F86EC1EF07BC177F17CC178F163
:1033B600060E0101796F86EC1EF07BC177F17CC1A8
:1033C60078F10C0E0101796F86EC1EF001017F6F1A
:1033D6007F511200000182518311D8B4F5EF19F024
:1033E600F7EF19F000EF1AF082518311D8A4FEEF1F
:1033F60019F000EF1AF005EF1AF0805106EC24F0F0
:1034060052EF1AF020EE0AF08251D9268351DA22C1
:10341600DE50DE10D8B412EF1AF014EF1AF02FEFC8
:103426001AF020EE0AF08251D9268351DA2210EEE4
:1034360003F08251E1268351E222DE50E65CE6503B
:10344600800A886FDE50800A8859D8B02DEF1AF0AE
:103456002FEF1AF052EF1AF020EE03F08251D92620
:103466008351DA22DECF84F0DDCF85F082C0D9FF2A
:1034760083C0DAFFDECF86F0DDCF87F08451862564
:10348600D96E85518721DA6E80C0DFFF20EE03F00A
:103496008251D9268351DA22DE2A000EDD2212005D
:1034A60003500410D8B45AEF1AF05CEF1AF065EF27
:1034B6001AF003500410D8A463EF1AF065EF1AF05F
:1034C6006AEF1AF0015007EC24F0B7EF1AF020EE7D
:1034D6000AF00350D9260450DA22DE50DE10D8B4A2
:1034E60077EF1AF079EF1AF094EF1AF020EE0AF05F
:1034F6000350D9260450DA2210EE03F00350E126D9
:103506000450E222DE50E65CE650800A096EDE5088
:10351600800A0958D8B092EF1AF094EF1AF0B7EF74
:103526001AF020EE03F00350D9260450DA22DECF3B
:1035360005F0DDCF06F003C0D9FF04C0DAFFDECF09
:1035460007F0DDCF08F005500724D96E0650082095
:10355600DA6E01C0DFFF20EE03F00350D9260450D7
:10356600DA22DE2A000EDD221200000E0001856F2F
:1035760083BFC2EF1AF0C0EF1AF0C8EF1AF0826DDF
:10358600831FD8B0832B010E856F81BFCFEF1AF052
:10359600CDEF1AF0D5EF1AF0806D811FD8B0812BD0
:1035A600010E851B000E876F000E866F82518311F8
:1035B600D8B4E0EF1AF0E2EF1AF00AEF1BF0010EB2
:1035C600846FEAEF1AF0D89082378337842B83AF63
:1035D600EFEF1AF0F1EF1AF0E6EF1AF0D89086370F
:1035E60087378251805D83518159D8A0FDEF1AF04B
:1035F600FFEF1AF004EF1BF08251805F8351815B6D
:103606008681D89083338233842FF1EF1AF0855167
:10361600D8B410EF1BF012EF1BF016EF1BF0866DFF
:10362600871FD8B0872B86C080F087C081F0120034
:10363600000E066E04BE24EF1BF022EF1BF02AEFED
:103646001BF0036C041ED8B0042A010E066E02BEDF
:1036560031EF1BF02FEF1BF037EF1BF0016C021E52
:10366600D8B0022A010E061A000E086E000E076E6A
:1036760003500410D8B442EF1BF044EF1BF06CEF7C
:103686001BF0010E056E4CEF1BF0D8900336043686
:10369600052A04AE51EF1BF053EF1BF048EF1BF069
:1036A600D890073608360350015C04500258D8A05B
:1036B6005FEF1BF061EF1BF066EF1BF00350015E3E
:1036C6000450025A0780D89004320332052E53EF75
:1036D6001BF00650D8B472EF1BF074EF1BF078EFB6
:1036E6001BF0076C081ED8B0082A07C001F008C0F6
:1036F60002F012000001DA6F15C1D6F016C1D7F03C
:1037060017C1D8F018C1D9F0000E0001DB6FD451F3
:10371600D511D8A491EF1BF093EF1BF095EF1BF09A
:10372600D8EF1BF0D4C080F0D5C081F0000E836FB7
:10373600000E826F000E856F040E846F9AEC12F0F5
:10374600D60E0001BE6F000EBF6F110EC06F100EB9
:10375600C16FDAC0C2F0C36B2CEC21F0C2EF1BF0D4
:10376600D60EDB25D96EDA6A000EDA22DB51D425B5
:10377600E16E000ED521E26EDFCFE7FFDB2BD60E22
:103786000001DB25D96EDA6A000EDA22DF50D8A4F2
:10379600CFEF1BF0D1EF1BF0B3EF1BF020EE03F0E1
:1037A600D451D926D551DA22DF6A1200000E000163
:1037B600856F81BFE3EF1BF0E1EF1BF0E9EF1BF034
:1037C600806D811FD8B0812B010E856F83BFF0EF0E
:1037D6001BF0EEEF1BF0F4EF1BF0826D831FD8B0E9
:1037E600832B82518311D8B4FBEF1BF0FDEF1BF046
:1037F60021EF1CF0010E846F05EF1CF0D890823784
:103806008337842B83AF0AEF1CF00CEF1CF001EF1B
:103816001CF08251805D83518159D8A015EF1CF0B0
:1038260017EF1CF01BEF1CF08251805F8351815B08
:10383600D89083338233842F0CEF1CF08551D8B493
:1038460027EF1CF029EF1CF02DEF1CF0806D811F77
:10385600D8B0812B80C080F081C081F01200596EF3
:1038660015C155F016C156F017C157F018C158F0DA
:10387600000E5A6E53505410D8A444EF1CF046EF75
:103886001CF048EF1CF089EF1CF053C001F054C047
:1038960002F0000E046E000E036E000E066E040E9D
:1038A600056E56EC13F0550E3F6E000E406E110E6F
:1038B600416E100E426E59C043F0446AC9EC21F0C5
:1038C60074EF1CF0550E5A24D96EDA6A000EDA220D
:1038D6005A505324E16E000E5420E26EDFCFE7FF0C
:1038E6005A2A550E5A24D96EDA6A000EDA22DF50A9
:1038F600D8A480EF1CF082EF1CF065EF1CF020EEE0
:1039060003F05350D9265450DA22DF6A1200000E13
:10391600066E02BE93EF1CF091EF1CF099EF1CF0BF
:10392600016C021ED8B0022A010E066E04BEA0EF7C
:103936001CF09EEF1CF0A4EF1CF0036C041ED8B024
:10394600042A03500410D8B4ABEF1CF0ADEF1CF002
:10395600D1EF1CF0010E056EB5EF1CF0D8900336C2
:103966000436052A04AEBAEF1CF0BCEF1CF0B1EF2A
:103976001CF00350015C04500258D8A0C5EF1CF09F
:10398600C7EF1CF0CBEF1CF00350015E0450025A47
:10399600D89004320332052EBCEF1CF00650D8B482
:1039A600D7EF1CF0D9EF1CF0DDEF1CF0016C021E06
:1039B600D8B0022A01C001F002C002F012000101D3
:1039C60073517411D8A4EAEF1CF0ECEF1CF0F0EF81
:1039D6001CF0000E766F29EF1DF0020E7325696F3D
:1039E600000E74216A6F7551010B6B6FC5EC14F0F4
:1039F6000101766F030E7325696F000E74216A6FDD
:103A0600D8907531010B6B6FC5EC14F00101766F20
:103A1600040E7325696F000E74216A6F7541E842C2
:103A26003F0B010B6B6FC5EC14F00101766F050EB1
:103A36007325696F000E74216A6F7539E8461F0B8E
:103A4600010B6B6FC5EC14F00101766F7651120015
:103A560000018A518B11D8A433EF1DF035EF1DF00C
:103A660039EF1DF0000E8D6F72EF1DF0020E8A25E4
:103A7600806F000E8B21816F8C51010B826F6DEC74
:103A860015F000018D6F030E8A25806F000E8B21C5
:103A9600816FD8908C31010B826F6DEC15F00001AF
:103AA6008D6F040E8A25806F000E8B21816F8C41ED
:103AB600E8423F0B010B826F6DEC15F000018D6F34
:103AC600050E8A25806F000E8B21816F8C39E846A2
:103AD6001F0B010B826F6DEC15F000018D6F8D5180
:103AE6001200010173517411D8B47CEF1DF07EEF02
:103AF6001DF09EEF1DF073C1D9FF74C1DAFFDF30F0
:103B0600E832E832070B756F080E75618DEF1DF010
:103B16008FEF1DF09EEF1DF073C1D9FF74C1DAFF60
:103B2600DF50070B756F040E75659CEF1DF09EEF59
:103B36001DF0A2EF1DF0000E766FBAEF1DF073C1F7
:103B460069F174C16AF111EC14F00101766F73C169
:103B560069F174C16AF173C1D9FF74C1DAFF000E4D
:103B6600DFBE010E6B6FC5EC14F00101766F765166
:103B760012000B500C10D8A4C3EF1DF0C5EF1DF0BA
:103B8600C9EF1DF0000E0E6EFEEF1DF0020E0B24A7
:103B9600016E000E0C20026E0D50010B036E15EC2B
:103BA60016F00E6E030E0B24016E000E0C20026E34
:103BB600D8900D30010B036E15EC16F00E6E040E48
:103BC6000B24016E000E0C20026E0D40E8423F0BE6
:103BD600010B036E15EC16F00E6E050E0B24016E2E
:103BE600000E0C20026E0D38E8461F0B010B036E0B
:103BF60015EC16F00E6E0E5012000001F551F6117E
:103C0600D8B408EF1EF00AEF1EF016EF1EF002D829
:103C160016EF1EF00500FA6EF551FD6EF651FE6EBA
:103C2600FF6AFA5012000001F351F411D8B41EEFE6
:103C36001EF020EF1EF02CEF1EF002D82CEF1EF027
:103C46000500FA6EF351FD6EF451FE6EFF6AFA50EE
:103C560012000001F151F211D8B434EF1EF036EF24
:103C66001EF042EF1EF002D842EF1EF00500FA6E7B
:103C7600F151FD6EF251FE6EFF6AFA50120012000B
:103C86000001F551F611D8B44BEF1EF04DEF1EF0C2
:103C960059EF1EF002D859EF1EF00500FA6EF551E5
:103CA600FD6EF651FE6EFF6AFA5012000001F351E6
:103CB600F411D8B461EF1EF063EF1EF06FEF1EF043
:103CC60002D86FEF1EF00500FA6EF351FD6EF45147
:103CD600FE6EFF6AFA5012000001F151F211D8B4DB
:103CE60077EF1EF079EF1EF085EF1EF002D885EF14
:103CF6001EF00500FA6EF151FD6EF251FE6EFF6A7E
:103D0600FA5012001200010177517811D8A48EEFF3
:103D16001EF090EF1EF094EF1EF0000E7A6FC3EFC8
:103D26001EF077C169F178C16AF1000E6B6FC5ECC0
:103D360014F001017A6F77C173F178C174F17939A2
:103D46000F0B756FE2EC1CF001017A6F77C173F10E
:103D560078C174F186EC20F001017A6F77C173F1B6
:103D660078C174F179C175F1E2EC1CF001017A6F4A
:103D760077C173F178C174F186EC20F001017A6F96
:103D86007A511200000195BFCBEF1EF0CDEF1EF069
:103D9600D3EF1EF094C099F095C09AF0D7EF1EF0BD
:103DA600000E9A6F000E996F000E986F000E976FB7
:103DB600EAEF1EF0000E816F200E806F90C082F039
:103DC60091C083F0EDEC19F00001974B982B9951B7
:103DD600975D9851800A966F9A51800A9659D8A095
:103DE600F7EF1EF0F9EF1EF0DDEF1EF092C089F03E
:103DF60093C08AF090C08BF091C08CF0EFEC21F06C
:103E0600120000018E518F11D8A40CEF1FF00EEF97
:103E16001FF012EF1FF0000E916F41EF1FF08EC0E2
:103E260080F08FC081F0010E826F6DEC15F00001FD
:103E3600916F8EC08AF08FC08BF090390F0B8C6F0C
:103E46002BEC1DF00001916F8EC08AF08FC08BF0B5
:103E5600DAEC20F00001916F8EC08AF08FC08BF0F3
:103E660090C08CF02BEC1DF00001916F8EC08AF093
:103E76008FC08BF0DAEC20F00001916F91511200A7
:103E860016BE48EF1FF04AEF1FF050EF1FF015C0A7
:103E96001AF016C01BF054EF1FF0000E1B6E000E3A
:103EA6001A6E000E196E000E186E66EF1FF0000EE9
:103EB600026E200E016E11C003F012C004F053EC26
:103EC6001AF0184A192A1A50185C1950800A176EE7
:103ED6001B50800A1758D8A073EF1FF075EF1FF01C
:103EE6005AEF1FF013C00AF014C00BF011C00CF00B
:103EF60012C00DF05AEC22F0120000018E518F1103
:103F0600D8A488EF1FF08AEF1FF08CEF1FF0BBEFED
:103F16001FF08EC080F08FC081F0000E826F6DECB6
:103F260015F00001916F8EC08AF08FC08BF090392A
:103F36000F0B8C6F2BEC1DF00001916F8EC08AF079
:103F46008FC08BF0DAEC20F00001916F8EC08AF002
:103F56008FC08BF090C08CF02BEC1DF00001916FA0
:103F66008EC08AF08FC08BF0DAEC20F00001916FE2
:103F760012000F501010D8A4C3EF1FF0C5EF1FF0AA
:103F8600C9EF1FF0000E126EF3EF1FF00FC001F025
:103F960010C002F0010E036E15EC16F0126E0FC083
:103FA6000BF010C00CF011380F0B0D6EBCEC1DF0B1
:103FB600126E0FC00BF010C00CF07CEC21F0126EEC
:103FC6000FC00BF010C00CF011C00DF0BCEC1DF0D2
:103FD600126E0FC00BF010C00CF07CEC21F0126ECC
:103FE600125012000F501010D8A4FCEF1FF0FEEF75
:103FF6001FF000EF20F02AEF20F00FC001F010C0F4
:1040060002F0000E036E15EC16F0126E0FC00BF0E8
:1040160010C00CF011380F0B0D6EBCEC1DF0126EBB
:104026000FC00BF010C00CF07CEC21F0126E0FC02C
:104036000BF010C00CF011C00DF0BCEC1DF0126EB0
:104046000FC00BF010C00CF07CEC21F0126E1200C9
:10405600180EF66E470EF76E000EF86E01EEB0F013
:1040660010EE24F00900F5CFEEFFE550E150FAE13D
:10407600100EF66E480EF76E000EF86E0900F5CFBC
:104086007EF001EE00F0690EEE6AE806FDE100EE54
:10409600EFF0110EEE6AE806FDE100EE6BF0130E8E
:1040A600EE6AE806FDE17F907F9200012DEF23F096
:1040B6007FA260EF20F013EF22F011C1DCF012C1F5
:1040C600DDF013C1DEF014C1DFF00001FE2BDC0EC3
:1040D600D46F000ED56FFE517DEC1BF0CE0E0001A5
:1040E6008E6F010E8F6F010E906F80EC1FF0CE0E5B
:1040F6000001926F010E936FDC0E946F000E956FA8
:1041060004EC21F01200010173517411D8A48EEF52
:1041160020F090EF20F094EF20F0000E756FAEEFD8
:1041260020F0010E7325696F000E74216A6F010E6F
:104136006B6FC5EC14F000D000D000F0010E010149
:104146007325696F000E74216A6F000E6B6FC5ECE4
:1041560014F00101756F75511200B8C0BCF0B9C0FA
:10416600BDF0C5EF20F0B6C0A8F0B7C0A9F0BC0EF0
:104176000001AA6F000EAB6FBAC0ACF0BBC0ADF0C9
:10418600BAEC16F0BCC0F6FFBDC0F7FFF86A08002F
:10419600F5500009D8A4D2EF20F0D4EF20F0B6EF06
:1041A60020F0000E0001B76F000EB66F120000017E
:1041B6008A518B11D8A4E2EF20F0E4EF20F0E8EF6B
:1041C60020F0000E8C6F02EF21F0010E8A25806F21
:1041D600000E8B21816F010E826F6DEC15F000D001
:1041E60000D000F0010E00018A25806F000E8B21A1
:1041F600816F000E826F6DEC15F000018C6F8C5193
:104206001200000192519311D8A40CEF21F00EEF89
:1042160021F01FEF21F02BEF21F092C08EF093C01A
:104226008FF094C0D9FF95C0DAFFDF50906F04EC91
:104236001FF00001944B952B94C0D9FF95C0DAFF6F
:10424600DF50D8A429EF21F02BEF21F010EF21F059
:104256001200C20E0001C66F000EC76FBEC0C8F0C6
:10426600BFC0C9F0000ECC6F000ECB6F000ED36F2F
:10427600000ED26FC80EB66F000EB76FC0C0B8F092
:10428600C1C0B9F0C60EBA6F000EBB6FB0EC20F01D
:104296000001CB51BE25D96ECC51BF21DA6EDF6A43
:1042A600120039C03DF03AC03EF068EF21F037C049
:1042B60029F038C02AF03D0E2B6E000E2C6E3BC046
:1042C6002DF03CC02EF052EC17F03DC0F6FF3EC07C
:1042D600F7FFF86A0800F5500009D8A475EF21F039
:1042E60077EF21F05AEF21F0000E386E000E376E90
:1042F60012000B500C10D8A483EF21F085EF21F0AB
:1043060089EF21F0000E0D6EA1EF21F0010E0B24B6
:10431600016E000E0C20026E010E036E15EC16F0F7
:1043260000D000D000F0010E0B24016E000E0C2010
:10433600026E000E036E15EC16F00D6E0D50120097
:1043460013501410D8A4AAEF21F0ACEF21F0BCEF63
:1043560021F0C8EF21F013C00FF014C010F015C003
:10436600D9FF16C0DAFFDF50116EBCEC1FF0154AFC
:10437600162A15C0D9FF16C0DAFFDF50D8A4C6EF3B
:1043860021F0C8EF21F0AEEF21F01200430E456E8A
:10439600000E466E3FC047F040C048F0000E4B6E20
:1043A600000E4A6E000E526E000E516E470E376EAC
:1043B600000E386E41C039F042C03AF0450E3B6EF1
:1043C600000E3C6E54EC21F04A503F24D96E4B50FF
:1043D6004020DA6EDF6A1200000E00018F6F000EB9
:1043E6008E6F02EF22F08DC080F0816B8BC082F061
:1043F6008CC083F0EDEC19F000018E4B8F2B8E51A3
:104406008925D96E8F518A21DA6EDF508D6F8D51D5
:10441600D8A410EF22F012EF22F0F6EF21F01200EE
:1044260011C15BF012C15CF013C15DF014C15EF006
:104436000001FE2B5B0E536E000E546EFE5132ECE5
:104446001CF0CE0E0F6E010E106E010E116EF5EC05
:104456001FF0CE0E136E010E146E5B0E156E000E5F
:10446600166EA3EC21F012000101AC51AD11D8A4D7
:104476003FEF22F041EF22F043EF22F059EF22F016
:10448600AB9E948C948EACC1A0F1ADC1A1F10BECA6
:1044960008F0ACC169F1ADC16AF1FBEC18F0ACC132
:1044A60069F1ADC16AF1E9EC17F0AB8E1200000EAE
:1044B600106E000E0F6E6BEF22F00EC001F0026A56
:1044C6000CC003F00DC004F053EC1AF00F4A102A8A
:1044D6000F500A24D96E10500B20DA6EDF500E6E84
:1044E6000E50D8A479EF22F07BEF22F060EF22F095
:1044F6001200000187BF8AEF22F0875106E1860588
:10450600D8B088EF22F08AEF22F098EF22F086C02A
:1045160088F087C089F0881F891F884B892B88C03F
:1045260086F089C087F09CEF22F086C086F087C0AF
:1045360087F0120008BEAAEF22F0085006E1070431
:10454600D8B0A8EF22F0AAEF22F0B8EF22F007C009
:1045560009F008C00AF0091E0A1E094A0A2A09C0FB
:1045660007F00AC008F0BCEF22F007C007F008C049
:1045760008F012007FA2C2EF22F075EF23F0FF0EC3
:104586000001806F000E816FFAEC22F0CE0E000162
:104596008E6F010E8F6F010E906F80EC1FF0CE0EA6
:1045A60000018E6F010E8F6FFFC090F004EC1FF0BC
:1045B6001200800E0101576F250E586F000E596FBD
:1045C600000E5A6F7A0E636F450E646FB60E616FFA
:1045D600400E626F030E5B6F5C8B5C8D5E8B5E8D37
:1045E600570EAC6F010EAD6F37EC22F012000001D2
:1045F60080518111D8A402EF23F004EF23F006EFD7
:1046060023F013EF23F09EAA0BEF23F00DEF23F018
:1046160013EF23F080C0D9FF81C0DAFFAECFDFFFF2
:10462600120001500210D8A41BEF23F01DEF23F057
:104636001FEF23F02CEF23F09EAA24EF23F026EFA2
:1046460023F02CEF23F001C0D9FF02C0DAFFAECF72
:10465600DFFF1200D7EC23F0ABEC23F06D0E9EECDF
:1046660023F0080E0101AF6F9D0EAE6F050EE82E0A
:10467600FED7AE2FFCD7AF2FFAD700D031EF23F0FD
:1046860070EF01F09D980001F751F811D8B44EEF84
:1046960023F050EF23F05CEF23F002D85CEF23F019
:1046A6000500FA6EF751FD6EF851FE6EFF6AFA507C
:1046B600120012009D980001F751F811D8B466EF68
:1046C60023F068EF23F074EF23F002D874EF23F0A1
:1046D6000500FA6EF751FD6EF851FE6EFF6AFA504C
:1046E60012001200FF0E016E000E026E14EC23F093
:1046F600CE0E0F6E010E106E010E116EF5EC1FF050
:10470600CE0E0F6E010E106EFFC011F0BCEC1FF046
:104716001200800F810F820F830F840F890F8A0F7B
:104726008B0F8C0F8D0F920F930F940F950F960F83
:10473600030B131B232B0101696FACA2A5EF23F01A
:10474600A7EF23F0AAEF23F069C1ADFF9D88120001
:10475600CE0E01017B6F010E7C6F75EC19F0120015
:104766006C50B36E6BC0B2FFA19212006E50CF6E4A
:104776006DC0CEFF9E9012007050D76E6FC0D6FFF0
:10478600F29412006C50B36E6BC0B2FFA19212008D
:104796006E50CF6E6DC0CEFF9E9012007050D76ED9
:1047A6006FC0D6FFF2941200DCEC22F0120072C049
:1047B600CCFF120072C0CCFF1200F2901200F290F1
:1047C6001200F2901200F2901200F0921200F09095
:1047D6001200A19012009E9412009E9C1200F2906C
:1047E6001200F2901200F2901200F2901200F09273
:1047F6001200F0901200A19012009E9412009E9C4E
:0B4806001200F292120012001200716A
:020000040030CA
:0E000000FF02091EFF8181FF0FC00FE00F40BD
:00000001FF
