:0400000018EF01F004
:06000800618211ED08F019
:100018006180D8CF56F0E8CF57F0E0CF58F0FACF4C
:1000280059F0FBCF5AF0D9CF5BF0DACF5CF0F3CFC1
:100038005DF0F4CF5EF0F0BC24EF00F026EF00F0A6
:100048002FEF00F0F0A02BEF00F02DEF00F02FEFD6
:1000580000F046EC10F0F0BE34EF00F036EF00F0A0
:100068003FEF00F0F0A23BEF00F03DEF00F03FEF74
:1000780000F044EC10F0F1B044EF00F046EF00F06F
:100088005CEF00F0F2A04BEF00F04DEF00F05CEFFA
:1000980000F081380F0B010B2318D8B456EF00F08D
:1000A80058EF00F05CEF00F0010E231A42EC10F05C
:1000B800F1B061EF00F063EF00F07AEF00F0F2A02A
:1000C80068EF00F06AEF00F07AEF00F08138E8425C
:1000D800070B010B2218D8B474EF00F076EF00F08C
:1000E8007AEF00F0010E221A40EC10F0F1B07FEF29
:1000F80000F081EF00F098EF00F0F2A086EF00F03A
:1001080088EF00F098EF00F08144E846030B010BFC
:100118002118D8B492EF00F094EF00F098EF00F0B7
:10012800010E211A3EEC10F0F1B09DEF00F09FEFA8
:1001380000F0B4EF00F0F2A0A4EF00F0A6EF00F09A
:10014800B4EF00F08144010B2018D8B4AEEF00F0F2
:10015800B0EF00F0B4EF00F0010E201A3CEC10F004
:100168009FBCB9EF00F0BBEF00F0C4EF00F09EAC0D
:10017800C0EF00F0C2EF00F0C4EF00F048EC10F060
:10018800F1B4C9EF00F0CBEF00F0D4EF00F0F2A427
:10019800D0EF00F0D2EF00F0D4EF00F01DEC10F03B
:1001A8009FB0D9EF00F0DBEF00F0E4EF00F09EA085
:1001B800E0EF00F0E2EF00F0E4EF00F017EC10F0F1
:1001C8009FB2E9EF00F0EBEF00F0F4EF00F09EA231
:1001D800F0EF00F0F2EF00F0F4EF00F034EC10F084
:1001E800A2B2F9EF00F0FBEF00F004EF01F0A1A2DA
:1001F80000EF01F002EF01F004EF01F093EC0FF0D3
:100208005EC0F4FF5DC0F3FF5CC0DAFF5BC0D9FFDE
:100218005AC0FBFF59C0FAFF58C0E0FF57C0E8FFBB
:0C02280056C0D8FF6190100044EF0FF0AA
:10100000003738392F3435362A3132332D23303DED
:101010002B436F756E746572203D2020002569009A
:0110200000CF
:101022000600FACF44F0FBCF45F0D9CF46F0DACF35
:1010320047F0F3CF48F0F4CF49F0F2A823EF08F0DD
:1010420025EF08F02EEF08F0F2A22AEF08F02CEFBD
:1010520008F02EEF08F058EC10F0F0AC33EF08F087
:1010620035EF08F03EEF08F0F0A03AEF08F03CEF61
:1010720008F03EEF08F054EC10F0F0AE43EF08F049
:1010820045EF08F04EEF08F0F0A24AEF08F04CEFFF
:1010920008F04EEF08F052EC10F0F1A053EF08F018
:1010A20055EF08F06BEF08F0F2A05AEF08F05CEF92
:1010B20008F06BEF08F081380F0B010B2318D8B43E
:1010C20065EF08F067EF08F06BEF08F0010E231AE6
:1010D20050EC10F0F1A070EF08F072EF08F089EF19
:1010E20008F0F2A077EF08F079EF08F089EF08F046
:1010F2008138E842070B010B2218D8B483EF08F0BD
:1011020085EF08F089EF08F0010E221A4EEC10F07C
:10111200F1A08EEF08F090EF08F0A7EF08F0F2A030
:1011220095EF08F097EF08F0A7EF08F08144E84642
:10113200030B010B2118D8B4A1EF08F0A3EF08F0BC
:10114200A7EF08F0010E211A4CEC10F0F1A0ACEF61
:1011520008F0AEEF08F0C3EF08F0F2A0B3EF08F02A
:10116200B5EF08F0C3EF08F08144010B2018D8B4A2
:10117200BDEF08F0BFEF08F0C3EF08F0010E201A30
:101182004AEC10F09FACC8EF08F0CAEF08F0D3EFBA
:1011920008F09EACCFEF08F0D1EF08F0D3EF08F0E3
:1011A20056EC10F0F1A4D8EF08F0DAEF08F0E3EF14
:1011B20008F0F2A4DFEF08F0E1EF08F0E3EF08F047
:1011C20029EC10F09FA0E8EF08F0EAEF08F0F3EF47
:1011D20008F09EA0EFEF08F0F1EF08F0F3EF08F04F
:1011E20023EC10F09FA2F8EF08F0FAEF08F003EFFB
:1011F20009F09EA2FFEF08F001EF09F003EF09F0FA
:1012020038EC10F0A2A208EF09F00AEF09F013EF90
:1012120009F0A1A20FEF09F011EF09F013EF09F0A5
:10122200AEEC0FF049C0F4FF48C0F3FF47C0DAFF4D
:1012320046C0D9FF45C0FBFF44C0FAFF61921100CE
:10124200010E0001AC6FA451A511D8B42BEF09F027
:101252002DEF09F04DEF09F0A4C0D9FFA5C0DAFFC8
:10126200DF30E832E832070BA66F080EA6613CEFCA
:1012720009F03EEF09F04DEF09F0A4C0D9FFA5C077
:10128200DAFFDF50070BA66F040EA6654BEF09F0DD
:101292004DEF09F0B2EF09F0000EAC6FD3EF09F099
:1012A200A4C0D9FFA5C0DAFFDF30E832E832070B6D
:1012B200A66F010EA76FA62B61EF09F0D890A73792
:1012C200A62F5FEF09F00001A751FF0AA86FA4C083
:1012D200D9FFA5C0DAFFDF50070BA96FA951020D94
:1012E200940EF324D96E000EF420DA6EDECFAAF04B
:1012F200DDCFABF0AAC0D9FFABC0DAFFA851DF1631
:10130200D3EF09F0A4C0D9FFA5C0DAFFDF30E8327D
:10131200E832070BA66F010EA76FA62B93EF09F019
:10132200D890A737A62F91EF09F0A4C0D9FFA5C086
:10133200DAFFDF50070B0001A86FA851020D940ECF
:10134200F324D96E000EF420DA6EDECFA9F0DDCFE1
:10135200AAF0A9C0D9FFAAC0DAFFA751DF12D3EFC2
:1013620009F0A4C0D9FFA5C0DAFFDFBCBBEF09F0CA
:10137200BEEF09F0010EBFEF09F0000EA66FA76BDA
:10138200A751000AD8B4C8EF09F04DEF09F0A651F1
:10139200000AD8B451EF09F0010AD8B483EF09F07A
:1013A2004DEF09F0AC511200010E0001AD6FA451D6
:1013B200A511D8B4DFEF09F0E1EF09F001EF0AF06F
:1013C200A4C0D9FFA5C0DAFFDF30E832E832070B4C
:1013D200A76F080EA761F0EF09F0F2EF09F001EF35
:1013E2000AF0A4C0D9FFA5C0DAFFDF50070BA76F30
:1013F200040EA765FFEF09F001EF0AF066EF0AF0AD
:10140200000EAD6F7BEF0AF0A4C0D9FFA5C0DAFFD2
:10141200DF30E832E832070BA76F010EA86FA72B67
:1014220015EF0AF0D890A837A72F13EF0AF0A4C03F
:10143200D9FFA5C0DAFFDF50070B0001A96FA95140
:10144200020D8A0EF324D96E000EF420DA6EDECF7E
:10145200AAF0DDCFABF0AAC0D9FFABC0DAFFA8512A
:10146200DF127BEF0AF0A4C0D9FFA5C0DAFFDF309C
:10147200E832E832070BA76F010EA86FA72B44EFE3
:101482000AF0D890A837A72F42EF0AF00001A8511E
:10149200FF0AA96FA4C0D9FFA5C0DAFFDF50070B6E
:1014A200AA6FAA51020D8A0EF324D96E000EF420FF
:1014B200DA6EDECFABF0DDCFACF0ABC0D9FFACC0A3
:1014C200DAFFA951DF167BEF0AF0A651A76FA86BCE
:1014D200A851000AD8B470EF0AF001EF0AF0A75140
:1014E200000AD8B434EF0AF0010AD8B405EF0AF0C2
:1014F20001EF0AF0AD511200010E0001AA6FA651D0
:10150200A711D8A487EF0AF089EF0AF08DEF0AF04D
:10151200000EAA6FF4EF0AF0B19020EE05F0A6518A
:10152200D926A751DA22DF50030BA86FA83BB1508E
:10153200A819CF0BA819B16EA6C0A4F0A7C0A5F038
:1015420052EC0DF0000120EE03F0A651D926A7516E
:10155200DA22DECFA8F0DDCFA9F0A9C0A8F0A96BEE
:10156200A851B36E20EE03F0A651D926A751DA2274
:10157200DF50B26E20EE03F0A651D926A751DA222F
:10158200DECF01F0DDCF02F0A082A192A6C0D9FF8A
:10159200A7C0DAFFDECF03F0DDCF04F0D08E20EE5D
:1015A20002F0A651D926A751DA22DE04D8A4DCEF34
:1015B2000AF0DEEF0AF0E2EF0AF0A282F28EF3EF17
:1015C2000AF020EE02F0A651D926A751DA22DF5006
:1015D200D8A4EEEF0AF0F0EF0AF0F3EF0AF0A292CD
:1015E200F28EF28CB180AA511200000E0001BA6F85
:1015F200B651B711D8A400EF0BF002EF0BF006EFD3
:101602000BF0000EBB6F6CEF0BF0B6C0AEF0B7C0C4
:10161200AFF0CAEC0CF00001BB6F010EB625AE6F45
:10162200000EB721AF6FCAEC0CF00001BB6F000EC9
:10163200BA6FBA51B625B86F000EB721B96F020E54
:10164200B825AE6F000EB921AF6FCAEC0CF00001E5
:10165200BA2B030EBA6530EF0BF032EF0BF01AEF34
:101662000BF0B6C0B2F0B7C0B3F0330EB46FD1EC2A
:101672000DF0640EE82EFED7B6C0B2F0B7C0B3F0DC
:10168200320E0001B46FD1EC0DF0B6C0B2F0B7C0AB
:10169200B3F0280E0001B46FD1EC0DF0B6C0B2F079
:1016A200B7C0B3F0010E0001B46FD1EC0DF0B6C0BB
:1016B200B2F0B7C0B3F0060E0001B46FD1EC0DF07A
:1016C200B6C0B2F0B7C0B3F00C0E0001B46FD1ECEB
:1016D2000DF00001BB6FBB511200010E516E4A505A
:1016E2004B10D8B477EF0BF079EF0BF099EF0BF0CA
:1016F2004AC0D9FF4BC0DAFFDF30E832E832070BCD
:101702004C6E080E4C6088EF0BF08AEF0BF099EFED
:101712000BF04AC0D9FF4BC0DAFFDF50070B4C6E0B
:10172200040E4C6497EF0BF099EF0BF09DEF0BF06A
:10173200000E516EC9EF0BF04AC0D9FF4BC0DAFF61
:10174200DF30E832E832070B4C6E010E4D6E4C2A48
:10175200ADEF0BF0D8904D364C2EABEF0BF04AC0EC
:10176200D9FF4BC0DAFFDF50070B4E6E4E50020D11
:101772008A0EF324D96E000EF420DA6EDECF4FF01B
:10178200DDCF50F04FC0D9FF50C0DAFF4D50DF1A05
:1017920051501200010E3F6E38503910D8B4D4EFB8
:1017A2000BF0D6EF0BF0F6EF0BF038C0D9FF39C0D3
:1017B200DAFFDF30E832E832070B3A6E080E3A60A1
:1017C200E5EF0BF0E7EF0BF0F6EF0BF038C0D9FFC7
:1017D20039C0DAFFDF50070B3A6E040E3A64F4EFB9
:1017E2000BF0F6EF0BF0FAEF0BF0000E3F6E26EF68
:1017F2000CF038C0D9FF39C0DAFFDF30E832E83206
:10180200070B3A6E010E3B6E3A2A0AEF0CF0D890A3
:101812003B363A2E08EF0CF038C0D9FF39C0DAFF58
:10182200DF50070B3C6E3C50020D8A0EF324D96E3A
:10183200000EF420DA6EDECF3DF0DDCF3EF03DC08B
:10184200D9FF3EC0DAFF3B50DF1A3F5012000001C1
:10185200B651B711D8A430EF0CF032EF0CF034EFE0
:101862000CF080EF0CF0B90763EF0CF0B6C0B2F0E9
:10187200B7C0B3F0B951800FB46FD1EC0DF080EF67
:101882000CF0B6C0B2F0B7C0B3F0B951C00FB46F2C
:10189200D1EC0DF080EF0CF0B6C0B2F0B7C0B3F0EF
:1018A200B951940FB46FD1EC0DF080EF0CF0B6C0CB
:1018B200B2F0B7C0B3F0B951D40FB46FD1EC0DF0A0
:1018C20080EF0CF0B851BA6FBB6BBB51000AD8B4B1
:1018D2006DEF0CF032EF0CF0BA51010AD8B437EFC9
:1018E2000CF0030AD8B442EF0CF0010AD8B44DEF61
:1018F2000CF0070AD8B458EF0CF032EF0CF01200DB
:101902000001AE51AF11D8A489EF0CF08BEF0CF0AF
:101912008FEF0CF0000EB16FC8EF0CF0020EAE2587
:10192200A46F000EAF21A56FB051010BA66FD5ECCD
:1019320009F00001B16F030EAE25A46F000EAF21B6
:10194200A56FD890B031010BA66FD5EC09F000015C
:10195200B16F040EAE25A46F000EAF21A56FB0418A
:10196200E8423F0B010BA66FD5EC09F00001B16F05
:10197200050EAE25A46F000EAF21A56FB039E84663
:101982001F0B010BA66FD5EC09F00001B16FB1512D
:1019920012000001AE51AF11D8B4D2EF0CF0D4EF67
:1019A2000CF0F4EF0CF0AEC0D9FFAFC0DAFFDF30BD
:1019B200E832E832070BB06F080EB061E3EF0CF0CB
:1019C200E5EF0CF0F4EF0CF0AEC0D9FFAFC0DAFFD8
:1019D200DF50070BB06F040EB065F2EF0CF0F4EFBE
:1019E2000CF0F8EF0CF0000EB16F10EF0DF0AEC07E
:1019F200A4F0AFC0A5F021EC09F00001B16FAEC0B8
:101A0200A4F0AFC0A5F0AEC0D9FFAFC0DAFF000EA0
:101A1200DFBE010EA66FD5EC09F00001B16FB15126
:101A220012002AC0B6F0B2C0D9FFB3C0DAFFDF504D
:101A32000F0B0001B46FB651B419F80BB419B66F9D
:101A4200B2C0D9FFB3C0DAFFDF38070BB46FB447B7
:101A5200B447B447B651B419C70BB419B66FB69DA3
:101A6200B2C0D9FFB3C0DAFFDFAE02D0B68F02D068
:101A72000001B69FB251B311D8A442EF0DF044EF6A
:101A82000DF048EF0DF0000EB56F50EF0DF0B60EF1
:101A9200AE6F000EAF6FCAEC0CF00001B56FB5511E
:101AA2001200000120EE05F0A451D926A551DA2238
:101AB200DFB45EEF0DF060EF0DF063EF0DF0B19269
:101AC20091EF0DF020EE05F0A451D926A551DA22AE
:101AD200DFA46EEF0DF070EF0DF091EF0DF0B1821B
:101AE20020EE05F0A451D926A551DA22DFB67CEF0B
:101AF2000DF07EEF0DF081EF0DF0B19491EF0DF04E
:101B020020EE05F0A451D926A551DA22DFA68CEFEA
:101B12000DF08EEF0DF091EF0DF0B18491EF0DF01D
:101B220012000001B251B311D8A49AEF0DF09CEF4C
:101B32000DF0A0EF0DF0000EB56FCFEF0DF0B2C0BB
:101B4200A4F0B3C0A5F0010EA66FD5EC09F0000118
:101B5200B56FB2C0AEF0B3C0AFF0B4390F0BB06F17
:101B620081EC0CF00001B56FB2C0AEF0B3C0AFF0C3
:101B720019EC0FF00001B56FB2C0AEF0B3C0AFF018
:101B8200B4C0B0F081EC0CF00001B56FB2C0AEF0A1
:101B9200B3C0AFF019EC0FF00001B56FB5511200F0
:101BA2000001B251B311D8A4D9EF0DF0DBEF0DF063
:101BB200DFEF0DF0000EB56F0EEF0EF0B2C0A4F025
:101BC200B3C0A5F0000EA66FD5EC09F00001B56F09
:101BD200B2C0AEF0B3C0AFF0B4390F0BB06F81EC4E
:101BE2000CF00001B56FB2C0AEF0B3C0AFF019ECAB
:101BF2000FF00001B56FB2C0AEF0B3C0AFF0B4C029
:101C0200B0F081EC0CF00001B56FB2C0AEF0B3C021
:101C1200AFF019EC0FF00001B56FB55112000001E1
:101C2200BC51BD11D8A418EF0EF01AEF0EF01CEF44
:101C32000EF048EF0EF0BCC0B6F0BDC0B7F0BEC0AB
:101C4200B8F0BFC0B9F028EC0CF039EF0EF0BCC010
:101C5200B2F0BDC0B3F0C0C0F6FFC1C0F7FFF86A72
:101C62000800F5CFB4F092EC0DF00001C04BC12B8F
:101C7200C0C0F6FFC1C0F7FFF86A0800F5500009BE
:101C8200D8A446EF0EF048EF0EF028EF0EF0120047
:101C920027C055F052C0D9FF53C0DAFFDF500F0BF7
:101CA200546E55505418F80B5418556E52C0D9FF43
:101CB20053C0DAFFDF38070B546E5446544654467D
:101CC20055505418C70B5418556E559C52C0D9FF25
:101CD20053C0DAFFDFAE02D0558E01D0559E52506E
:101CE2005310D8A477EF0EF079EF0EF07BEF0EF0E1
:101CF20081EF0EF0550E4A6E000E4B6E6EEC0BF03D
:101D0200120027C043F040C0D9FF41C0DAFFDF50C4
:101D12000F0B426E43504218F80B4218436E40C0FC
:101D2200D9FF41C0DAFFDF38070B426E4246424616
:101D3200424643504218C70B4218436E439C40C070
:101D4200D9FF41C0DAFFDFAE02D0438E01D0439EFD
:101D520040504110D8A4B0EF0EF0B2EF0EF0B4EF45
:101D62000EF0BAEF0EF0430E386E000E396ECBEC69
:101D72000BF01200000E0001AA6F000EAB6FA4510F
:101D8200A511D8B4C7EF0EF0C9EF0EF0D2EF0EF0E6
:101D9200A651A711D8A4D0EF0EF0D2EF0EF0D4EFD7
:101DA2000EF0EAEF0EF0B2CFAAF0B3CFABF0AA5129
:101DB200ABC0A8F0A96BA8C0A9F0A86BA813000E2D
:101DC200A913A6C0D9FFA7C0DAFFA8C0DEFFA9C029
:101DD200DDFF12002FEC10F02B0E0001A46F000E9D
:101DE200A56F370EA66F000EA76FBBEC0EF09E0E0E
:101DF2000001BC6F000EBD6F010EBE6F010EBF6F02
:101E0200110EC06F100EC16F10EC0EF09E0E00018D
:101E1200BC6F000EBD6F010EBE6F0B0EBF6F375051
:101E2200300FC06F6EEC0FF0EDEF0EF018EF01F017
:101E32000001AE51AF11D8A421EF0FF023EF0FF044
:101E420027EF0FF0000EB06F42EF0FF0010EAE253C
:101E5200A46F000EAF21A56F010EA66FD5EC09F09D
:101E6200030EE82EFED700F0010E0001AE25A46F8E
:101E7200000EAF21A56F000EA66FD5EC09F0000190
:101E8200B06FB0511200C00EF66E1F0EF76E000E4C
:101E9200F86E00EE80F010EE24F00900F5CFEEFFB0
:101EA200E550E150FAE1B40EF66E200EF76E000E28
:101EB200F86E0900F5CF60F000EEC2F0150EEE6A82
:101EC200E806FDE100EE01F0370EEE6AE806FDE1FC
:101ED200619061920001EBEF0EF0010E0001C16F03
:101EE200BC51BD11D8A478EF0FF07AEF0FF07EEF5E
:101EF2000FF0000EC16F90EF0FF0BCC0B6F0BDC086
:101F0200B7F0BEC0B8F0BFC0B9F028EC0CF0BCC04E
:101F1200B2F0BDC0B3F0C0C0B4F092EC0DF000015D
:101F2200C15112000250B36E01C0B2FFA192035020
:101F32000410D8B49FEF0FF0A1EF0FF0ADEF0FF048
:101F420002D8ADEF0FF00500FA6E0350FD6E04509B
:101F5200FE6EFF6AFA50120012000250B36E01C008
:101F6200B2FFA19203500410D8B4BAEF0FF0BCEF45
:101F72000FF0C8EF0FF002D8C8EF0FF00500FA6EAD
:101F82000350FD6E0450FE6EFF6AFA5012001200FA
:101F9200000E2B6E000E2C6EFC0E3016010E2D6EF6
:101FA2003084000E2F6E000E2E6E30962B0E000126
:101FB200A66F000EA76F7DEC0AF05F6E1200800F15
:101FC200810F820F830F840F890F8A0F8B0F8C0F63
:101FD2008D0F920F930F940F950F960F030B131BF8
:101FE200232B9E0E0001B66F000EB76FF6EC0AF0BF
:101FF2000001BC6F600EB26F000EB36F12EC0DF0F9
:102002000001BC17120061A209EF10F010EF10F0EE
:10201200600E526E000E536E49EC0EF01200600E0E
:10202200406E000E416E82EC0EF012000850CF6E30
:1020320007C0CEFF9E9012000C50D76E0BC0D6FF89
:10204200F29412000850CF6E07C0CEFF9E9012008D
:102052000C50D76E0BC0D6FFF2941200F2EC0FF0C8
:10206200C9EC0FF012001FC0CCFF9E9212001FC0DD
:10207200CCFF9E921200F2901200F2901200F290A7
:102082001200F2901200F0921200F09012009E9C48
:102092001200F2901200F2901200F2901200F290EE
:1020A2001200F0921200F09012009E9C1200F29226
:0320B200120071A8
:020000040030CA
:0E000000FF02091EFF8181FF0FC00FE00F40BD
:00000001FF
