:0400000056EF0EF0B9
:10100000003738392F3435362A3132332D23303DED
:051010002B2569000022
:1010160058EC0FF0420E666E000E676E010E686E9B
:10102600140E696E3A0E6A6E000E6B6E000E6C6ED2
:10103600A6EC0DF0020E726E450E716EAA0EE82E2B
:10104600FED7712EFCD7722EFAD7420E666E000EB0
:10105600676E010E686E140E696E320E6A6E000EB1
:101066006B6E000E6C6EA6EC0DF0020E726E450EE7
:10107600716EAA0EE82EFED7712EFCD7722EFAD705
:10108600420E666E000E676E010E686E140E696E75
:101096002A0E6A6E000E6B6E000E6C6EA6EC0DF0DC
:1010A600020E726E450E716EAA0EE82EFED7712ED6
:1010B600FCD7722EFAD7420E666E000E676E010ED0
:1010C600686E140E696E980E6A6E000E6B6E000ED8
:1010D6006C6EA6EC0DF0020E726E450E716EAA0EC7
:1010E600E82EFED7712EFCD7722EFAD7420E666E08
:1010F600000E676E010E686E140E696E900E6A6EB3
:10110600000E6B6E000E6C6EA6EC0DF0020E726E8B
:10111600450E716EAA0EE82EFED7712EFCD7722EE2
:10112600FAD7420E666E000E676E010E686E140EDA
:10113600696E880E6A6E000E6B6E000E6C6EA6EC03
:101146000DF0020E726E450E716EAA0EE82EFED7D7
:10115600712EFCD7722EFAD7200E696E000E6A6EBB
:10116600010E6B6E140E6C6E3A0E6D6E000E6E6E88
:10117600000E6F6E68EC0DF0020E726E450E716E0B
:10118600AA0EE82EFED7712EFCD7722EFAD7200EA5
:10119600696E000E6A6E010E6B6E140E6C6E320E68
:1011A6006D6E000E6E6E000E6F6E68EC0DF0020E28
:1011B600726E450E716EAA0EE82EFED7712EFCD702
:1011C600722EFAD7200E696E000E6A6E010E6B6ED5
:1011D600140E6C6E2A0E6D6E000E6E6E000E6F6E25
:1011E60068EC0DF0020E726E450E716EAA0EE82EB8
:1011F600FED7712EFCD7722EFAD7200E696E000E1E
:101206006A6E010E6B6E140E6C6E980E6D6E000E8D
:101216006E6E000E6F6E68EC0DF0020E726E450E6D
:10122600716EAA0EE82EFED7712EFCD7722EFAD753
:10123600200E696E000E6A6E010E6B6E140E6C6ED9
:10124600900E6D6E000E6E6E000E6F6E68EC0DF0F9
:10125600020E726E450E716EAA0EE82EFED7712E24
:10126600FCD7722EFAD7200E696E000E6A6E010E3A
:101276006B6E140E6C6E880E6D6E000E6E6E000E2A
:101286006F6E68EC0DF0020E726E450E716EAA0E50
:10129600E82EFED7712EFCD7722EFAD70DEF08F086
:1012A60000EF00F0010E506E48504910D8B45EEFC2
:1012B60009F060EF09F080EF09F048C0D9FF49C096
:1012C600DAFFDF30E832E832070B4A6E080E4A6072
:1012D6006FEF09F071EF09F080EF09F048C0D9FF10
:1012E60049C0DAFFDF50070B4A6E040E4A647EEFF0
:1012F60009F080EF09F0E3EF09F0000E506E04EFFD
:101306000AF048C0D9FF49C0DAFFDF30E832E832D8
:10131600070B4A6E010E4B6E4A2A94EF09F0D890DD
:101326004B364A2E92EF09F04B50FF0A4C6E48C0DE
:10133600D9FF49C0DAFFDF50070B4D6E4D50020D45
:10134600150EF324D96E000EF420DA6EDECF4EF0C1
:10135600DDCF4FF04EC0D9FF4FC0DAFF4C50DF163D
:1013660004EF0AF048C0D9FF49C0DAFFDF30E8329F
:10137600E832070B4A6E010E4B6E4A2AC5EF09F09A
:10138600D8904B364A2EC3EF09F048C0D9FF49C062
:10139600DAFFDF50070B4C6E4C50020D150EF3248E
:1013A600D96E000EF420DA6EDECF4DF0DDCF4EF0B2
:1013B6004DC0D9FF4EC0DAFF4B50DF1204EF0AF0E2
:1013C60048C0D9FF49C0DAFFDFBCECEF09F0EFEF08
:1013D60009F0010EF0EF09F0000E4A6E4B6A4B5011
:1013E600000AD8B4F9EF09F080EF09F04A50000A74
:1013F600D8B484EF09F0010AD8B4B5EF09F080EF4C
:1014060009F050501200010E516E48504910D8B4E0
:101416000FEF0AF011EF0AF031EF0AF048C0D9FFDA
:1014260049C0DAFFDF30E832E832070B4B6E080EB0
:101436004B6020EF0AF022EF0AF031EF0AF048C0C5
:10144600D9FF49C0DAFFDF50070B4B6E040E4B6421
:101456002FEF0AF031EF0AF094EF0AF0000E516E0A
:10146600A9EF0AF048C0D9FF49C0DAFFDF30E832F9
:10147600E832070B4B6E010E4C6E4B2A45EF0AF015
:10148600D8904C364B2E43EF0AF048C0D9FF49C0DE
:10149600DAFFDF50070B4D6E4D50020D0B0EF32495
:1014A600D96E000EF420DA6EDECF4EF0DDCF4FF0AF
:1014B6004EC0D9FF4FC0DAFF4C50DF12A9EF0AF039
:1014C60048C0D9FF49C0DAFFDF30E832E832070BFF
:1014D6004B6E010E4C6E4B2A73EF0AF0D8904C36C9
:1014E6004B2E71EF0AF04C50FF0A4D6E48C0D9FFE3
:1014F60049C0DAFFDF50070B4E6E4E50020D0B0E41
:10150600F324D96E000EF420DA6EDECF4FF0DDCF75
:1015160050F04FC0D9FF50C0DAFF4D50DF16A9EF8B
:101526000AF04A504B6E4C6A4C50000AD8B49EEFF3
:101536000AF031EF0AF04B50000AD8B463EF0AF014
:10154600010AD8B435EF0AF031EF0AF05150120013
:10155600000E616E5D505E10D8A4B4EF0AF0B6EFCF
:101566000AF0BAEF0AF0000E626E2FEF0BF05DC0C4
:1015760052F05EC053F0DFEC0CF0626E010E5D249B
:10158600526E000E5E20536EDFEC0CF0626E000EA3
:10159600616E61505D245F6E000E5E20606E020E0D
:1015A6005F24526E000E6020536EDFEC0CF0612A51
:1015B600070E6164E1EF0AF0E3EF0AF0CCEF0AF000
:1015C6001A0E5F6EF80EE82EFED75F2EFCD700D0FF
:1015D6005DC054F05EC055F0380E566E97EC0CF0B8
:1015E600070E5F6E7D0EE82EFED75F2EFCD700F04D
:1015F6005DC054F05EC055F0380E566E97EC0CF098
:10160600320EE82EFED75DC054F05EC055F0380E9F
:10161600566E97EC0CF05DC054F05EC055F0380E77
:10162600566E97EC0CF05DC054F05EC055F0010E9E
:10163600566E97EC0CF05DC054F05EC055F0060E89
:10164600566E97EC0CF05DC054F05EC055F00C0E73
:10165600566E97EC0CF0626E62501200000E5F6ED2
:101666005A505B10D8A43AEF0BF03CEF0BF040EF6A
:101676000BF0000E5E6E9DEF0BF05AC052F05BC091
:1016860053F0DFEC0CF05E6E010E5A24526E000E23
:101696005B20536EDFEC0CF05E6E000E5F6E5F50EB
:1016A6005A245C6E000E5B205D6E020E5C24526E48
:1016B600000E5D20536EDFEC0CF05F2A030E5F64B4
:1016C60067EF0BF069EF0BF052EF0BF05AC056F0D4
:1016D6005BC057F0330E586E1DEC0EF0320EE82E3E
:1016E600FED75AC056F05BC057F0320E586E1DEC4E
:1016F6000EF05AC056F05BC057F0280E586E1DEC1F
:101706000EF05AC056F05BC057F0010E586E1DEC35
:101716000EF05AC056F05BC057F0060E586E1DEC20
:101726000EF05AC056F05BC057F00C0E586E1DEC0A
:101736000EF05E6E5E5012005D505E10D8A4A6EFED
:101746000BF0A8EF0BF0AAEF0BF0F6EF0BF060062C
:10175600D9EF0BF05DC054F05EC055F06050800FBD
:10176600566E97EC0CF0F6EF0BF05DC054F05EC0D1
:1017760055F06050C00F566E97EC0CF0F6EF0BF07C
:101786005DC054F05EC055F06050940F566E97ECF5
:101796000CF0F6EF0BF05DC054F05EC055F06050F3
:1017A600D40F566E97EC0CF0F6EF0BF05F50616EAF
:1017B600626A6250000AD8B4E3EF0BF0A8EF0BF0B0
:1017C6006150010AD8B4ADEF0BF0030AD8B4B8EFF4
:1017D6000BF0010AD8B4C3EF0BF0070AD8B4CEEF6A
:1017E6000BF0A8EF0BF012005A505B10D8A4FEEFD6
:1017F6000BF000EF0CF002EF0CF04EEF0CF05D0674
:1018060031EF0CF05AC056F05BC057F05D50800FB8
:10181600586E1DEC0EF04EEF0CF05AC056F05BC041
:1018260057F05D50C00F586E1DEC0EF04EEF0CF0E9
:101836005AC056F05BC057F05D50940F586E1DECC1
:101846000EF04EEF0CF05AC056F05BC057F05D50EC
:10185600D40F586E1DEC0EF04EEF0CF05C505E6E21
:101866005F6A5F50000AD8B43BEF0CF000EF0CF053
:101876005E50010AD8B405EF0CF0030AD8B410EF95
:101886000CF0010AD8B41BEF0CF0070AD8B426EF07
:101896000CF000EF0CF01200000E5C6E5450551068
:1018A600D8A458EF0CF05AEF0CF05EEF0CF0000ED7
:1018B6005B6E95EF0CF054C048F055C049F0010E30
:1018C6004A6E06EC0AF0000E5C6E5C505424576EAD
:1018D600000E5520586E020E5724486E000E5820F2
:1018E600496E5CC059F056C05AF0592A7DEF0CF08B
:1018F600D8905A32592E7BEF0CF05A50010B4A6E93
:1019060006EC0AF05B6E5C2A070E5C648DEF0CF049
:101916008FEF0CF068EF0CF054C052F055C053F046
:1019260018EC0FF05B501200000E5C6E5450551010
:10193600D8A4A0EF0CF0A2EF0CF0A6EF0CF0000E6E
:101946005B6EDDEF0CF054C048F055C049F0000E58
:101956004A6E06EC0AF0000E5C6E5C505424576E1C
:10196600000E5520586E020E5724486E000E582061
:10197600496E5CC059F056C05AF0592AC5EF0CF0B2
:10198600D8905A32592EC3EF0CF05A50010B4A6EBA
:1019960006EC0AF05B6E5C2A070E5C64D5EF0CF071
:1019A600D7EF0CF0B0EF0CF054C052F055C053F026
:1019B60018EC0FF05B50120052505310D8B4E6EFFB
:1019C6000CF0E8EF0CF008EF0DF052C0D9FF53C051
:1019D600DAFFDF30E832E832070B546E080E546047
:1019E600F7EF0CF0F9EF0CF008EF0DF052C0D9FF4D
:1019F60053C0DAFFDF50070B546E040E546406EF33
:101A06000DF008EF0DF00CEF0DF0000E556E22EF05
:101A16000DF052C048F053C049F055EC09F0556E30
:101A260052C048F053C049F052C0D9FF53C0DAFF44
:101A3600000EDFBE010E4A6E06EC0AF0556E5550DA
:101A4600120052505310D8A42BEF0DF02DEF0DF0CD
:101A560031EF0DF0000E556E66EF0DF0020E5224BA
:101A6600486E000E5320496E5450010B4A6E06EC28
:101A76000AF0556E030E5224486E000E5320496E2E
:101A8600D8905430010B4A6E06EC0AF0556E040EDF
:101A96005224486E000E5320496E5440E8423F0BD4
:101AA600010B4A6E06EC0AF0556E050E5224486E7E
:101AB600000E5320496E5438E8461F0B010B4A6E40
:101AC60006EC0AF0556E55501200000E706E695005
:101AD6006A10D8A471EF0DF073EF0DF075EF0DF0ED
:101AE600A5EF0DF069C054F06AC055F06F50080DAF
:101AF600F350400F566E97EC0CF0000E706E69C0F6
:101B060054F06AC055F070506D24D96E000E6E20E8
:101B1600DA6EDF50566E4FEC0CF0702A070E7064CA
:101B260097EF0DF099EF0DF082EF0DF069C063F0BD
:101B36006AC064F06BC065F06CC066F06FC067F099
:101B4600D2EC0EF01200000E6D6E66506710D8A42F
:101B5600AFEF0DF0B1EF0DF0B3EF0DF0E3EF0DF0D9
:101B660066C056F067C057F06C50080DF350400F32
:101B7600586E1DEC0EF0000E6D6E66C056F067C016
:101B860057F06D506A24D96E000E6B20DA6EDF5066
:101B9600586EE4EC0DF06D2A070E6D64D5EF0DF06E
:101BA600D7EF0DF0C0EF0DF066C060F067C061F0D2
:101BB60068C062F069C063F06CC064F0F5EC0EF0CA
:101BC600120056505710D8A4EBEF0DF0EDEF0DF0C4
:101BD600F1EF0DF0000E596E1BEF0EF056C048F0F7
:101BE60057C049F0010E4A6E06EC0AF0596E56C00F
:101BF60052F057C053F058380F0B546E24EC0DF0CA
:101C0600596E56C052F057C053F087EC0EF0596E1D
:101C160056C052F057C053F058C054F024EC0DF0A3
:101C2600596E56C052F057C053F087EC0EF0596EFD
:101C36005950120056505710D8A424EF0EF026EF34
:101C46000EF02AEF0EF0000E596E54EF0EF056C04D
:101C560048F057C049F0000E4A6E06EC0AF0596E7D
:101C660056C052F057C053F058380F0B546E24EC40
:101C76000DF0596E56C052F057C053F087EC0EF077
:101C8600596E56C052F057C053F058C054F024EC69
:101C96000DF0596E56C052F057C053F087EC0EF057
:101CA600596E59501200760EF66E1E0EF76E000E25
:101CB600F86E00EE80F010EE20F00900F5CFEEFF92
:101CC600E550E150FAE15C0EF66E1D0EF76E000E61
:101CD600F86E00EE01F010EE47F00900F5CFEEFFCA
:101CE600E550E150FAE100EEA0F0100EEE6AE806CB
:101CF600FDE100EE73F00C0EEE6AE806FDE1000E63
:101D0600F86E00010BEF08F052505310D8A48EEF76
:101D16000EF090EF0EF094EF0EF0000E546EACEF56
:101D26000EF0010E5224486E000E5320496E010E2D
:101D36004A6E06EC0AF000D000D000F0010E5224E4
:101D4600486E000E5320496E000E4A6E06EC0AF0ED
:101D5600546E54501200800F810F820F830F840F30
:101D6600890F8A0F8B0F8C0F8D0F920F930F940F85
:101D7600950F960F03323A030B131B232B333B0E9F
:101D86000A11111F1F1F000E0A1111111F1F000E2D
:0D1D96000A111111111F00020A121A222A4F
:101DA400010E686E63506410D8A4DBEF0EF0DDEF13
:101DB4000EF0E1EF0EF0000E686EF3EF0EF063C06C
:101DC4005DF064C05EF065C05FF066C060F09FECDB
:101DD4000BF063C054F064C055F067C056F04FEC8C
:101DE4000CF068501200010E656E60506110D8A4AA
:101DF400FEEF0EF000EF0FF004EF0FF0000E656E33
:101E040016EF0FF060C05AF061C05BF062C05CF086
:101E140063C05DF0F7EC0BF060C056F061C057F0A2
:101E240064C058F0E4EC0DF06550120052505310A9
:101E3400D8A41FEF0FF021EF0FF023EF0FF03AEFCC
:101E44000FF0010E5224486E000E5320496E010E0D
:101E54004A6E06EC0AF000D000D000F0010E5224C5
:101E6400486E000E5320496E000E4A6E06EC0AF0CE
:101E74001200020A121A626A727A0E0E1F1F1F1FC4
:101E84001F000E0A1F1F1F1F1F000E0A111F1F1FF6
:101E94001F00420E5A6E000E5B6E31EC0BF0200EEA
:101EA4005D6E000E5E6EABEC0AF012004BEC0FF0B0
:021EB40012001A
:020000040030CA
:0E000000FF02091EFF8181FF0FC00FE00F40BD
:00000001FF
