:04000000C8EF00F055
:0600080069820BED08F017
:100018006980D8CF46F0E8CF47F0E0CF48F0FACF74
:1000280049F0FBCF4AF0D9CF4BF0DACF4CF0F3CF01
:100038004DF0F4CF4EF0F0BC24EF00F026EF00F0C6
:100048002FEF00F0F0A02BEF00F02DEF00F02FEFD6
:1000580000F06BEC0FF0F0BE34EF00F036EF00F07C
:100068003FEF00F0F0A23BEF00F03DEF00F03FEF74
:1000780000F069EC0FF0F1B044EF00F046EF00F04B
:100088005CEF00F0F2A04BEF00F04DEF00F05CEFFA
:1000980000F081380F0B010B6118D8B456EF00F04F
:1000A80058EF00F05CEF00F0010E611A15EC0EF04D
:1000B800F1B061EF00F063EF00F07AEF00F0F2A02A
:1000C80068EF00F06AEF00F07AEF00F08138E8425C
:1000D800070B010B6018D8B474EF00F076EF00F04E
:1000E8007AEF00F0010E601AFEEC0DF0F1B07FEF30
:1000F80000F081EF00F098EF00F0F2A086EF00F03A
:1001080088EF00F098EF00F08144E846030B010BFC
:100118005F18D8B492EF00F094EF00F098EF00F079
:10012800010E5F1AE7EC0DF0F1B09DEF00F09FEFC4
:1001380000F0B4EF00F0F2A0A4EF00F0A6EF00F09A
:10014800B4EF00F08144010B5E18D8B4AEEF00F0B4
:10015800B0EF00F0B4EF00F0010E5E1AD0EC0DF035
:100168004EC0F4FF4DC0F3FF4CC0DAFF4BC0D9FFBF
:100178004AC0FBFF49C0FAFF48C0E0FF47C0E8FF9C
:0C01880046C0D8FF699010004CEF0DF04D
:10100000003738392F3435362A3132332D23303DED
:051010002B2569000022
:101016000600FACF34F0FBCF35F0D9CF36F0DACF71
:1010260037F0F3CF38F0F4CF39F0F2A81DEF08F01F
:101036001FEF08F028EF08F0F2A224EF08F026EFE1
:1010460008F028EF08F071EC0FF0F0AC2DEF08F087
:101056002FEF08F038EF08F0F0A034EF08F036EF85
:1010660008F038EF08F06FEC0FF0F0AE3DEF08F047
:101076003FEF08F048EF08F0F0A244EF08F046EF23
:1010860008F048EF08F06DEC0FF0F1A04DEF08F016
:101096004FEF08F065EF08F0F2A054EF08F056EFB6
:1010A60008F065EF08F081380F0B010B6118D8B412
:1010B6005FEF08F061EF08F065EF08F0010E611AC6
:1010C60071EC0EF0F1A06AEF08F06CEF08F083EF18
:1010D60008F0F2A071EF08F073EF08F083EF08F064
:1010E6008138E842070B010B6018D8B47DEF08F091
:1010F6007FEF08F083EF08F0010E601A5AEC0EF04D
:10110600F1A088EF08F08AEF08F0A1EF08F0F2A04E
:101116008FEF08F091EF08F0A1EF08F08144E84660
:10112600030B010B5F18D8B49BEF08F09DEF08F096
:10113600A1EF08F0010E5F1A43EC0EF0F1A0A6EF46
:1011460008F0A8EF08F0BDEF08F0F2A0ADEF08F048
:10115600AFEF08F0BDEF08F08144010B5E18D8B47C
:10116600B7EF08F0B9EF08F0BDEF08F0010E5E1A10
:101176002CEC0EF039C0F4FF38C0F3FF37C0DAFFAD
:1011860036C0D9FF35C0FBFF34C0FAFF69921100A3
:10119600010E0001AF6FA751A811D8B4D5EF08F022
:1011A600D7EF08F0F7EF08F0A7C0D9FFA8C0DAFF1D
:1011B600DF30E832E832070BA96F080EA961E6EFC7
:1011C60008F0E8EF08F0F7EF08F0A7C0D9FFA8C0CD
:1011D600DAFFDF50070BA96F040EA965F5EF08F0DB
:1011E600F7EF08F05CEF09F0000EAF6F7DEF09F046
:1011F600A7C0D9FFA8C0DAFFDF30E832E832070B14
:10120600A96F010EAA6FA92B0BEF09F0D890AA3788
:10121600A92F09EF09F00001AA51FF0AAB6FA7C079
:10122600D9FFA8C0DAFFDF50070BAC6FAC51020D37
:101236000B0EF324D96E000EF420DA6EDECFADF07D
:10124600DDCFAEF0ADC0D9FFAEC0DAFFAB51DF16D1
:101256007DEF09F0A7C0D9FFA8C0DAFFDF30E8327A
:10126600E832070BA96F010EAA6FA92B3DEF09F013
:10127600D890AA37A92F3BEF09F0A7C0D9FFA8C07D
:10128600DAFFDF50070B0001AB6FAB51020D0B0EFF
:10129600F324D96E000EF420DA6EDECFACF0DDCF8B
:1012A600ADF0ACC0D9FFADC0DAFFAA51DF127DEFB9
:1012B60009F0A7C0D9FFA8C0DAFFDFBC65EF09F0C7
:1012C60068EF09F0010E69EF09F0000EA96FAA6B2D
:1012D600AA51000AD8B472EF09F0F7EF08F0A95145
:1012E600000AD8B4FBEF08F0010AD8B42DEF09F0D4
:1012F600F7EF08F0AF511200010E0001B06FA751D1
:10130600A811D8B489EF09F08BEF09F0ABEF09F01B
:10131600A7C0D9FFA8C0DAFFDF30E832E832070BF2
:10132600AA6F080EAA619AEF09F09CEF09F0ABEFDD
:1013360009F0A7C0D9FFA8C0DAFFDF50070BAA6FD4
:10134600040EAA65A9EF09F0ABEF09F010EF0AF059
:10135600000EB06F25EF0AF0A7C0D9FFA8C0DAFFCC
:10136600DF30E832E832070BAA6F010EAB6FAA2B0B
:10137600BFEF09F0D890AB37AA2FBDEF09F0A7C091
:10138600D9FFA8C0DAFFDF50070B0001AC6FAC51E4
:10139600020D010EF324D96E000EF420DA6EDECFB4
:1013A600ADF0DDCFAEF0ADC0D9FFAEC0DAFFAB51C8
:1013B600DF1225EF0AF0A7C0D9FFA8C0DAFFDF3099
:1013C600E832E832070BAA6F010EAB6FAA2BEEEFDD
:1013D60009F0D890AB37AA2FECEF09F00001AB511A
:1013E600FF0AAC6FA7C0D9FFA8C0DAFFDF50070B12
:1013F600AD6FAD51020D010EF324D96E000EF4202F
:10140600DA6EDECFAEF0DDCFAFF0AEC0D9FFAFC043
:10141600DAFFAC51DF1625EF0AF0A951AA6FAB6BC4
:10142600AB51000AD8B41AEF0AF0ABEF09F0AA5193
:10143600000AD8B4DEEF09F0010AD8B4AFEF09F01C
:10144600ABEF09F0B05112000001AA51AB11D8A4BC
:101456002FEF0AF031EF0AF06DEF0AF0000EAE6FD3
:1014660093EF0AF0AAC0D9FFABC0DAFFDECFA7F030
:10147600DDCFA8F0CAEC0EF00001AE6F93EF0AF0D4
:10148600AAC0D9FFABC0DAFFDECFA7F0DDCFA8F048
:10149600B4EC0EF00001AE6F93EF0AF0AAC0D9FFCC
:1014A600ABC0DAFFDECFA7F0DDCFA8F09EEC0EF0E2
:1014B6000001AE6F93EF0AF0AAC0D9FFABC0DAFF06
:1014C600DECFA7F0DDCFA8F088EC0EF00001AE6FFE
:1014D60093EF0AF020EE02F0AA51D926AB51DA2298
:1014E600DF30E832E832070BAC6FAD6BAD51000A66
:1014F600D8B480EF0AF031EF0AF0AC51040AD8B440
:1015060035EF0AF0010AD8B443EF0AF0030AD8B45B
:1015160051EF0AF0010AD8B45FEF0AF031EF0AF092
:10152600AE511200010E0001AB6FA751A811D8A44D
:101536009FEF0AF0A1EF0AF0CDEF0AF0000EAB6FB5
:10154600F3EF0AF020EE04F0A751D926A851DA22CB
:10155600DF50616EF3EF0AF020EE04F0A751D926B2
:10156600A851DA22DF50606EF3EF0AF020EE04F0A5
:10157600A751D926A851DA22DF505F6EF3EF0AF0A1
:1015860020EE04F0A751D926A851DA22DF505E6E6C
:10159600F3EF0AF020EE02F0A751D926A851DA227D
:1015A600DF30E832E832070BA96FAA6BAA51000AAE
:1015B600D8B4E0EF0AF0A1EF0AF0A951040AD8B4B2
:1015C600A5EF0AF0010AD8B4AFEF0AF0030AD8B4BF
:1015D600B9EF0AF0010AD8B4C3EF0AF0A1EF0AF096
:1015E600AB511200010E416E3A503B10D8B4FEEFDB
:1015F6000AF000EF0BF020EF0BF03AC0D9FF3BC02A
:10160600DAFFDF30E832E832070B3C6E080E3C604A
:101616000FEF0BF011EF0BF020EF0BF03AC0D9FFF4
:101626003BC0DAFFDF50070B3C6E040E3C641EEF36
:101636000BF020EF0BF024EF0BF0000E416E50EF95
:101646000BF03AC0D9FF3BC0DAFFDF30E832E832B0
:10165600070B3C6E010E3D6E3C2A34EF0BF0D89022
:101666003D363C2E32EF0BF03AC0D9FF3BC0DAFFD5
:10167600DF50070B3E6E3E50020D010EF324D96E6D
:10168600000EF420DA6EDECF3FF0DDCF40F03FC033
:10169600D9FF40C0DAFF3D50DF1A41501200010E5B
:1016A6002F6E28502910D8B45BEF0BF05DEF0BF0CE
:1016B6007DEF0BF028C0D9FF29C0DAFFDF30E83212
:1016C600E832070B2A6E080E2A606CEF0BF06EEFFD
:1016D6000BF07DEF0BF028C0D9FF29C0DAFFDF50F1
:1016E600070B2A6E040E2A647BEF0BF07DEF0BF0DE
:1016F60081EF0BF0000E2F6EADEF0BF028C0D9FF77
:1017060029C0DAFFDF30E832E832070B2A6E010E15
:101716002B6E2A2A91EF0BF0D8902B362A2E8FEFBC
:101726000BF028C0D9FF29C0DAFFDF50070B2C6E5B
:101736002C50020D010EF324D96E000EF420DA6E41
:10174600DECF2DF0DDCF2EF02DC0D9FF2EC0DAFF73
:101756002B50DF1A2F5012000001B151B211D8B42C
:10176600B7EF0BF0B9EF0BF0D9EF0BF0B1C0D9FF23
:10177600B2C0DAFFDF30E832E832070BB36F080E8B
:10178600B361C8EF0BF0CAEF0BF0D9EF0BF0B1C0A5
:10179600D9FFB2C0DAFFDF50070BB36F040EB36593
:1017A600D7EF0BF0D9EF0BF0DDEF0BF0000EB46FB7
:1017B600F5EF0BF0B1C0A7F0B2C0A8F0CBEC08F083
:1017C6000001B46FB1C0A7F0B2C0A8F0B1C0D9FF94
:1017D600B2C0DAFF000EDFBE010EA96F7FEC09F082
:1017E6000001B46FB45112000001B351B411D8A472
:1017F600FFEF0BF001EF0CF003EF0CF034EF0CF001
:10180600B3C0A7F0B4C0A8F007EC0FF00001B56FA5
:10181600F290B3C0A7F0B4C0A8F01AEC0DF0000126
:10182600B517B3C0B0F0B4C0B1F0B6EC0DF000011E
:10183600B517B3C0AAF0B4C0ABF027EC0AF00001AC
:10184600B517B3C0A7F0B4C0A8F095EC0AF0000134
:10185600B517B3C0A7F0B4C0A8F0E2EC0CF00001D5
:10186600B517120068C0B8F0B5C0D9FFB6C0DAFF28
:10187600DF500F0B0001B76FB851B719F80BB71946
:10188600B86FB5C0D9FFB6C0DAFFDF38070BB76F40
:10189600B747B747B747B851B719C70BB719B86FA6
:1018A600B89DB5C0D9FFB6C0DAFFDFAE02D0B88F9B
:1018B60002D00001B89FB551B611D8A465EF0CF05F
:1018C60067EF0CF069EF0CF06FEF0CF0B80EB16F2C
:1018D600000EB26FAFEC0BF0120065C045F042C0CF
:1018E600D9FF43C0DAFFDF500F0B446E4550441852
:1018F600F80B4418456E42C0D9FF43C0DAFFDF3803
:10190600070B446E44464446444645504418C70BAC
:101916004418456E459C42C0D9FF43C0DAFFDFAE8E
:1019260002D0458E01D0459E42504310D8A49EEF6A
:101936000CF0A0EF0CF0A2EF0CF0A8EF0CF0450EA7
:101946003A6E000E3B6EF5EC0AF0120065C033F0FD
:1019560030C0D9FF31C0DAFFDF500F0B326E335083
:101966003218F80B3218336E30C0D9FF31C0DAFFA7
:10197600DF38070B326E3246324632463350321863
:10198600C70B3218336E339C30C0D9FF31C0DAFF33
:10199600DFAE02D0338E01D0339E30503110D8A442
:1019A600D7EF0CF0D9EF0CF0DBEF0CF0E1EF0CF019
:1019B600330E286E000E296E52EC0BF01200010E4B
:1019C6000001AA6FA751A811D8A4ECEF0CF0EEEF16
:1019D6000CF0F2EF0CF0000EAA6F18EF0DF0D08E9F
:1019E60020EE03F0A751D926A851DA22DF50D8A459
:1019F600FFEF0CF001EF0DF004EF0DF0F28C17EF96
:101A06000DF020EE03F0A751D926A851DA22DE0404
:101A1600D8A410EF0DF012EF0DF015EF0DF0F28EC9
:101A260017EF0DF0000EAA6FF286AA511200010EF2
:101A36000001AA6FA751A811D8A424EF0DF026EF34
:101A46000DF02AEF0DF0000EAA6F4AEF0DF020EE12
:101A560003F0A751D926A851DA22DF50D8A436EFD1
:101A66000DF038EF0DF03BEF0DF0F1904AEF0DF071
:101A760020EE03F0A751D926A851DA22DE04D8A415
:101A860047EF0DF049EF0DF026EF0DF0F180AA516A
:101A96001200E70EF66E1D0EF76E000EF86E00EEE3
:101AA60080F010EE27F00900F5CFEEFFE550E1508B
:101AB600FAE1C00EF66E1D0EF76E000EF86E00EE21
:101AC60001F010EE27F00900F5CFEEFFE550E150EA
:101AD600FAE100EE4FF01A0EEE6AE806FDE16990B3
:101AE6006992000177EF0DF066EC0FF01F0E000112
:101AF600B36F000EB46FF7EC0BF01A0E0001B36F64
:101B0600000EB46FF7EC0BF0150E0001B36F000E6C
:101B1600B46FF7EC0BF0A20E0001B36F000EB46FBA
:101B2600F7EC0BF095EF0DF0C8EF00F0270E000173
:101B3600B56F000EB66F35EC0CF0260E0001B56FD2
:101B4600000EB66F35EC0CF0250E0001B56F000ED9
:101B5600B66F35EC0CF0240E0001B56F000EB66FB3
:101B660035EC0CF012000001B051B111D8A4BEEF53
:101B76000DF0C0EF0DF0C4EF0DF0000EB26FCEEF1A
:101B86000DF0020EB025A76F000EB121A86FCBECA9
:101B960008F00001B26FB2511200F2904F5050108F
:101BA600D8B4D8EF0DF0DAEF0DF0E6EF0DF002D86D
:101BB600E6EF0DF00500FA6E4F50FD6E5050FE6ECA
:101BC600FF6AFA5012001200F29051505210D8B427
:101BD600EFEF0DF0F1EF0DF0FDEF0DF002D8FDEF98
:101BE6000DF00500FA6E5150FD6E5250FE6EFF6A02
:101BF600FA5012001200F29053505410D8B406EF67
:101C06000EF008EF0EF014EF0EF002D814EF0EF0FF
:101C16000500FA6E5350FD6E5450FE6EFF6AFA5080
:101C260012001200F29055505610D8B41DEF0EF067
:101C36001FEF0EF02BEF0EF002D82BEF0EF0050083
:101C4600FA6E5550FD6E5650FE6EFF6AFA5012003F
:101C56001200F2904F505010D8B434EF0EF036EF19
:101C66000EF042EF0EF002D842EF0EF00500FA6ECB
:101C76004F50FD6E5050FE6EFF6AFA501200120071
:101C8600F29051505210D8B44BEF0EF04DEF0EF0CB
:101C960059EF0EF002D859EF0EF00500FA6E5150CA
:101CA600FD6E5250FE6EFF6AFA5012001200F2905C
:101CB60053505410D8B462EF0EF064EF0EF070EF8C
:101CC6000EF002D870EF0EF00500FA6E5350FD6E5E
:101CD6005450FE6EFF6AFA5012001200F2905550F0
:101CE6005610D8B479EF0EF07BEF0EF087EF0EF0BA
:101CF60002D887EF0EF00500FA6E5550FD6E56506D
:101D0600FE6EFF6AFA5012001200010E0001A96F62
:101D1600A751A811D8A492EF0EF094EF0EF098EF09
:101D26000EF0000EA96F9CEF0EF0A7C04FF0A8C0F2
:101D360050F0A9511200010E0001A96FA751A81178
:101D4600D8A4A8EF0EF0AAEF0EF0AEEF0EF0000E3C
:101D5600A96FB2EF0EF0A7C051F0A8C052F0A9517A
:101D66001200010E0001A96FA751A811D8A4BEEF59
:101D76000EF0C0EF0EF0C4EF0EF0000EA96FC8EF24
:101D86000EF0A7C053F0A8C054F0A9511200010EDE
:101D96000001A96FA751A811D8A4D4EF0EF0D6EF71
:101DA6000EF0DAEF0EF0000EA96FDEEF0EF0A7C010
:101DB60055F0A8C056F0A9511200890F8A0F8B0F53
:101DC6008C0F8D0F920F930F940F950F960F341E55
:101DD6007100004C1E690000641E6100003323136D
:101DE60003800F810F820F830F840F323A030B1388
:101DF6001B232B333B020A121A626A727A020A12F8
:101E06001A222A7C1E790000010E0001A96FA75133
:101E1600A811D8A411EF0FF013EF0FF017EF0FF082
:101E2600000EA96F18EF0FF0F296A951120069A2E1
:101E36001FEF0FF04AEF0FF0250E426E000E436EB5
:101E460070EC0CF0120069A22BEF0FF051EF0FF0BF
:101E5600260E426E000E436E70EC0CF0120069A264
:101E660037EF0FF058EF0FF0270E426E000E436E5D
:101E760070EC0CF0120069A243EF0FF05FEF0FF069
:101E8600240E426E000E436E70EC0CF01200250E0E
:101E9600306E000E316EA9EC0CF01200260E306E7C
:101EA600000E316EA9EC0CF01200270E306E000EFB
:101EB600316EA9EC0CF01200240E306E000E316E5D
:101EC600A9EC0CF0120099EC0DF01200F092120041
:101ED600F0901200F0921200F0901200F2921200AE
:020000040030CA
:0E000000FF02091EFF8181FF0FC00FE00F40BD
:00000001FF
