:04000000AEEF7DF0F2
:10FB28001F0E326E000E336EEDEC7DF03F6E12004C
:10FB3900800F810F820F830F840F890F8A0F8B0F1C
:10FB49008C0F8D0F920F930F940F950F960F020A3A
:10FB5900121A00390EF66EFB0EF76E000EF86E00E3
:10FB6900EE01F010EE23F00900F5CFEEFFE550E1CC
:10FB790050FAE100EE38F0070EEE6AE806FDE10002
:10FB89000EF86E0001C9EF7DF094EC7DF0000E37A0
:10FB99006E1F0E2E6E000E2F6E37C030F063EC7E96
:10FBA900F0030E366E8A0E356E560EE82EFED735E8
:10FBB9002EFCD7362EFAD7372A090E3764E7EF7DA0
:10FBC900F0E9EF7DF0CDEF7DF0CBEF7DF000EF00B8
:10FBD900F032503310D8A4F4EF7DF0F6EF7DF0FA4F
:10FBE900EF7DF0000E346E1CEF7EF032C02EF03344
:10FBF900C02FF01EEC7EF0346E010E32242E6E0002
:10FC09000E33202F6E1EEC7EF0346E020E32242E3F
:10FC19006E000E33202F6E1EEC7EF0346E030E3212
:10FC2900242E6E000E33202F6E1EEC7EF0346E34BF
:10FC39005012002E502F10D8B425EF7EF027EF7EFA
:10FC4900F047EF7EF02EC0D9FF2FC0DAFFDF30E892
:10FC590032E832070B306E080E306036EF7EF0382E
:10FC6900EF7EF047EF7EF02EC0D9FF2FC0DAFFDF1D
:10FC790050070B306E040E306445EF7EF047EF7E7F
:10FC8900F04BEF7EF0000E316E61EF7EF02EC02456
:10FC9900F02FC025F04FEC7FF0316E2EC024F02FED
:10FCA900C025F02EC0D9FF2FC0DAFF000EDFBE013C
:10FCB9000E266EAAEC7EF0316E315012002E502FB6
:10FCC90010D8B46AEF7EF06CEF7EF074EF7EF00925
:10FCD9000E306472EF7EF074EF7EF076EF7EF0A95D
:10FCE900EF7EF02EC024F02FC025F03050010B26F6
:10FCF9006EAAEC7EF0316E010E2E24246E000E2FBA
:10FD090020256ED8903030010B266EAAEC7EF0319A
:10FD19006E020E2E24246E000E2F20256E3040E830
:10FD2900423F0B010B266EAAEC7EF0316E030E2EBC
:10FD390024246E000E2F20256E3038E8461F0B0153
:10FD49000B266EAAEC7EF0316E1200010E2D6E2488
:10FD5900502510D8B4B3EF7EF0B5EF7EF0D5EF7E25
:10FD6900F024C0D9FF25C0DAFFDF30E832E83207D6
:10FD79000B276E080E2760C4EF7EF0C6EF7EF0D524
:10FD8900EF7EF024C0D9FF25C0DAFFDF50070B272B
:10FD99006E040E2764D3EF7EF0D5EF7EF038EF7F47
:10FDA900F0000E2D6E4DEF7FF024C0D9FF25C0DA8B
:10FDB900FFDF30E832E832070B276E010E286E2785
:10FDC9002AE9EF7EF0D8902836272EE7EF7EF02437
:10FDD900C0D9FF25C0DAFFDF50070B296E29500271
:10FDE9000D0B0EF324D96E000EF420DA6EDECF2A45
:10FDF900F0DDCF2BF02AC0D9FF2BC0DAFF2850DF66
:10FE0900124DEF7FF024C0D9FF25C0DAFFDF30E8BB
:10FE190032E832070B276E010E286E272A17EF7F6B
:10FE2900F0D8902836272E15EF7FF02850FF0A29A1
:10FE39006E24C0D9FF25C0DAFFDF50070B2A6E2ACE
:10FE490050020D0B0EF324D96E000EF420DA6EDE8B
:10FE5900CF2BF0DDCF2CF02BC0D9FF2CC0DAFF2936
:10FE690050DF164DEF7FF02650276E286A28500084
:10FE79000AD8B442EF7FF0D5EF7EF02750000AD8B8
:10FE8900B407EF7FF0010AD8B4D9EF7EF0D5EF7E41
:10FE9900F02D501200010E2C6E24502510D8B458A4
:10FEA900EF7FF05AEF7FF07AEF7FF024C0D9FF257A
:10FEB900C0DAFFDF30E832E832070B266E080E267B
:10FEC9006069EF7FF06BEF7FF07AEF7FF024C0D9A4
:10FED900FF25C0DAFFDF50070B266E040E26647873
:10FEE900EF7FF07AEF7FF0DDEF7FF0000E2C6EFEF2
:10FEF900EF7FF024C0D9FF25C0DAFFDF30E832E810
:10FF090032070B266E010E276E262A8EEF7FF0D858
:10FF1900902736262E8CEF7FF02750FF0A286E2473
:10FF2900C0D9FF25C0DAFFDF50070B296E2950021F
:10FF39000D150EF324D96E000EF420DA6EDECF2AE9
:10FF4900F0DDCF2BF02AC0D9FF2BC0DAFF2850DF14
:10FF590016FEEF7FF024C0D9FF25C0DAFFDF30E8B5
:10FF690032E832070B266E010E276E262ABFEF7F75
:10FF7900F0D8902736262EBDEF7FF024C0D9FF2573
:10FF8900C0DAFFDF50070B286E2850020D150EF35B
:10FF990024D96E000EF420DA6EDECF29F0DDCF2AE7
:10FFA900F029C0D9FF2AC0DAFF2750DF12FEEF7F00
:10FFB900F024C0D9FF25C0DAFFDFBCE6EF7FF0E906
:10FFC900EF7FF0010EEAEF7FF0000E266E276A2719
:10FFD90050000AD8B4F3EF7FF07AEF7FF026500093
:10FFE9000AD8B47EEF7FF0010AD8B4AFEF7FF07A78
:07FFF900EF7FF02C50120015
:020000040030CA
:0E000000FF02091EFF8181FF0FC00FE00F40BD
:00000001FF
