:0400000007EF00F016
:0A0008007382EDED0EF090EF18F09A
:10100000003738392F3435362A3132332D23303DED
:101010002B2054656D7031203A20002054656D708E
:1010200032203A20004C4D3335205465737400252E
:0310300069000054
:101034001E50800B276E1E501E242D6E1DAE25EFF4
:1010440008F027EF08F028EF08F02D802D50D8B4D1
:101054002EEF08F030EF08F043EF08F02D28D8A465
:1010640036EF08F038EF08F040EF08F0000E1B6E82
:10107400000E1C6E000E1D6E000E1E6E1D8E4BEFBC
:1010840008F0000E1B6E000E1C6E000E1D6E000E8E
:101094001E6E2250800B271A225022242C6E21AE61
:1010A40056EF08F058EF08F059EF08F02C802C5058
:1010B400D8B45FEF08F061EF08F074EF08F02C2863
:1010C400D8A467EF08F069EF08F071EF08F0000E9C
:1010D4001F6E000E206E000E216E000E226E218EF9
:1010E4007CEF08F0000E1F6E000E206E000E216EC5
:1010F400000E226E2C50D8B482EF08F084EF08F072
:101104008CEF08F02D50D8A48AEF08F08CEF08F08B
:1011140096EF08F0000E1B6E000E1C6E000E1D6E86
:10112400000E1E6E2EEF0AF021501B02F3CF32F098
:10113400F4CF33F03250286E296A2A6A2B6A33506E
:101144002E6E2F6A306A316A20501C02F3CF32F0BF
:10115400F4CF33F032502826000E29222A222B22E3
:1011640033502E26000E2F22302231221F501D0212
:10117400F3CF32F0F4CF33F032502826000E292278
:101184002A222B2233502E26000E2F2230223122E7
:101194002AC02BF029C02AF028C029F0286A1F5041
:1011A4001C02F3CF32F0F4CF33F032502826335000
:1011B4002922000E2A22000E2B2220501B02F3CFDC
:1011C40032F0F4CF33F03250282633502922000E67
:1011D4002A22000E2B222AC02BF029C02AF028C074
:1011E40029F0286A1F501B02F3CF32F0F4CF33F0FA
:1011F4003250282633502922000E2A22000E2B2298
:1012040021501C02F3CF32F0F4CF33F032502E26AB
:1012140033502F22000E3022000E312220501D02A6
:10122400F3CF32F0F4CF33F032502E2633502F2246
:10123400000E3022000E312221501D02F3CF32F075
:10124400F4CF33F03250236E3350246E256A266A6D
:1012540025C026F024C025F023C024F0236A23509F
:101264002E2624502F22255030222650312228C0E9
:1012740023F029C024F02AC025F02BC026F0190E33
:1012840049EF09F0D8902632253224322332E82E51
:1012940044EF09F023502E2624502F2225503022CB
:1012A400265031222AC02BF029C02AF028C029F068
:1012B400286A2C502DC023F0246A2326000E2422F1
:1012C400820E2324326EFF0E2420336E7FEF09F04A
:1012D400D8902E362F36303631362BAE74EF09F0D7
:1012E40076EF09F077EF09F02E80D890283629366A
:1012F4002A362B363206D8A0330630AE84EF09F0F6
:1013040086EF09F06AEF09F0000E2C6E2BAE8DEF1C
:1013140009F08FEF09F0B3EF09F0FF0E2814236EE4
:10132400FF0E2914246EFF0E2A14256E7F0E2B1433
:10133400266E2350241025102610D8B4A4EF09F0EB
:10134400A6EF09F0AAEF09F0010E2C6EB3EF09F035
:101354002EA0AFEF09F0B1EF09F0B3EF09F0A6EF5B
:1013640009F02C50D8B4B9EF09F0BBEF09F0DFEF66
:1013740009F0010E2E26000E2F223022312231A038
:10138400C6EF09F0C8EF09F0DFEF09F02EC023F033
:101394002FC024F030C025F031C026F02634263288
:1013A40025322432233223C02EF024C02FF025C04E
:1013B40030F026C031F0324A332A33BEEAEF09F066
:1013C400335008E13228D8A0EAEF09F0ECEF09F035
:1013D400F6EF09F0000E2E6E000E2F6E800E306EAA
:1013E4007F0E316E24EF0AF033BE03EF0AF0335060
:1013F40006E13204D8B001EF0AF003EF0AF00FEF70
:101404000AF0000E2E6E000E2F6E000E306E000ECF
:10141400316E000E276E24EF0AF032C02DF0FF0E5D
:101424002E16FF0E2F167F0E3016000E31162DA02D
:101434001EEF0AF020EF0AF021EF0AF0308ED89068
:101444002D30316E275031122EC01BF02FC01CF0EE
:1014540030C01DF031C01EF012003750800B446EB6
:10146400375037244B6E36AE3AEF0AF03CEF0AF0B1
:101474003DEF0AF04B804B50D8B443EF0AF045EFF0
:101484000AF05AEF0AF04B28D8A44BEF0AF04DEFBC
:101494000AF055EF0AF0000E346E000E356E000EA1
:1014A400366E000E376E368E000E376E62EF0AF01F
:1014B400000E346E000E356E000E366E000E376E62
:1014C4003B50800B441A3B503B244C6E3AAE6DEFBC
:1014D4000AF06FEF0AF070EF0AF04C804C50D8B469
:1014E40076EF0AF078EF0AF08DEF0AF04C28D8A4D2
:1014F4007EEF0AF080EF0AF088EF0AF0000E386EF3
:10150400000E396E000E3A6E000E3B6E3A8E000EDF
:101514003B6E95EF0AF0000E386E000E396E000E29
:101524003A6E000E3B6E385039103A103B10D8A476
:101534009EEF0AF0A0EF0AF0B8EF0AF0000E346E46
:10154400000E356E000E366E000E376E800E3612AB
:101554007F0E37124450371234C034F035C035F0A2
:1015640036C036F037C037F0FBEF0BF04B50D8A441
:10157400BEEF0AF0C0EF0AF0CAEF0AF0000E346EB4
:10158400000E356E000E366E000E376EFBEF0BF05C
:101594004C504BC03CF03D6A3C5E000E3D5A7F0E01
:1015A4003C24456E000E3D20466E34C040F035C0EC
:1015B40041F036C042F037C043F0000E346E000EE6
:1015C400356E000E366E000E376E000E476E000E3E
:1015D400486E000E496E000E4A6E000E4C6E2BEFE4
:1015E4000BF04C50D8B4F9EF0AF0FBEF0AF012EF0D
:1015F4000BF0D8904036413642364336D8903436D4
:101604003536363637364AAE0AEF0BF00CEF0BF0B0
:101614000DEF0BF03480D8904736483649364A36B9
:101624003850405C395041583A5042583B50435826
:10163400D8A01FEF0BF021EF0BF02AEF0BF04A8C30
:101644003850405E3950415A3A50425A3B50435AFE
:101654004C2A190E4C6431EF0BF033EF0BF0F3EF1F
:101664000AF04050411042104310D8B43CEF0BF044
:101674003EEF0BF056EF0BF0478056EF0BF0D8908F
:1016840034363536363637364AAE4BEF0BF04DEF3F
:101694000BF04EEF0BF03480D8904736483649367D
:1016A4004A364506D8A0460636AE5BEF0BF05DEF32
:1016B4000BF041EF0BF0000E4C6E4AAE64EF0BF0F2
:1016C40066EF0BF08AEF0BF0FF0E47143C6EFF0E33
:1016D40048143D6EFF0E49143E6E7F0E4A143F6E51
:1016E4003C503D103E103F10D8B47BEF0BF07DEF23
:1016F4000BF081EF0BF0010E4C6E8AEF0BF034A06F
:1017040086EF0BF088EF0BF08AEF0BF07DEF0BF018
:101714004C50D8B490EF0BF092EF0BF0B6EF0BF007
:10172400010E3426000E35223622372237A09DEFD3
:101734000BF09FEF0BF0B6EF0BF034C03CF035C06C
:101744003DF036C03EF037C03FF03F343F323E32CA
:101754003D323C323CC034F03DC035F03EC036F042
:101764003FC037F0454A462A46BEC1EF0BF046500B
:1017740008E14528D8A0C1EF0BF0C3EF0BF0CEEF82
:101784000BF0000E466E4568000E346E000E356E8A
:10179400000E366E000E376E46BEDBEF0BF0465081
:1017A40006E14504D8B0D9EF0BF0DBEF0BF0E9EF1D
:1017B4000BF0000E466E000E456E000E346E000EE9
:1017C400356E000E366E000E376E000E446E45C048
:1017D4004BF04BA0F0EF0BF0F2EF0BF0F5EF0BF04A
:1017E400368EF6EF0BF0369ED8904B30376EACEF5A
:1017F4000AF0120061EC1AF0E30E256E000E266E5C
:10180400010E276E060E286E250E296E100E2A6E06
:101814005AEC16F0726E080E0001F66F1B0EF56F8F
:10182400270EE82EFED7F52FFCD7F62FFAD7E30EB6
:101834001B6E000E1C6E010E1D6EAAEC17F07216C4
:10184400E30E256E000E266E010E276E010E286E25
:10185400110E296E100E2A6E5AEC16F07216E30E53
:10186400256E000E266E020E276E010E286E1B0ECC
:10187400296E100E2A6E5AEC16F072166650D8A411
:1018840046EF0CF048EF0CF051EF0CF0DD0E156E46
:10189400000E166E000E176ECEEC19F0721666046A
:1018A400D8A457EF0CF059EF0CF062EF0CF0DD0EFA
:1018B400156E000E166E010E176ECEEC19F0721630
:1018C400000E386E000E396E200E3A6E410E3B6EDD
:1018D400F60E1F6E280E206E9C0E216E400E226E98
:1018E400BDC00DF0BEC00EF00F6A106A000E48ECC9
:1018F4000DF00DC01BF00EC01CF00FC01DF010C089
:101904001EF01AEC08F01BC034F01CC035F01DC0EA
:1019140036F01EC037F02FEC0AF034C04DF035C05D
:101924004EF036C04FF037C050F05CEC12F04DC0B2
:101934009BF04EC09CF0000E386E000E396E200EE7
:101944003A6E410E3B6EF60E1F6E280E206E9C0EF4
:10195400216E400E226EBBC00DF0BCC00EF00F6AAB
:10196400106A000E48EC0DF00DC01BF00EC01CF008
:101974000FC01DF010C01EF01AEC08F01BC034F0AC
:101984001CC035F01DC036F01EC037F02FEC0AF035
:1019940034C04DF035C04EF036C04FF037C050F073
:1019A4005CEC12F04DC099F04EC09AF09BC061F00F
:1019B4009CC062F0B40E636E000E646E4DEC15F0C4
:1019C400721699C061F09AC062F0AD0E636E000E9B
:1019D400646E4DEC15F07216E30E256E000E266E45
:1019E400010E276E0A0E286EB40E296E000E2A6EA2
:1019F4005AEC16F07216E30E256E000E266E020ED9
:101A0400276E0A0E286EAD0E296E000E2A6E5AEC51
:101A140016F0721600019C5109E1150E9B5DD8A0C9
:101A240016EF0DF018EF0DF021EF0DF0EB0E176E21
:101A3400000E186E27EC19F0721628EF0DF0EB0E5D
:101A4400176E000E186E04EC19F0721600019A510C
:101A540009E11A0E995DD8A032EF0DF034EF0DF0C4
:101A64003DEF0DF0E90E176E000E186E4AEC19F0FA
:101A7400721640EF0CF0E90E176E000E186E04ECAF
:101A840019F0721640EF0CF007EF00F0156E1550C8
:101A9400D8B44FEF0DF051EF0DF073EF0DF010BE11
:101AA40058EF0DF056EF0DF073EF0DF00DC011F07F
:101AB4000EC012F00FC013F010C014F0111E121E4D
:101AC400131E141E112A000E12221322142211C0F6
:101AD40017F012C018F013C019F014C01AF07BEFFD
:101AE4000DF00DC017F00EC018F00FC019F010C0A3
:101AF4001AF00D500E100F101010D8A484EF0DF032
:101B040086EF0DF090EF0DF0000E0D6E000E0E6ED0
:101B1400000E0F6E000E106E21EF0EF0960E166E74
:101B24009AEF0DF0162AD8901A3219321832173259
:101B3400000E1714116E000E1814126E000E1914F4
:101B4400136EFE0E1A14146E11501210131014108A
:101B5400D8A4AFEF0DF0B1EF0DF094EF0DF0BFEF9F
:101B64000DF0162A010E1726000E182219221A2229
:101B7400D8901A32193218321732000E1714116E17
:101B8400000E1814126E000E1914136EFF0E1A14A0
:101B9400146E1150121013101410D8A4D4EF0DF0B9
:101BA400D6EF0DF0B3EF0DF0DEEF0DF01606D89082
:101BB4001736183619361A3619BEE3EF0DF0E5EF6D
:101BC4000DF0EDEF0DF0020E1660EBEF0DF0EDEF02
:101BD4000DF0D8EF0DF016B0F2EF0DF0F4EF0DF0BC
:101BE400F5EF0DF0199ED890163216C011F0126A56
:101BF400136A146A11C014F0136A126A116A11503C
:101C04001712125018121350191214501A12155098
:101C1400D8B40FEF0EF011EF0EF019EF0EF010BE66
:101C240018EF0EF016EF0EF019EF0EF01A8E17C023
:101C34000DF018C00EF019C00FF01AC010F0120009
:101C44002BBE27EF0EF02AEF0EF0010E2BEF0EF055
:101C5400000E326E3250D8B432EF0EF034EF0EF084
:101C640038EF0EF02A6C2B1ED8B02B2A000198BF37
:101C740040EF0EF03EEF0EF046EF0EF0000E2F6E2A
:101C8400010E2E6E4AEF0EF097C02EF098C02FF082
:101C940095C030F096C031F03250D8B454EF0EF005
:101CA40056EF0EF06DEF0EF03006D8A0310632502C
:101CB400D8A45FEF0EF061EF0EF067EF0EF0000EA8
:101CC4002D6E2B0E2C6E6BEF0EF0000E2D6E2D0E66
:101CD4002C6E2CC032F0000E346E1F0E336E000ECC
:101CE40001011F6FA6EF0EF03306D8A03406000ED4
:101CF4003324D96E010E3420DA6E2AC00DF02BC0C5
:101D04000EF0000E106E0A0E0F6E02EC16F00DC0EF
:101D140013F00EC014F08FEC19F01350300FDF6E77
:101D24002E06D8A02F063006D8A031062AC00DF002
:101D34002BC00EF0000E106E0A0E0F6E8BEC14F01A
:101D44000DC02AF00EC02BF034BEB1EF0EF03450AB
:101D540008E13304D8A0B1EF0EF0B3EF0EF0C9EFF1
:101D64000EF02A502B10D8A4BAEF0EF0BCEF0EF0F0
:101D740076EF0EF02FBEC9EF0EF02F5006E12E04C1
:101D8400D8B0C7EF0EF0C9EF0EF076EF0EF0325078
:101D9400D8B4CFEF0EF0D1EF0EF0DCEF0EF0330637
:101DA400D8A03406000E3324D96E010E3420DA6E26
:101DB40032C0DFFF28C01DF029C01EF0000E3324FE
:101DC4001F6E010E3420206E30C021F031C022F08D
:101DD40034EC17F012000600FACF09F0FBCF0AF03A
:101DE400D9CF0BF0DACF0CF0F2A8FBEF0EF0FDEF39
:101DF4000EF006EF0FF0F2A202EF0FF004EF0FF077
:101E040006EF0FF076EC1AF0F0A60BEF0FF00DEFE3
:101E14000FF016EF0FF0F0A012EF0FF014EF0FF029
:101E240016EF0FF074EC1AF0F0A81BEF0FF01DEF93
:101E34000FF026EF0FF0F0A222EF0FF024EF0FF0D7
:101E440026EF0FF072EC1AF0F2A62BEF0FF02DEF45
:101E54000FF043EF0FF0F2A032EF0FF034EF0FF07A
:101E640043EF0FF081380F0B010B6A18D8B43DEF24
:101E74000FF03FEF0FF043EF0FF0010E6A1A70EC12
:101E84001AF0F2A648EF0FF04AEF0FF061EF0FF0EF
:101E9400F2A04FEF0FF051EF0FF061EF0FF0813828
:101EA400E842070B010B6918D8B45BEF0FF05DEF44
:101EB4000FF061EF0FF0010E691A6EEC1AF0F2A642
:101EC40066EF0FF068EF0FF07FEF0FF0F2A06DEF09
:101ED4000FF06FEF0FF07FEF0FF08144E846030B34
:101EE400010B6818D8B479EF0FF07BEF0FF07FEF98
:101EF4000FF0010E681A6CEC1AF0F2A684EF0FF0E2
:101F040086EF0FF09BEF0FF0F2A08BEF0FF08DEF49
:101F14000FF09BEF0FF08144010B6718D8B495EFD5
:101F24000FF097EF0FF09BEF0FF0010E671A6AECBA
:101F34001AF09DACA0EF0FF0A2EF0FF0ABEF0FF093
:101F44009EACA7EF0FF0A9EF0FF0ABEF0FF00AEC88
:101F54001AF00CC0DAFF0BC0D9FF0AC0FBFF09C09E
:101F6400FAFF739211000DC017F00EC018F0115053
:101F74001210D8A4C0EF0FF0C2EF0FF0C4EF0FF0AF
:101F84006FEF10F017C0D9FF18C0DAFF0FC0DFFFE2
:101F940011501724136E12501820146EFF0E1324C0
:101FA400D96EFF0E1420DA6E0FC0DFFF125007E166
:101FB400030E115CD8B0E1EF0FF0E3EF0FF0E5EFA3
:101FC4000FF06FEF10F020EE01F01750D9261850E3
:101FD400DA220FC0DFFF20EE02F01750D926185086
:101FE400DA220FC0DFFF11501724136E125018208D
:101FF400146EFE0E1324D96EFF0E1420DA6E0FC079
:10200400DFFF11501724136E12501820146EFD0EAA
:102014001324D96EFF0E1420DA6E0FC0DFFF1250A6
:1020240007E1070E115CD8B01AEF10F01CEF10F0A6
:102034001EEF10F06FEF10F020EE03F01750D926CA
:102044001850DA220FC0DFFF11501724136E1250FC
:102054001820146EFC0E1324D96EFF0E1420DA6EB1
:102064000FC0DFFF125007E1090E115CD8B03DEF3D
:1020740010F03FEF10F041EF10F06FEF10F017C0C9
:1020840013F018C014F0131E141E134A142A030E5E
:102094001314156E166A155017261650182215506B
:1020A400115E1650125AFC0E1116FF0E121666EF30
:1020B40010F017C0D9FF18C0DAFF0FC0DFFF1106F8
:1020C400D8A01206174A182A11501210D8A46DEF7E
:1020D40010F06FEF10F05BEF10F01200010E156EB0
:1020E4000D500E10D8B479EF10F07BEF10F09BEF89
:1020F40010F00DC0D9FF0EC0DAFFDF30E832E8324D
:10210400070B0F6E080E0F608AEF10F08CEF10F0C3
:102114009BEF10F00DC0D9FF0EC0DAFFDF50070BA4
:102124000F6E040E0F6499EF10F09BEF10F0FEEFAA
:1021340010F0000E156E1FEF11F00DC0D9FF0EC088
:10214400DAFFDF30E832E832070B0F6E010E106E53
:102154000F2AAFEF10F0D89010360F2EADEF10F01D
:102164001050FF0A116E0DC0D9FF0EC0DAFFDF5008
:10217400070B126E1250020DD30EF324D96E000E0B
:10218400F420DA6EDECF13F0DDCF14F013C0D9FFE4
:1021940014C0DAFF1150DF161FEF11F00DC0D9FF84
:1021A4000EC0DAFFDF30E832E832070B0F6E010EA3
:1021B400106E0F2AE0EF10F0D89010360F2EDEEFDD
:1021C40010F00DC0D9FF0EC0DAFFDF50070B116EFF
:1021D4001150020DD30EF324D96E000EF420DA6EE2
:1021E400DECF12F0DDCF13F012C0D9FF13C0DAFF37
:1021F4001050DF121FEF11F00DC0D9FF0EC0DAFF2F
:10220400DFBC07EF11F00AEF11F0010E0BEF11F034
:10221400000E0F6E106A1050000AD8B414EF11F0BB
:102224009BEF10F00F50000AD8B49FEF10F0010A92
:10223400D8B4D0EF10F09BEF10F015501200010E3F
:10224400166E0D500E10D8B42AEF11F02CEF11F0C9
:102254004CEF11F00DC0D9FF0EC0DAFFDF30E832C9
:10226400E832070B106E080E10603BEF11F03DEFE3
:1022740011F04CEF11F00DC0D9FF0EC0DAFFDF50A2
:10228400070B106E040E10644AEF11F04CEF11F0BE
:10229400AFEF11F0000E166EC4EF11F00DC0D9FFB0
:1022A4000EC0DAFFDF30E832E832070B106E010EA1
:1022B400116E102A60EF11F0D8901136102E5EEFD7
:1022C40011F00DC0D9FF0EC0DAFFDF50070B126EFC
:1022D4001250020DC90EF324D96E000EF420DA6EEA
:1022E400DECF13F0DDCF14F013C0D9FF14C0DAFF32
:1022F4001150DF12C4EF11F00DC0D9FF0EC0DAFF88
:10230400DF30E832E832070B106E010E116E102A2E
:102314008EEF11F0D8901136102E8CEF11F0115071
:10232400FF0A126E0DC0D9FF0EC0DAFFDF50070B93
:10233400136E1350020DC90EF324D96E000EF4204F
:10234400DA6EDECF14F0DDCF15F014C0D9FF15C05E
:10235400DAFF1250DF16C4EF11F00F50106E116A3D
:102364001150000AD8B4B9EF11F04CEF11F010502D
:10237400000AD8B47EEF11F0010AD8B450EF11F07E
:102384004CEF11F01650120037C0D9FF38C0DAFFF5
:10239400DECFF6FFDDCFF7FFF86A0800F550250A17
:1023A400D8A4D7EF11F0D9EF11F046EF12F037C0EF
:1023B400D9FF38C0DAFFDE2A000EDD22000E00014C
:1023C400966F000E956F95C065F09769986937C050
:1023D400D9FF38C0DAFFDECF41F0DDCF42F041C093
:1023E400F6FF42C0F7FFF86A0800F550640AD8B453
:1023F400FEEF11F000EF12F00FEF12F041C0F6FF04
:1024040042C0F7FFF86A0800F550690AD8A40DEF36
:1024140012F00FEF12F03DEF12F039C0D9FF3AC0BD
:10242400DAFFDFCF3BF0020EDE26DFCF3CF0000EFA
:10243400DD223BC0D9FF3CC0DAFFDECF3DF0DDCF6B
:102444003EF0010E41243B6E000E42203C6E37C02C
:10245400D9FF38C0DAFF3BC0DEFF3CC0DDFF35C02A
:1024640028F036C029F03DC02AF03EC02BF022EC03
:102474000EF05BEF12F037C0D9FF38C0DAFFDE2A66
:10248400000EDD225BEF12F037C0D9FF38C0DAFF4F
:10249400DECFF6FFDDCFF7FFF86A0800F5500D6ECA
:1024A4000E6A35C00FF036C010F026EC14F03DEF84
:1024B40012F012004F345034566E5650D8A465EFC3
:1024C40012F067EF12F071EF12F0000E4D6E000E75
:1024D4004E6E000E4F6E000E506EDEEF12F04DC0C9
:1024E40051F04EC052F04FC053F050C054F0200E83
:1024F40081EF12F0D8905432533252325132E82ED6
:102504007CEF12F05150556E4F8EFF0E4D16FF0E9C
:102514004E16FF0E4F16000E5016960E565E56BE01
:1025240098EF12F096EF12F0AEEF12F05650800AC8
:10253400970FD8B0A0EF12F0A2EF12F0A4EF12F0B0
:1025440067EF12F0D89050324F324E324D32563E31
:10255400A4EF12F0C6EF12F01F0E5664B4EF12F09F
:10256400B6EF12F0BEEF12F067EF12F0D8904D36CE
:102574004E364F36503656065650D8A4C4EF12F095
:10258400C6EF12F0B8EF12F05550D8B4CCEF12F0F9
:10259400CEEF12F0D6EF12F0501E4F1E4E1E4D6CB1
:1025A400000E4E224F2250224DC04DF04EC04EF030
:1025B4004FC04FF050C050F01200000E246E1F5058
:1025C4002010D8A4E8EF12F0EAEF12F0EEEF12F0C8
:1025D400000E236E4BEF13F01FC017F020C018F04D
:1025E400ABEC16F0236E010E1F24176E000E202094
:1025F400186EABEC16F0236E000E246E24501F24CC
:10260400216E000E2020226E020E2124176E000E71
:102614002220186EABEC16F0242A030E246415EF66
:1026240013F017EF13F000EF13F01FC01BF020C0DE
:102634001CF0330E1D6EAAEC17F0320EE82EFED7F6
:102644001FC01BF020C01CF0320E1D6EAAEC17F048
:102654001FC01BF020C01CF0280E1D6EAAEC17F042
:102664001FC01BF020C01CF0010E1D6EAAEC17F059
:102674001FC01BF020C01CF0060E1D6EAAEC17F044
:102684001FC01BF020C01CF00C0E1D6EAAEC17F02E
:10269400236E23501200010E086E01500210D8B4AC
:1026A40056EF13F058EF13F061EF13F003500410DA
:1026B400D8A45FEF13F061EF13F095EF13F0000E61
:1026C400086EB8EF13F0C350C4CF05F0066A05C016
:1026D40006F0056A0526000E0622060E076E06346D
:1026E40006320532072E71EF13F003C0D9FF04C080
:1026F400DAFF05C0DEFF06C0DDFFB8EF13F0C350FC
:10270400C4CF05F0066A05C006F0056A0526000E6A
:10271400062203C0D9FF04C0DAFF05C0DEFF06C0ED
:10272400DDFFB8EF13F020EE05F00150D92602507A
:10273400DA22DFB2A0EF13F0A3EF13F0010EA4EF3F
:1027440013F0000E056E066A0650000AD8B4ADEF09
:1027540013F081EF13F00550000AD8B465EF13F0BD
:10276400010AD8B481EF13F081EF13F0085012007E
:102774000F6EE4EF13F0928025EF14F0928225EFB0
:1027840014F0928425EF14F0928625EF14F0928AC7
:1027940025EF14F0968025EF14F0968225EF14F0BF
:1027A400968425EF14F0938425EF14F0938625EF97
:1027B40014F0938225EF14F0938825EF14F093809E
:1027C40025EF14F00F500D6E0E6A0E50000AD8B4A7
:1027D400EEEF13F025EF14F00D50000AD8B4BDEF5E
:1027E40013F0010AD8B4C0EF13F0030AD8B4C3EF4E
:1027F40013F0010AD8B4C6EF13F0070AD8B4C9EF2E
:1028040013F0010AD8B4CCEF13F0030AD8B4CFEF15
:1028140013F0010AD8B4D2EF13F00F0AD8B4D5EFED
:1028240013F0010AD8B4D8EF13F0030AD8B4DBEFDD
:1028340013F0010AD8B4DEEF13F0070AD8B4E1EFBD
:1028440013F025EF14F012000F501010D8B42DEF30
:1028540014F02FEF14F038EF14F00F501010D8A428
:1028640036EF14F038EF14F03DEF14F00D5078EC1F
:102874001AF08AEF14F020EE0AF00F50D926105007
:10288400DA22DE50DE10D8B44AEF14F04CEF14F024
:1028940067EF14F020EE0AF00F50D9261050DA2218
:1028A40010EE03F00F50E1261050E222DE50E65CF9
:1028B400E650800A156EDE50800A1558D8B065EFD0
:1028C40014F067EF14F08AEF14F020EE03F00F50C9
:1028D400D9261050DA22DECF11F0DDCF12F00FC06E
:1028E400D9FF10C0DAFFDECF13F0DDCF14F01150A2
:1028F4001324D96E12501420DA6E0DC0DFFF20EEBF
:1029040003F00F50D9261050DA22DE2A000EDD2201
:102914001200000E126E10BE94EF14F092EF14F039
:102924009AEF14F00F6C101ED8B0102A010E126E1C
:102934000EBEA1EF14F09FEF14F0A7EF14F00D6C8E
:102944000E1ED8B00E2A010E121A000E146E000EBE
:10295400136E0F501010D8B4B2EF14F0B4EF14F09B
:10296400DCEF14F0010E116EBCEF14F0D8900F36AA
:102974001036112A10AEC1EF14F0C3EF14F0B8EF03
:1029840014F0D890133614360F500D5C10500E58B6
:10299400D8A0CFEF14F0D1EF14F0D6EF14F00F500D
:1029A4000D5E10500E5A1380D89010320F32112E33
:1029B400C3EF14F01250D8B4E2EF14F0E4EF14F0C3
:1029C400E8EF14F0136C141ED8B0142A13C00DF0E1
:1029D40014C00EF01200010E146E11501210D8A47F
:1029E400F6EF14F0F8EF14F0FCEF14F0000E146E90
:1029F4004BEF15F0C29020EE02F01150D926125080
:102A0400DA22DF50136E134613461346C0501318D0
:102A1400C70B1318C06E20EE03F01150D9261250C4
:102A2400DA22DF50136EC0501318F80B1318C06E5F
:102A340020EE04F01150D9261250DA22DF50136E22
:102A440013461346C2501318C30B1318C26E20EE5C
:102A540004F01150D9261250DA22DF50BAEC13F0E8
:102A640011C0D9FF12C0DAFFDECFABF0DDCFACF07E
:102A7400F28EF28C9D8C9E9C11C00DF012C00EF053
:102A840011EC18F011C00DF012C00EF0E3EC17F0C9
:102A9400C28014501200010E0001F36F20EEEDF01D
:102AA400050EDE6AE806FDE2000EF46F6350641062
:102AB400D8A45FEF15F061EF15F065EF15F0000E87
:102AC400F36FA8EF15F063C00DF064C00EF0000EB4
:102AD400106E200E0F6E000E126E060E116EB5EC07
:102AE4000FF0ED0E4B6E000E4C6E2F0E4D6E100E51
:102AF4004E6E61C04FF062C050F0DEEC18F092EF01
:102B040015F0ED0EF425D96EDA6A000EDA22F451CE
:102B14006324E16E000E6420E26EDFCFE7FFF42B46
:102B2400ED0E0001F425D96EDA6A000EDA22DF50C8
:102B3400D8A49FEF15F0A1EF15F083EF15F020EE68
:102B440005F06350D9266450DA22DF6AF35112008B
:102B54001F502010D8A4B1EF15F0B3EF15F0B5EF66
:102B640015F001EF16F02206E4EF15F01FC01BF07C
:102B740020C01CF02250800F1D6EAAEC17F001EF4C
:102B840016F01FC01BF020C01CF02250C00F1D6E99
:102B9400AAEC17F001EF16F01FC01BF020C01CF0C8
:102BA4002250940F1D6EAAEC17F001EF16F01FC00F
:102BB4001BF020C01CF02250D40F1D6EAAEC17F09D
:102BC40001EF16F02150236E246A2450000AD8B471
:102BD400EEEF15F0B3EF15F02350010AD8B4B8EFB7
:102BE40015F0030AD8B4C3EF15F0010AD8B4CEEF38
:102BF40015F0070AD8B4D9EF15F0B3EF15F01200A9
:102C0400000E126E0EBE0BEF16F009EF16F011EF68
:102C140016F00D6C0E1ED8B00E2A010E126E10BEE8
:102C240018EF16F016EF16F01CEF16F00F6C101ECE
:102C3400D8B0102A0F501010D8B423EF16F025EF97
:102C440016F049EF16F0010E116E2DEF16F0D89024
:102C54000F361036112A10AE32EF16F034EF16F09C
:102C640029EF16F00F500D5C10500E58D8A03DEF10
:102C740016F03FEF16F043EF16F00F500D5E1050B4
:102C84000E5AD89010320F32112E34EF16F0125023
:102C9400D8B44FEF16F051EF16F055EF16F00D6C57
:102CA4000E1ED8B00E2A0DC00DF00EC00EF012008C
:102CB400010E2B6E25502610D8A463EF16F065EF95
:102CC40016F069EF16F0000E2B6EA9EF16F025C072
:102CD4001FF026C020F027C021F028C022F0AAEC63
:102CE40015F090EF16F025C01BF026C01CF029C08B
:102CF400F6FF2AC0F7FF000EF86E0F0EF76403D03C
:102D04000800F55005D0F6CFE9FFF7CFEAFFEF5002
:102D14001D6E71EC17F02B6E294A2A2A29C0F6FF82
:102D24002AC0F7FF000EF86E0F0EF76403D00800F8
:102D3400F55005D0F6CFE9FFF7CFEAFFEF500009D1
:102D4400D8A4A7EF16F0A9EF16F075EF16F02B50E4
:102D5400120017501810D8B4B2EF16F0B4EF16F0F2
:102D6400D4EF16F017C0D9FF18C0DAFFDF30E8320D
:102D7400E832070B196E080E1960C3EF16F0C5EFA1
:102D840016F0D4EF16F017C0D9FF18C0DAFFDF50E1
:102D9400070B196E040E1964D2EF16F0D4EF16F077
:102DA400D8EF16F0000E1A6EEEEF16F017C00DF005
:102DB40018C00EF070EC10F01A6E17C00DF018C0A9
:102DC4000EF017C0D9FF18C0DAFF000EDFBE010EE7
:102DD4000F6E21EC11F01A6E1A50120017501810D1
:102DE400D8A4F7EF16F0F9EF16F0FDEF16F0000E89
:102DF4001A6E32EF17F0020E17240D6E000E182013
:102E04000E6E1950010B0F6E21EC11F01A6E030EA9
:102E140017240D6E000E18200E6ED8901930010B79
:102E24000F6E21EC11F01A6E040E17240D6E000EB5
:102E340018200E6E1940E8423F0B010B0F6E21EC77
:102E440011F01A6E050E17240D6E000E18200E6E6A
:102E54001938E8461F0B010B0F6E21EC11F01A6EA6
:102E64001A50120022BE39EF17F03BEF17F041EF72
:102E740017F021C026F022C027F045EF17F0000E0E
:102E8400276E000E266E000E256E000E246E57EF80
:102E940017F0000E0E6E200E0D6E1DC00FF01EC03A
:102EA40010F026EC14F0244A252A2650245C2550E0
:102EB400800A236E2750800A2358D8A064EF17F0A5
:102EC40066EF17F04BEF17F01FC016F020C017F095
:102ED4001DC018F01EC019F06DEC19F012001B5043
:102EE4001C10D8A478EF17F07AEF17F07EEF17F0E4
:102EF400000E1E6EA8EF17F01BC00DF01CC00EF0E4
:102F0400010E0F6E21EC11F01E6E1BC017F01CC0D9
:102F140018F01D380F0B196EF0EC16F01E6E1BC066
:102F240017F01CC018F0B7EC18F01E6E1BC017F099
:102F34001CC018F01DC019F0F0EC16F01E6E1BC07A
:102F440017F01CC018F0B7EC18F01E6E1E501200DB
:102F54001B501C10D8A4B1EF17F0B3EF17F0B7EF64
:102F640017F0000E1E6EE1EF17F01BC00DF01CC031
:102F74000EF0000E0F6E21EC11F01E6E1BC017F048
:102F84001CC018F01D380F0B196EF0EC16F01E6EF5
:102F94001BC017F01CC018F0B7EC18F01E6E1BC055
:102FA40017F01CC018F01DC019F0F0EC16F01E6EDE
:102FB4001BC017F01CC018F0B7EC18F01E6E1E50A2
:102FC4001200EDEF17F0300EC11210EF18F0CF0E13
:102FD400C11610EF18F020EE05F00D50D9260E5052
:102FE400DA22DFB0F8EF17F0FBEF17F0010EFCEF79
:102FF40017F0000E0F6E106A1050000AD8B405EFD7
:1030040018F0E9EF17F00F50000AD8B4E9EF17F001
:10301400010AD8B4E5EF17F0E9EF17F0120019EF41
:1030240018F0C09E3CEF18F0C08E3CEF18F020EE74
:1030340005F00D50D9260E50DA22DFB224EF18F035
:1030440027EF18F0010E28EF18F0000E0F6E106A2B
:103054001050000AD8B431EF18F016EF18F00F50E2
:10306400000AD8B413EF18F0010AD8B416EF18F018
:1030740016EF18F012006604D8A443EF18F045EFD9
:1030840018F053EF18F0000E666EDD0E016E000EA0
:10309400026EBB0E036E000E046E4DEC13F067EF70
:1030A40018F06650D8A459EF18F05BEF18F067EFEA
:1030B40018F0010E666EDD0E016E000E026EBD0E7E
:1030C400036E000E046E4DEC13F0120045C049F07F
:1030D40046C04AF07CEF18F043C035F044C036F0E7
:1030E400490E376E000E386E47C039F048C03AF0CA
:1030F400C6EC11F049C0F6FF4AC0F7FFF86A0800B1
:10310400F5500009D8A489EF18F08BEF18F06EEF92
:1031140018F0000E446E000E436E1200440EF66E5C
:10312400340EF76E000EF86E00EEBFF010EE2EF0C7
:103134000900F5CFEEFFE550E150FAE101EE00F0B1
:10314400200EEE6AE806FDE100EE80F03F0EEE6A26
:10315400E806FDE100EE65F00D0EEE6AE806FDE11D
:10316400739073920001FCEF0BF017501810D8A461
:10317400BEEF18F0C0EF18F0C4EF18F0000E196E8F
:10318400DCEF18F0010E17240D6E000E18200E6EE1
:10319400010E0F6E21EC11F000D000D000F0010EF2
:1031A40017240D6E000E18200E6E000E0F6E21EC0B
:1031B40011F0196E195012004F0E536E000E546E1A
:1031C4004BC055F04CC056F0000E596E000E586EB0
:1031D400000E606E000E5F6E550E436E000E446E60
:1031E4004DC045F04EC046F0530E476E000E486E7B
:1031F40068EC18F058504B24D96E59504C20DA6EB4
:10320400DF6A120017501810D8A40BEF19F00DEF55
:1032140019F011EF19F0000E196E25EF19F017C00F
:103224000DF018C00EF0000E0F6E21EC11F0196EA7
:10323400010E17240D6E000E18200E6E000E0F6E78
:1032440021EC11F0196E1950120017501810D8A45F
:103254002EEF19F030EF19F034EF19F0000E196E5B
:1032640048EF19F017C00DF018C00EF0010E0F6EE4
:1032740021EC11F0196E010E17240D6E000E1820AA
:103284000E6E000E0F6E21EC11F0196E1950120023
:1032940017501810D8A451EF19F053EF19F057EF45
:1032A40019F0000E196E6BEF19F017C00DF018C06D
:1032B4000EF0000E0F6E21EC11F0196E010E1724A2
:1032C4000D6E000E18200E6E010E0F6E21EC11F023
:1032D400196E19501200000E1C6E000E1B6E7EEF4C
:1032E40019F01AC00DF00E6A18C00FF019C010F0D2
:1032F40026EC14F01B4A1C2A1B501624D96E1C50B1
:103304001720DA6EDF501A6E1A50D8A48CEF19F019
:103314008EEF19F073EF19F0120014BE9CEF19F040
:10332400145006E11304D8B09AEF19F09CEF19F089
:10333400AAEF19F013C015F014C016F0151E161ECE
:10334400154A162A15C013F016C014F0AEEF19F082
:1033540013C013F014C014F012001B501C10D8A496
:10336400B6EF19F0B8EF19F0BCEF19F0000E1D6EAE
:10337400CCEF19F01BC017F01CC018F0ABEC16F022
:103384001D6E010E1B24176E000E1C20186EABEC74
:1033940016F01D6E1D50120015501610D8A4D5EF4E
:1033A40019F0D7EF19F0DBEF19F0000E186EEBEF00
:1033B40019F015C010F016C011F017C012F0EDECA2
:1033C40019F0186E15C00DF016C00EF04FEC1AF07F
:1033D400181618501200010E146E10501110D8A4B3
:1033E400F6EF19F0F8EF19F0FCEF19F0000E146E77
:1033F40008EF1AF012C013F013461346C250131804
:10340400C30B1318C26E1250BAEC13F0145012000E
:103414009E9C0001AB51AC11D8B413EF1AF015EF18
:103424001AF021EF1AF002D821EF1AF00500FA6E13
:10343400AB51FD6EAC51FE6EFF6AFA5012001200E1
:10344400800F810F820F830F840F890F8A0F8B0FD8
:103454008C0F8D0F920F930F940F950F960F7A3058
:1034640005050002020A121A222A131B030BE30E9B
:103474001F6E000E206EDFEC12F0256EEB0E1B6E3D
:10348400000E1C6EAFEC19F02516E90E1B6E000E33
:103494001C6EAFEC19F025161200010E0F6E0D50C4
:1034A4000E10D8A458EF1AF05AEF1AF05EEF1AF083
:1034B400000E0F6E5FEF1AF0C2820F50120039EC4B
:1034C4001AF0DD0E116E000E126EEDEC14F0120007
:1034D400F2901200F2901200F2901200F290120098
:0E34E400F0921200F0901200F292120012000C
:020000040030CA
:0E000000FF02091EFF8181FF0FC00FE00F40BD
:00000001FF
