:0400000060EF01F0BC
:0600080070820BED08F010
:100018007080D8CF51F0E8CF52F0E0CF53F0FACF4C
:1000280054F0FBCF55F0D9CF56F0DACF57F0F0BCEB
:1000380020EF00F022EF00F02BEF00F0F0A027EF08
:1000480000F029EF00F02BEF00F00FEC0EF0F0BEFF
:1000580030EF00F032EF00F03BEF00F0F0A237EFA6
:1000680000F039EF00F03BEF00F00DEC0EF0F1B0CE
:1000780040EF00F042EF00F058EF00F0F2A047EF39
:1000880000F049EF00F058EF00F081380F0B010B3A
:100098003918D8B452EF00F054EF00F058EF00F0E0
:1000A800010E391A0BEC0EF0F1B05DEF00F05FEFC6
:1000B80000F076EF00F0F2A064EF00F066EF00F0D9
:1000C80076EF00F08138E842070B010B3818D8B4F6
:1000D80070EF00F072EF00F076EF00F0010E381AC2
:1000E80009EC0EF0F1B07BEF00F07DEF00F094EF3B
:1000F80000F0F2A082EF00F084EF00F094EF00F03F
:100108008144E846030B010B3718D8B48EEF00F092
:1001180090EF00F094EF00F0010E371A07EC0EF0A4
:10012800F1B099EF00F09BEF00F0B0EF00F0F2A013
:10013800A0EF00F0A2EF00F0B0EF00F08144010B57
:100148003618D8B4AAEF00F0ACEF00F0B0EF00F02A
:10015800010E361A05EC0EF09FBCB5EF00F0B7EFB4
:1001680000F0C0EF00F09EACBCEF00F0BEEF00F076
:10017800C0EF00F017EC0EF0F1B4C5EF00F0C7EFD8
:1001880000F0D0EF00F0F2A4CCEF00F0CEEF00F0DA
:10019800D0EF00F0DEEC0DF09FB0D5EF00F0D7EF18
:1001A80000F0E0EF00F09EA0DCEF00F0DEEF00F0E2
:1001B800E0EF00F0D8EC0DF09FB2E5EF00F0E7EFCC
:1001C80000F0F0EF00F09EA2ECEF00F0EEEF00F090
:1001D800F0EF00F0FFEC0DF0A2B2F5EF00F0F7EF52
:1001E80000F000EF01F0A1A2FCEF00F0FEEF00F03C
:1001F80000EF01F0D2EC0DF09FB405EF01F007EF2E
:1002080001F010EF01F09EA40CEF01F00EEF01F0E9
:1002180010EF01F015EC0EF0A2B015EF01F017EF9A
:1002280001F020EF01F0A1A01CEF01F01EEF01F09A
:1002380020EF01F013EC0EF09FB825EF01F027EF47
:1002480001F030EF01F09EA82CEF01F02EEF01F045
:1002580030EF01F011EC0EF09FBA35EF01F037EFF7
:1002680001F040EF01F09EAA3CEF01F03EEF01F0F3
:1002780040EF01F02FEC0EF09FB645EF01F047EF8D
:1002880001F050EF01F09EA64CEF01F04EEF01F0A7
:1002980050EF01F043EC0DF057C0DAFF56C0D9FF1C
:1002A80055C0FBFF54C0FAFF53C0E0FF52C0E8FF3F
:0C02B80051C0D8FF7090100082EF0CF0D5
:10100000003738392F3435362A3132332D23303DED
:051010002B2569000022
:101016000600FACF4BF0FBCF4CF0D9CF4DF0DACF2C
:101026004EF0F2A819EF08F01BEF08F024EF08F0D5
:10103600F2A220EF08F022EF08F024EF08F02DECE2
:101046000EF0F0AC29EF08F02BEF08F034EF08F0C3
:10105600F0A030EF08F032EF08F034EF08F023ECA0
:101066000EF0F0AE39EF08F03BEF08F044EF08F071
:10107600F0A240EF08F042EF08F044EF08F021EC50
:101086000EF0F1A049EF08F04BEF08F061EF08F021
:10109600F2A050EF08F052EF08F061EF08F0813847
:1010A6000F0B010B3918D8B45BEF08F05DEF08F0B1
:1010B60061EF08F0010E391A1FEC0EF0F1A066EF91
:1010C60008F068EF08F07FEF08F0F2A06DEF08F087
:1010D6006FEF08F07FEF08F08138E842070B010B4D
:1010E6003818D8B479EF08F07BEF08F07FEF08F0F6
:1010F600010E381A1DEC0EF0F1A084EF08F086EF11
:1011060008F09DEF08F0F2A08BEF08F08DEF08F0E5
:101116009DEF08F08144E846030B010B3718D8B45D
:1011260097EF08F099EF08F09DEF08F0010E371AD7
:101136001BEC0EF0F1A0A2EF08F0A4EF08F0B9EF57
:1011460008F0F2A0A9EF08F0ABEF08F0B9EF08F04D
:101156008144010B3618D8B4B3EF08F0B5EF08F0A8
:10116600B9EF08F0010E361A19EC0EF09FACBEEF7F
:1011760008F0C0EF08F0C9EF08F09EACC5EF08F024
:10118600C7EF08F0C9EF08F02BEC0EF0F1A4CEEF94
:1011960008F0D0EF08F0D9EF08F0F2A4D5EF08F088
:1011A600D7EF08F0D9EF08F0F0EC0DF09FA0DEEFD6
:1011B60008F0E0EF08F0E9EF08F09EA0E5EF08F090
:1011C600E7EF08F0E9EF08F0EAEC0DF09FA2EEEF8A
:1011D60008F0F0EF08F0F9EF08F09EA2F5EF08F03E
:1011E600F7EF08F0F9EF08F002EC0EF0A2A2FEEF1E
:1011F60008F000EF09F009EF09F0A1A205EF09F0E8
:1012060007EF09F009EF09F0E4EC0DF09FA40EEFEB
:1012160009F010EF09F019EF09F09EA415EF09F097
:1012260017EF09F019EF09F029EC0EF0A2A01EEF56
:1012360009F020EF09F029EF09F0A1A025EF09F048
:1012460027EF09F029EF09F027EC0EF09FA82EEF03
:1012560009F030EF09F039EF09F09EA835EF09F0F3
:1012660037EF09F039EF09F025EC0EF09FAA3EEFB3
:1012760009F040EF09F049EF09F09EAA45EF09F0A1
:1012860047EF09F049EF09F030EC0EF09FA64EEF5C
:1012960009F050EF09F059EF09F09EA655EF09F055
:1012A60057EF09F059EF09F05AEC0DF04EC0DAFF8E
:1012B6004DC0D9FF4CC0FBFF4BC0FAFF7092110026
:1012C600010E606E58505910D8B46CEF09F06EEFED
:1012D60009F08EEF09F058C0D9FF59C0DAFFDF30A8
:1012E600E832E832070B5A6E080E5A607DEF09F0B5
:1012F6007FEF09F08EEF09F058C0D9FF59C0DAFF29
:10130600DF50070B5A6E040E5A648CEF09F08EEF0D
:1013160009F0F1EF09F0000E606E12EF0AF058C006
:10132600D9FF59C0DAFFDF30E832E832070B5A6ED0
:10133600010E5B6E5A2AA2EF09F0D8905B365A2E40
:10134600A0EF09F05B50FF0A5C6E58C0D9FF59C088
:10135600DAFFDF50070B5D6E5D50020D650EF3245C
:10136600D96E000EF420DA6EDECF5EF0DDCF5FF0D0
:101376005EC0D9FF5FC0DAFF5C50DF1612EF0AF0DD
:1013860058C0D9FF59C0DAFFDF30E832E832070B20
:101396005A6E010E5B6E5A2AD3EF09F0D8905B366F
:1013A6005A2ED1EF09F058C0D9FF59C0DAFFDF50E5
:1013B600070B5C6E5C50020D650EF324D96E000EB1
:1013C600F420DA6EDECF5DF0DDCF5EF05DC0D9FFD2
:1013D6005EC0DAFF5B50DF1212EF0AF058C0D9FF89
:1013E60059C0DAFFDFBCFAEF09F0FDEF09F0010E94
:1013F600FEEF09F0000E5A6E5B6A5B50000AD8B425
:1014060007EF0AF08EEF09F05A50000AD8B492EFAF
:1014160009F0010AD8B4C3EF09F08EEF09F0605065
:101426001200010E616E58505910D8B41DEF0AF023
:101436001FEF0AF03FEF0AF058C0D9FF59C0DAFF94
:10144600DF30E832E832070B5B6E080E5B602EEF8A
:101456000AF030EF0AF03FEF0AF058C0D9FF59C042
:10146600DAFFDF50070B5B6E040E5B643DEF0AF09C
:101476003FEF0AF0A2EF0AF0000E616EB7EF0AF036
:1014860058C0D9FF59C0DAFFDF30E832E832070B1F
:101496005B6E010E5C6E5B2A53EF0AF0D8905C36E9
:1014A6005B2E51EF0AF058C0D9FF59C0DAFFDF5062
:1014B600070B5D6E5D50020DA40EF324D96E000E6F
:1014C600F420DA6EDECF5EF0DDCF5FF05EC0D9FFCE
:1014D6005FC0DAFF5C50DF12B7EF0AF058C0D9FFE1
:1014E60059C0DAFFDF30E832E832070B5B6E010ED7
:1014F6005C6E5B2A81EF0AF0D8905C365B2E7FEF3C
:101506000AF05C50FF0A5D6E58C0D9FF59C0DAFF79
:10151600DF50070B5E6E5E50020DA40EF324D96EEB
:10152600000EF420DA6EDECF5FF0DDCF60F05FC034
:10153600D9FF60C0DAFF5D50DF16B7EF0AF05A50E8
:101546005B6E5C6A5C50000AD8B4ACEF0AF03FEF01
:101556000AF05B50000AD8B471EF0AF0010AD8B459
:1015660043EF0AF03FEF0AF061501200000E00014F
:10157600BD6FB951BA11D8A4C3EF0AF0C5EF0AF08E
:10158600C9EF0AF0000EBE6F2FEF0BF0B9C062F084
:10159600BAC063F07AEC0BF00001BE6F010EB925FC
:1015A600626E000EBA21636E7AEC0BF00001BE6F1C
:1015B600000EBD6FBD51B925BB6F000EBA21BC6FC1
:1015C600020EBB25626E000EBC21636E7AEC0BF038
:1015D6000001BD2B030EBD65F3EF0AF0F5EF0AF02F
:1015E600DDEF0AF0B9C0B5F0BAC0B6F0330EB76F8A
:1015F60043EC0CF0320EE82EFED7B9C0B5F0BAC0F7
:10160600B6F0320E0001B76F43EC0CF0B9C0B5F07E
:10161600BAC0B6F0280E0001B76F43EC0CF0B9C0A3
:10162600B5F0BAC0B6F0010E0001B76F43EC0CF08E
:10163600B9C0B5F0BAC0B6F0060E0001B76F43ECFC
:101646000CF0B9C0B5F0BAC0B6F00C0E0001B76F19
:1016560043EC0CF00001BE6FBE51120062506310E5
:10166600D8A438EF0BF03AEF0BF03FEF0BF0000E7B
:101676000001B46F78EF0BF0020E6224586E000E74
:101686006320596E6450010B5A6E14EC0AF0000187
:10169600B46F030E6224586E000E6320596ED89004
:1016A6006430010B5A6E14EC0AF00001B46F040E9C
:1016B6006224586E000E6320596E6440E8423F0B68
:1016C600010B5A6E14EC0AF00001B46F050E622489
:1016D600586E000E6320596E6438E8461F0B010BE6
:1016E6005A6E14EC0AF00001B46FB4511200625045
:1016F6006310D8B481EF0BF083EF0BF0A3EF0BF080
:1017060062C0D9FF63C0DAFFDF30E832E832070B88
:10171600646E080E646092EF0BF094EF0BF0A3EF8B
:101726000BF062C0D9FF63C0DAFFDF50070B646EAF
:10173600040E6464A1EF0BF0A3EF0BF0A8EF0BF01F
:10174600000E0001B46FC0EF0BF062C058F063C02A
:1017560059F063EC09F00001B46F62C058F063C041
:1017660059F062C0D9FF63C0DAFF000EDFBE010E7A
:101776005A6E14EC0AF00001B46FB45112005B50BB
:101786005C10D8A4C9EF0BF0CBEF0BF0CDEF0BF04C
:1017960003EF0CF0C69A5BC0D9FF5CC0DAFFDFA48A
:1017A60002D0C68801D0C6985BC0D9FF5CC0DAFFFC
:1017B600DFA002D0C78C01D0C79C5BC0D9FF5CC03C
:1017C600DAFFDFA202D0C78E01D0C79E5BC058F0F9
:1017D6005CC059F00BEC0DF020EE01F05B50D92601
:1017E6005C50DA22DF505D6EC6505D18F00B5D1856
:1017F600C66E5BC058F05CC059F0B3EC0CF0C68AFC
:1018060012000001B551B611D8A40CEF0CF00EEF82
:101816000CF012EF0CF0000EB86F41EF0CF0B5C0F3
:1018260058F0B6C059F0010E5A6E14EC0AF00001D9
:10183600B86FB5C062F0B6C063F0B7390F0B646E0F
:1018460031EC0BF00001B86FB5C062F0B6C063F0C2
:10185600E4EC0CF00001B86FB5C062F0B6C063F0FE
:10186600B7C064F031EC0BF00001B86FB5C062F0A0
:10187600B6C063F0E4EC0CF00001B86FB85112008A
:101886000001B551B611D8A44BEF0CF04DEF0CF09A
:1018960051EF0CF0000EB86F80EF0CF0B5C058F0A9
:1018A600B6C059F0000E5A6E14EC0AF00001B86F7B
:1018B600B5C062F0B6C063F0B7390F0B646E31EC99
:1018C6000BF00001B86FB5C062F0B6C063F0E4EC8F
:1018D6000CF00001B86FB5C062F0B6C063F0B7C0D7
:1018E60064F031EC0BF00001B86FB5C062F0B6C021
:1018F60063F0E4EC0CF00001B86FB8511200540E1E
:10190600F66E1B0EF76E000EF86E00EE9AF010EEF5
:101916001AF00900F5CFEEFFE550E150FAE1EC0EC2
:10192600F66E1B0EF76E000EF86E00EE65F010EE0A
:101936000BF00900F5CFEEFFE550E150FAE100EEBD
:1019460080F01A0EEE6AE806FDE100EE01F0480EA0
:10195600EE6AE806FDE170907092000128EF0DF046
:101966009E9620EE02F05850D9265950DA22DECF44
:1019760025F0DDCF26F09D86D08E20EE04F058505F
:10198600D9265950DA22DE04D8A4CCEF0CF0CEEFDB
:101996000CF0D2EF0CF09F86F28EE3EF0CF020EE07
:1019A60004F05850D9265950DA22DF50D8A4DEEF79
:1019B6000CF0E0EF0CF0E3EF0CF09F96F28EF28C59
:1019C600120062506310D8A4EBEF0CF0EDEF0CF0B0
:1019D600F1EF0CF0000E646E09EF0DF0010E6224BB
:1019E600586E000E6320596E010E5A6E14EC0AF002
:1019F60000D000D000F0010E6224586E000E632065
:101A0600596E000E5A6E14EC0AF0646E64501200A1
:101A1600949A58C0D9FF59C0DAFFDFB615EF0DF01A
:101A260017EF0DF01AEF0DF0949627EF0DF058C052
:101A3600D9FF59C0DAFFDFA623EF0DF025EF0DF031
:101A460027EF0DF09486928A1200FCEC0DF0C3ECA1
:101A56000DF03504D8A432EF0DF034EF0DF02CEF75
:101A66000DF0AE0E0001B56F000EB66F48C0B7F0B0
:101A760004EC0CF0000E356E2CEF0DF060EF01F06B
:101A86009E9625502610D8B44BEF0DF04DEF0DF075
:101A960059EF0DF002D859EF0DF00500FA6E2550FA
:101AA600FD6E2650FE6EFF6AFA50120012009E96D8
:101AB60025502610D8B462EF0DF064EF0DF070EFEC
:101AC6000DF002D870EF0DF00500FA6E2550FD6E90
:101AD6002650FE6EFF6AFA50120012004F50501048
:101AE600D8A478EF0DF07AEF0DF07CEF0DF084EFCF
:101AF6000DF0010E356E4FC0D9FF50C0DAFFC9CFC9
:101B0600DFFF120049504A10D8A48CEF0DF08EEF7B
:101B16000DF090EF0DF098EF0DF0010E356E49C007
:101B2600D9FF4AC0DAFFC9CFDFFF12004186040E93
:101B3600426E4194419041826E0E436E1B0E446E7E
:101B4600410E5B6E000E5C6EC2EC0BF01200800F55
:101B5600810F820F830F840F890F8A0F8B0F8C0FD3
:101B66008D0F030B131B232B70A2BCEF0DF0CBEFD5
:101B76000DF0480E4F6E000E506E71EC0DF0120017
:101B8600AE0E0001B96F000EBA6FB9EC0AF0120082
:101B9600480E496E000E4A6E85EC0DF012000C5090
:101BA600B36E0BC0B2FFA19212001050CF6E0FC0E1
:101BB600CEFF9E9012001450D76E13C0D6FFF2943B
:101BC60012000C50B36E0BC0B2FFA192120010505F
:101BD600CF6E0FC0CEFF9E9012001450D76E13C06A
:101BE600D6FFF2941200920F930F940F950F960F53
:011BF600717D
:101BF80099EC0DF0120034C0CCFF120034C0CCFFB9
:101C08001200F2901200F2901200F2901200F2907C
:101C18001200F0921200F09012009D981200A1900C
:101C280012009E9412009E9C1200F2901200F290F4
:101C38001200F2901200F2901200F0921200F0904E
:101C480012009D981200A19012009E9412009E9C72
:0A1C58001200F292120012001200B6
:020000040030CA
:0E000000FF02091EFF8181FF0FC00FE00F40BD
:00000001FF
