:0400000001EF7FF09D
:10FDB600800F810F820F830F840F890F8A0F8B0F9D
:10FDC6008C0F8D0F920F930F940F950F960F4392F2
:10FDD6008A821AEC7FF0020E7DEC7FF02F6E030E06
:10FDE6002A6E8A0E296E560EE82EFED7292EFCD7CD
:10FDF6002A2EFAD7EEEF7EF000EF00F0B60EF66E82
:10FE0600FD0EF76E000EF86E00EE01F010EE22F019
:10FE16000900F5CFEEFFE550E150FAE12E6A2D6AB2
:10FE26002C6A2B6A000EF86E0001ECEF7EF0550E80
:10FE3600236E020E37EC7FF02F6E2E0E236E000E11
:10FE4600246E020EA0EC7FF02F6EFF0E236E020EC4
:10FE56005AEC7FF02F6E2D0E236E000E246E020ECE
:10FE6600D0EC7FF02F6E1200276E010E266E040E68
:10FE7600276440EF7FF042EF7FF046EF7FF0000E01
:10FE8600266E58EF7FF02750020D150EF324D96E1B
:10FE9600000EF420DA6EDECF24F0DDCF25F024C08C
:10FEA600D9FF25C0DAFF23C0DFFF26501200276ED8
:10FEB600010E266E040E276463EF7FF065EF7FF078
:10FEC60069EF7FF0000E266E7BEF7FF02750020D64
:10FED6000B0EF324D96E000EF420DA6EDECF24F07A
:10FEE600DDCF25F024C0D9FF25C0DAFF23C0DFFF10
:10FEF60026501200266E010E256E040E266486EF2D
:10FF06007FF088EF7FF08CEF7FF0000E256E9EEF7E
:10FF16007FF02650020D0B0EF324D96E000EF4204E
:10FF2600DA6EDECF23F0DDCF24F023C0D9FF24C064
:10FF3600DAFFFF0EDF1A25501200286E010E276E1B
:10FF460023502410D8B4AAEF7FF0ACEF7FF0B4EFC3
:10FF56007FF0040E2864B2EF7FF0B4EF7FF0B8EFC5
:10FF66007FF0000E276ECEEF7FF02850020D150EA3
:10FF7600F324D96E000EF420DA6EDECF25F0DDCF45
:10FF860026F025C0D9FF26C0DAFF23C0E1FF24C032
:10FF9600E2FFDFCFE7FF27501200286E010E276E23
:10FFA60023502410D8B4DAEF7FF0DCEF7FF0E4EFD3
:10FFB6007FF0040E2864E2EF7FF0E4EF7FF0E8EFD5
:10FFC6007FF0000E276EFEEF7FF02850020D010E27
:10FFD600F324D96E000EF420DA6EDECF25F0DDCFE5
:10FFE60026F025C0D9FF26C0DAFF23C0E1FF24C0D2
:0AFFF600E2FFDFCFE7FF2750120003
:020000040030CA
:0E000000FF02091EFF8181FF0FC00FE00F40BD
:00000001FF
