:0400000080EF7DF020
:10FAC000210E316E000E326E9BEC7DF03D6E1F0EEE
:10FAD000316E000E326E9BEC7DF03D6E1200800F99
:10FAE000810F820F830F840F890F8A0F8B0F8C0F6A
:10FAF0008D0F920F930F940F950F960F121A020A03
:10FB0000DE0EF66EFA0EF76E000EF86E00EE01F0E5
:10FB100010EE22F00900F5CFEEFFE550E150FAE1DA
:10FB200000EE36F0070EEE6AE806FDE1000EF86E14
:10FB300000015FEF7EF031503210D8A4A2EF7DF0CB
:10FB4000A4EF7DF0A8EF7DF0000E336EB8EF7DF0EE
:10FB500031C02DF032C02EF01AEC7EF0336E010E63
:10FB600031242D6E000E32202E6E1AEC7EF0336E94
:10FB7000335012002D502E10D8A4C1EF7DF0C3EFEA
:10FB80007DF0C5EF7DF0D9EF7DF02DC023F02EC0C4
:10FB900024F0000E256EAAEC7EF02F6E010E2D24AF
:10FBA000236E000E2E20246E010E256EAAEC7EF030
:10FBB0002F6E12002D502E10D8A4E1EF7DF0E3EF50
:10FBC0007DF0E5EF7DF0F9EF7DF02DC023F02EC044
:10FBD00024F0010E256EAAEC7EF02F6E010E2D246E
:10FBE000236E000E2E20246E000E256EAAEC7EF0F1
:10FBF0002F6E12002D502E10D8A401EF7EF003EFCF
:10FC00007EF005EF7EF019EF7EF02DC023F02EC0C0
:10FC100024F0000E256EAAEC7EF02F6E010E2D242E
:10FC2000236E000E2E20246E000E256EAAEC7EF0B0
:10FC30002F6E12002D502E10D8B421EF7EF023EF3E
:10FC40007EF043EF7EF02DC0D9FF2EC0DAFFDF300B
:10FC5000E832E832070B2F6E080E2F6032EF7EF08D
:10FC600034EF7EF043EF7EF02DC0D9FF2EC0DAFFD7
:10FC7000DF50070B2F6E040E2F6441EF7EF043EF31
:10FC80007EF047EF7EF0000E306E5DEF7EF02DC00F
:10FC900023F02EC024F04FEC7FF0306E2DC023F007
:10FCA0002EC024F02DC0D9FF2EC0DAFF000EDFBE1B
:10FCB000010E256EAAEC7EF0306E3050120060EC22
:10FCC0007DF0210E2D6E000E2E6EDAEC7DF01F0EF3
:10FCD0002D6E000E2E6EDAEC7DF0100E356E390EA4
:10FCE000346E0E0EE82EFED7342EFCD7352EFAD702
:10FCF000210E2D6E000E2E6EBAEC7DF01F0E2D6EB5
:10FD0000000E2E6EBAEC7DF0100E356E390E346E8C
:10FD10000E0EE82EFED7342EFCD7352EFAD7210E44
:10FD20002D6E000E2E6EFAEC7DF01F0E2D6E000E65
:10FD30002E6EFAEC7DF0100E356E390E346E0E0E0E
:10FD4000E82EFED7342EFCD7352EFAD761EF7EF0A1
:10FD500000EF00F0010E2C6E23502410D8B4B3EF46
:10FD60007EF0B5EF7EF0D5EF7EF023C0D9FF24C042
:10FD7000DAFFDF30E832E832070B266E080E266025
:10FD8000C4EF7EF0C6EF7EF0D5EF7EF023C0D9FF42
:10FD900024C0DAFFDF50070B266E040E2664D3EF73
:10FDA0007EF0D5EF7EF038EF7FF0000E2C6E4DEF39
:10FDB0007FF023C0D9FF24C0DAFFDF30E832E83219
:10FDC000070B266E010E276E262AE9EF7EF0D890EB
:10FDD0002736262EE7EF7EF023C0D9FF24C0DAFFB6
:10FDE000DF50070B286E2850020D0B0EF324D96E3E
:10FDF000000EF420DA6EDECF29F0DDCF2AF029C024
:10FE0000D9FF2AC0DAFF2750DF124DEF7FF023C061
:10FE1000D9FF24C0DAFFDF30E832E832070B266E64
:10FE2000010E276E262A17EF7FF0D8902736262E50
:10FE300015EF7FF02750FF0A286E23C0D9FF24C09A
:10FE4000DAFFDF50070B296E2950020D0B0EF32449
:10FE5000D96E000EF420DA6EDECF2AF0DDCF2BF063
:10FE60002AC0D9FF2BC0DAFF2850DF164DEF7FF0F4
:10FE70002550266E276A2750000AD8B442EF7FF03B
:10FE8000D5EF7EF02650000AD8B407EF7FF0010AC4
:10FE9000D8B4D9EF7EF0D5EF7EF02C501200010ED1
:10FEA0002B6E23502410D8B458EF7FF05AEF7FF018
:10FEB0007AEF7FF023C0D9FF24C0DAFFDF30E832C9
:10FEC000E832070B256E080E256069EF7FF06BEFB7
:10FED0007FF07AEF7FF023C0D9FF24C0DAFFDF5034
:10FEE000070B256E040E256478EF7FF07AEF7FF024
:10FEF000DDEF7FF0000E2B6EFEEF7FF023C0D9FF09
:10FF000024C0DAFFDF30E832E832070B256E010E3D
:10FF1000266E252A8EEF7FF0D8902636252E8CEF80
:10FF20007FF02650FF0A276E23C0D9FF24C0DAFFD6
:10FF3000DF50070B286E2850020D150EF324D96EE2
:10FF4000000EF420DA6EDECF29F0DDCF2AF029C0D2
:10FF5000D9FF2AC0DAFF2750DF16FEEF7FF023C05B
:10FF6000D9FF24C0DAFFDF30E832E832070B256E14
:10FF7000010E266E252ABFEF7FF0D8902636252E5B
:10FF8000BDEF7FF023C0D9FF24C0DAFFDF50070B9D
:10FF9000276E2750020D150EF324D96E000EF420A3
:10FFA000DA6EDECF28F0DDCF29F028C0D9FF29C0D6
:10FFB000DAFF2650DF12FEEF7FF023C0D9FF24C006
:10FFC000DAFFDFBCE6EF7FF0E9EF7FF0010EEAEF4A
:10FFD0007FF0000E256E266A2650000AD8B4F3EF93
:10FFE0007FF07AEF7FF02550000AD8B47EEF7FF0E3
:10FFF000010AD8B4AFEF7FF07AEF7FF02B501200F8
:020000040030CA
:0E000000FF02091EFF8181FF0FC00FE00F40BD
:00000001FF
