:0400000079EF7DF027
:10FA94001F0E2E6E000E2F6ECBEC7DF0396E120011
:10FAA500800F810F820F830F840F890F8A0F8B0FB1
:10FAB5008C0F8D0F920F930F940F950F960F024A8F
:10FAC500EC7DF01F0E286E000E296E92EC7DF00382
:10FAD5000E346E8A0E336E560EE82EFED7332EFC8C
:10FAE500D7342EFAD764EF7DF000EF00F0A50EF6BF
:10FAF5006EFA0EF76E000EF86E00EE01F010EE1FB6
:10FB0500F00900F5CFEEFFE550E150FAE1386A372C
:10FB15006A366A356A000EF86E000162EF7DF035CF
:10FB2500C02BF028C0D9FF29C0DAFFDF500F0B2A00
:10FB35006E2B502A18F80B2A182B6E28C0D9FF29CE
:10FB4500C0DAFFDF38070B2A6E2A462A462A462BDB
:10FB5500502A18C70B2A182B6E2B9C28C0D9FF29B1
:10FB6500C0DAFFDFAE02D02B8E01D02B9E285029A4
:10FB750010D8A4C0EF7DF0C2EF7DF0C4EF7DF0CAD0
:10FB8500EF7DF02B0E206E000E216E4DEC7EF012F7
:10FB95000038C032F02EC0D9FF2FC0DAFFDF500F7A
:10FBA5000B306E32503018F80B3018326E2EC0D92B
:10FBB500FF2FC0DAFFDF38070B306E304630463096
:10FBC5004632503018C70B3018326E329C2EC0D9D1
:10FBD500FF2FC0DAFFDFAE02D0328E01D0329E2E6B
:10FBE500502F10D8A4F9EF7DF0FBEF7DF0FFEF7DEE
:10FBF500F0000E316E06EF7EF0320E2A6E000E2BEF
:10FC05006E08EC7EF0316E315012002A502B10D860
:10FC1500B40FEF7EF011EF7EF031EF7EF02AC0D900
:10FC2500FF2BC0DAFFDF30E832E832070B2C6E0815
:10FC35000E2C6020EF7EF022EF7EF031EF7EF02A71
:10FC4500C0D9FF2BC0DAFFDF50070B2C6E040E2C3A
:10FC5500642FEF7EF031EF7EF035EF7EF0000E2D54
:10FC65006E4BEF7EF02AC020F02BC021F04FEC7FC9
:10FC7500F02D6E2AC020F02BC021F02AC0D9FF2B11
:10FC8500C0DAFF000EDFBE010E226EAAEC7EF02D5B
:10FC95006E2D501200010E276E20502110D8B4563B
:10FCA500EF7EF058EF7EF078EF7EF020C0D9FF218F
:10FCB500C0DAFFDF30E832E832070B226E080E2289
:10FCC5006067EF7EF069EF7EF078EF7EF020C0D9B7
:10FCD500FF21C0DAFFDF50070B226E040E22647687
:10FCE500EF7EF078EF7EF07CEF7EF0000E276EA8B9
:10FCF500EF7EF020C0D9FF21C0DAFFDF30E832E81F
:10FD050032070B226E010E236E222A8CEF7EF0D86D
:10FD1500902336222E8AEF7EF020C0D9FF21C0DA4B
:10FD2500FFDF50070B246E2450020D0B0EF324D970
:10FD35006E000EF420DA6EDECF25F0DDCF26F0253D
:10FD4500C0D9FF26C0DAFF2350DF1A275012000161
:10FD55000E296E20502110D8B4B3EF7EF0B5EF7E9A
:10FD6500F0D5EF7EF020C0D9FF21C0DAFFDF30E803
:10FD750032E832070B236E080E2360C4EF7EF0C60F
:10FD8500EF7EF0D5EF7EF020C0D9FF21C0DAFFDF8E
:10FD950050070B236E040E2364D3EF7EF0D5EF7E60
:10FDA500F038EF7FF0000E296E4DEF7FF020C0D9BF
:10FDB500FF21C0DAFFDF30E832E832070B236E019E
:10FDC5000E246E232AE9EF7EF0D8902436232EE701
:10FDD500EF7EF020C0D9FF21C0DAFFDF50070B25E9
:10FDE5006E2550020D0B0EF324D96E000EF420DAA9
:10FDF5006EDECF26F0DDCF27F026C0D9FF27C0DA8B
:10FE0500FF2450DF124DEF7FF020C0D9FF21C0DA6B
:10FE1500FFDF30E832E832070B236E010E246E2334
:10FE25002A17EF7FF0D8902436232E15EF7FF02484
:10FE350050FF0A256E20C0D9FF21C0DAFFDF500729
:10FE45000B266E2650020D0B0EF324D96E000EF410
:10FE550020DA6EDECF27F0DDCF28F027C0D9FF28C6
:10FE6500C0DAFF2550DF164DEF7FF02250236E24B8
:10FE75006A2450000AD8B442EF7FF0D5EF7EF02314
:10FE850050000AD8B407EF7FF0010AD8B4D9EF7E45
:10FE9500F0D5EF7EF029501200010E286E2050217A
:10FEA50010D8B458EF7FF05AEF7FF07AEF7FF0204B
:10FEB500C0D9FF21C0DAFFDF30E832E832070B2274
:10FEC5006E080E226069EF7FF06BEF7FF07AEF7FAF
:10FED500F020C0D9FF21C0DAFFDF50070B226E04E6
:10FEE5000E226478EF7FF07AEF7FF0DDEF7FF00090
:10FEF5000E286EFEEF7FF020C0D9FF21C0DAFFDFAC
:10FF050030E832E832070B226E010E236E222A8E6C
:10FF1500EF7FF0D8902336222E8CEF7FF02350FF11
:10FF25000A246E20C0D9FF21C0DAFFDF50070B2558
:10FF35006E2550020D150EF324D96E000EF420DA4D
:10FF45006EDECF26F0DDCF27F026C0D9FF27C0DA39
:10FF5500FF2450DF16FEEF7FF020C0D9FF21C0DA65
:10FF6500FFDF30E832E832070B226E010E236E22E6
:10FF75002ABFEF7FF0D8902336222EBDEF7FF020E9
:10FF8500C0D9FF21C0DAFFDF50070B246E245002D1
:10FF95000D150EF324D96E000EF420DA6EDECF2592
:10FFA500F0DDCF26F025C0D9FF26C0DAFF2350DFCC
:10FFB50012FEEF7FF020C0D9FF21C0DAFFDFBCE6DB
:10FFC500EF7FF0E9EF7FF0010EEAEF7FF0000E2200
:10FFD5006E236A2350000AD8B4F3EF7FF07AEF7FDF
:10FFE500F02250000AD8B47EEF7FF0010AD8B4AFF2
:0BFFF500EF7FF07AEF7FF02850120041
:020000040030CA
:0E000000FF02091EFF8181FF0FC00FE00F40BD
:00000001FF
